{
	"Users/leilei/Downloads/TradingCompV2RewardDistribution/contracts/BEP20TokenImplementation.sol": {
		"BEP20TokenImplementation": {
			"abi": [
				{
					"inputs": [],
					"stateMutability": "nonpayable",
					"type": "constructor"
				},
				{
					"anonymous": false,
					"inputs": [
						{
							"indexed": true,
							"internalType": "address",
							"name": "owner",
							"type": "address"
						},
						{
							"indexed": true,
							"internalType": "address",
							"name": "spender",
							"type": "address"
						},
						{
							"indexed": false,
							"internalType": "uint256",
							"name": "value",
							"type": "uint256"
						}
					],
					"name": "Approval",
					"type": "event"
				},
				{
					"anonymous": false,
					"inputs": [
						{
							"indexed": true,
							"internalType": "address",
							"name": "previousOwner",
							"type": "address"
						},
						{
							"indexed": true,
							"internalType": "address",
							"name": "newOwner",
							"type": "address"
						}
					],
					"name": "OwnershipTransferred",
					"type": "event"
				},
				{
					"anonymous": false,
					"inputs": [
						{
							"indexed": true,
							"internalType": "address",
							"name": "from",
							"type": "address"
						},
						{
							"indexed": true,
							"internalType": "address",
							"name": "to",
							"type": "address"
						},
						{
							"indexed": false,
							"internalType": "uint256",
							"name": "value",
							"type": "uint256"
						}
					],
					"name": "Transfer",
					"type": "event"
				},
				{
					"inputs": [
						{
							"internalType": "address",
							"name": "owner",
							"type": "address"
						},
						{
							"internalType": "address",
							"name": "spender",
							"type": "address"
						}
					],
					"name": "allowance",
					"outputs": [
						{
							"internalType": "uint256",
							"name": "",
							"type": "uint256"
						}
					],
					"stateMutability": "view",
					"type": "function"
				},
				{
					"inputs": [
						{
							"internalType": "address",
							"name": "spender",
							"type": "address"
						},
						{
							"internalType": "uint256",
							"name": "amount",
							"type": "uint256"
						}
					],
					"name": "approve",
					"outputs": [
						{
							"internalType": "bool",
							"name": "",
							"type": "bool"
						}
					],
					"stateMutability": "nonpayable",
					"type": "function"
				},
				{
					"inputs": [
						{
							"internalType": "address",
							"name": "account",
							"type": "address"
						}
					],
					"name": "balanceOf",
					"outputs": [
						{
							"internalType": "uint256",
							"name": "",
							"type": "uint256"
						}
					],
					"stateMutability": "view",
					"type": "function"
				},
				{
					"inputs": [
						{
							"internalType": "uint256",
							"name": "amount",
							"type": "uint256"
						}
					],
					"name": "burn",
					"outputs": [
						{
							"internalType": "bool",
							"name": "",
							"type": "bool"
						}
					],
					"stateMutability": "nonpayable",
					"type": "function"
				},
				{
					"inputs": [],
					"name": "decimals",
					"outputs": [
						{
							"internalType": "uint8",
							"name": "",
							"type": "uint8"
						}
					],
					"stateMutability": "view",
					"type": "function"
				},
				{
					"inputs": [
						{
							"internalType": "address",
							"name": "spender",
							"type": "address"
						},
						{
							"internalType": "uint256",
							"name": "subtractedValue",
							"type": "uint256"
						}
					],
					"name": "decreaseAllowance",
					"outputs": [
						{
							"internalType": "bool",
							"name": "",
							"type": "bool"
						}
					],
					"stateMutability": "nonpayable",
					"type": "function"
				},
				{
					"inputs": [],
					"name": "getOwner",
					"outputs": [
						{
							"internalType": "address",
							"name": "",
							"type": "address"
						}
					],
					"stateMutability": "view",
					"type": "function"
				},
				{
					"inputs": [
						{
							"internalType": "address",
							"name": "spender",
							"type": "address"
						},
						{
							"internalType": "uint256",
							"name": "addedValue",
							"type": "uint256"
						}
					],
					"name": "increaseAllowance",
					"outputs": [
						{
							"internalType": "bool",
							"name": "",
							"type": "bool"
						}
					],
					"stateMutability": "nonpayable",
					"type": "function"
				},
				{
					"inputs": [
						{
							"internalType": "string",
							"name": "name",
							"type": "string"
						},
						{
							"internalType": "string",
							"name": "symbol",
							"type": "string"
						},
						{
							"internalType": "uint8",
							"name": "decimals",
							"type": "uint8"
						},
						{
							"internalType": "uint256",
							"name": "amount",
							"type": "uint256"
						},
						{
							"internalType": "bool",
							"name": "mintable",
							"type": "bool"
						},
						{
							"internalType": "address",
							"name": "owner",
							"type": "address"
						}
					],
					"name": "initialize",
					"outputs": [],
					"stateMutability": "nonpayable",
					"type": "function"
				},
				{
					"inputs": [
						{
							"internalType": "uint256",
							"name": "amount",
							"type": "uint256"
						}
					],
					"name": "mint",
					"outputs": [
						{
							"internalType": "bool",
							"name": "",
							"type": "bool"
						}
					],
					"stateMutability": "nonpayable",
					"type": "function"
				},
				{
					"inputs": [],
					"name": "mintable",
					"outputs": [
						{
							"internalType": "bool",
							"name": "",
							"type": "bool"
						}
					],
					"stateMutability": "view",
					"type": "function"
				},
				{
					"inputs": [],
					"name": "name",
					"outputs": [
						{
							"internalType": "string",
							"name": "",
							"type": "string"
						}
					],
					"stateMutability": "view",
					"type": "function"
				},
				{
					"inputs": [],
					"name": "renounceOwnership",
					"outputs": [],
					"stateMutability": "nonpayable",
					"type": "function"
				},
				{
					"inputs": [],
					"name": "symbol",
					"outputs": [
						{
							"internalType": "string",
							"name": "",
							"type": "string"
						}
					],
					"stateMutability": "view",
					"type": "function"
				},
				{
					"inputs": [],
					"name": "totalSupply",
					"outputs": [
						{
							"internalType": "uint256",
							"name": "",
							"type": "uint256"
						}
					],
					"stateMutability": "view",
					"type": "function"
				},
				{
					"inputs": [
						{
							"internalType": "address",
							"name": "recipient",
							"type": "address"
						},
						{
							"internalType": "uint256",
							"name": "amount",
							"type": "uint256"
						}
					],
					"name": "transfer",
					"outputs": [
						{
							"internalType": "bool",
							"name": "",
							"type": "bool"
						}
					],
					"stateMutability": "nonpayable",
					"type": "function"
				},
				{
					"inputs": [
						{
							"internalType": "address",
							"name": "sender",
							"type": "address"
						},
						{
							"internalType": "address",
							"name": "recipient",
							"type": "address"
						},
						{
							"internalType": "uint256",
							"name": "amount",
							"type": "uint256"
						}
					],
					"name": "transferFrom",
					"outputs": [
						{
							"internalType": "bool",
							"name": "",
							"type": "bool"
						}
					],
					"stateMutability": "nonpayable",
					"type": "function"
				},
				{
					"inputs": [
						{
							"internalType": "address",
							"name": "newOwner",
							"type": "address"
						}
					],
					"name": "transferOwnership",
					"outputs": [],
					"stateMutability": "nonpayable",
					"type": "function"
				}
			],
			"devdoc": {
				"methods": {
					"allowance(address,address)": {
						"details": "See {BEP20-allowance}."
					},
					"approve(address,uint256)": {
						"details": "See {BEP20-approve}. Requirements: - `spender` cannot be the zero address."
					},
					"balanceOf(address)": {
						"details": "See {BEP20-balanceOf}."
					},
					"burn(uint256)": {
						"details": "Burn `amount` tokens and decreasing the total supply."
					},
					"decimals()": {
						"details": "Returns the token decimals."
					},
					"decreaseAllowance(address,uint256)": {
						"details": "Atomically decreases the allowance granted to `spender` by the caller. This is an alternative to {approve} that can be used as a mitigation for problems described in {BEP20-approve}. Emits an {Approval} event indicating the updated allowance. Requirements: - `spender` cannot be the zero address. - `spender` must have allowance for the caller of at least `subtractedValue`."
					},
					"getOwner()": {
						"details": "Returns the bep token owner."
					},
					"increaseAllowance(address,uint256)": {
						"details": "Atomically increases the allowance granted to `spender` by the caller. This is an alternative to {approve} that can be used as a mitigation for problems described in {BEP20-approve}. Emits an {Approval} event indicating the updated allowance. Requirements: - `spender` cannot be the zero address."
					},
					"initialize(string,string,uint8,uint256,bool,address)": {
						"details": "sets initials supply and the owner"
					},
					"mint(uint256)": {
						"details": "Creates `amount` tokens and assigns them to `msg.sender`, increasing the total supply. Requirements - `msg.sender` must be the token owner - `_mintable` must be true"
					},
					"mintable()": {
						"details": "Returns if the token is mintable or not"
					},
					"name()": {
						"details": "Returns the token name."
					},
					"renounceOwnership()": {
						"details": "Leaves the contract without owner. It will not be possible to call `onlyOwner` functions anymore. Can only be called by the current owner. NOTE: Renouncing ownership will leave the contract without an owner, thereby removing any functionality that is only available to the owner."
					},
					"symbol()": {
						"details": "Returns the token symbol."
					},
					"totalSupply()": {
						"details": "See {BEP20-totalSupply}."
					},
					"transfer(address,uint256)": {
						"details": "See {BEP20-transfer}. Requirements: - `recipient` cannot be the zero address. - the caller must have a balance of at least `amount`."
					},
					"transferFrom(address,address,uint256)": {
						"details": "See {BEP20-transferFrom}. Emits an {Approval} event indicating the updated allowance. This is not required by the EIP. See the note at the beginning of {BEP20}; Requirements: - `sender` and `recipient` cannot be the zero address. - `sender` must have a balance of at least `amount`. - the caller must have allowance for `sender`'s tokens of at least `amount`."
					},
					"transferOwnership(address)": {
						"details": "Transfers ownership of the contract to a new account (`newOwner`). Can only be called by the current owner."
					}
				}
			},
			"evm": {
				"assembly": "    /* \"Users/leilei/Downloads/TradingCompV2RewardDistribution/contracts/BEP20TokenImplementation.sol\":11737:21749  contract BEP20TokenImplementation is Context, IBEP20, Initializable {... */\n  mstore(0x40, 0x80)\n    /* \"Users/leilei/Downloads/TradingCompV2RewardDistribution/contracts/BEP20TokenImplementation.sol\":12236:12264  constructor() public {... */\n  callvalue\n    /* \"--CODEGEN--\":5:14   */\n  dup1\n    /* \"--CODEGEN--\":2:4   */\n  iszero\n  tag_1\n  jumpi\n    /* \"--CODEGEN--\":27:28   */\n  0x00\n    /* \"--CODEGEN--\":24:25   */\n  dup1\n    /* \"--CODEGEN--\":17:29   */\n  revert\n    /* \"--CODEGEN--\":2:4   */\ntag_1:\n    /* \"Users/leilei/Downloads/TradingCompV2RewardDistribution/contracts/BEP20TokenImplementation.sol\":12236:12264  constructor() public {... */\n  pop\n    /* \"Users/leilei/Downloads/TradingCompV2RewardDistribution/contracts/BEP20TokenImplementation.sol\":11737:21749  contract BEP20TokenImplementation is Context, IBEP20, Initializable {... */\n  dataSize(sub_0)\n  dup1\n  dataOffset(sub_0)\n  0x00\n  codecopy\n  0x00\n  return\nstop\n\nsub_0: assembly {\n        /* \"Users/leilei/Downloads/TradingCompV2RewardDistribution/contracts/BEP20TokenImplementation.sol\":11737:21749  contract BEP20TokenImplementation is Context, IBEP20, Initializable {... */\n      mstore(0x40, 0x80)\n      callvalue\n        /* \"--CODEGEN--\":5:14   */\n      dup1\n        /* \"--CODEGEN--\":2:4   */\n      iszero\n      tag_1\n      jumpi\n        /* \"--CODEGEN--\":27:28   */\n      0x00\n        /* \"--CODEGEN--\":24:25   */\n      dup1\n        /* \"--CODEGEN--\":17:29   */\n      revert\n        /* \"--CODEGEN--\":2:4   */\n    tag_1:\n        /* \"Users/leilei/Downloads/TradingCompV2RewardDistribution/contracts/BEP20TokenImplementation.sol\":11737:21749  contract BEP20TokenImplementation is Context, IBEP20, Initializable {... */\n      pop\n      jumpi(tag_2, lt(calldatasize, 0x04))\n      shr(0xe0, calldataload(0x00))\n      dup1\n      0x715018a6\n      gt\n      tag_21\n      jumpi\n      dup1\n      0xa457c2d7\n      gt\n      tag_22\n      jumpi\n      dup1\n      0xa457c2d7\n      eq\n      tag_16\n      jumpi\n      dup1\n      0xa9059cbb\n      eq\n      tag_17\n      jumpi\n      dup1\n      0xdd62ed3e\n      eq\n      tag_18\n      jumpi\n      dup1\n      0xef3ebcb8\n      eq\n      tag_19\n      jumpi\n      dup1\n      0xf2fde38b\n      eq\n      tag_20\n      jumpi\n      jump(tag_2)\n    tag_22:\n      dup1\n      0x715018a6\n      eq\n      tag_12\n      jumpi\n      dup1\n      0x893d20e8\n      eq\n      tag_13\n      jumpi\n      dup1\n      0x95d89b41\n      eq\n      tag_14\n      jumpi\n      dup1\n      0xa0712d68\n      eq\n      tag_15\n      jumpi\n      jump(tag_2)\n    tag_21:\n      dup1\n      0x313ce567\n      gt\n      tag_23\n      jumpi\n      dup1\n      0x313ce567\n      eq\n      tag_7\n      jumpi\n      dup1\n      0x39509351\n      eq\n      tag_8\n      jumpi\n      dup1\n      0x42966c68\n      eq\n      tag_9\n      jumpi\n      dup1\n      0x4bf365df\n      eq\n      tag_10\n      jumpi\n      dup1\n      0x70a08231\n      eq\n      tag_11\n      jumpi\n      jump(tag_2)\n    tag_23:\n      dup1\n      0x06fdde03\n      eq\n      tag_3\n      jumpi\n      dup1\n      0x095ea7b3\n      eq\n      tag_4\n      jumpi\n      dup1\n      0x18160ddd\n      eq\n      tag_5\n      jumpi\n      dup1\n      0x23b872dd\n      eq\n      tag_6\n      jumpi\n    tag_2:\n        /* \"--CODEGEN--\":12:13   */\n      0x00\n        /* \"--CODEGEN--\":9:10   */\n      dup1\n        /* \"--CODEGEN--\":2:14   */\n      revert\n        /* \"Users/leilei/Downloads/TradingCompV2RewardDistribution/contracts/BEP20TokenImplementation.sol\":14379:14471  function name() external override view returns (string memory) {... */\n    tag_3:\n      tag_24\n      tag_25\n      jump\t// in\n    tag_24:\n      0x40\n      dup1\n      mload\n      0x20\n      dup1\n      dup3\n      mstore\n      dup4\n      mload\n      dup2\n      dup4\n      add\n      mstore\n      dup4\n      mload\n      swap2\n      swap3\n      dup4\n      swap3\n      swap1\n      dup4\n      add\n      swap2\n      dup6\n      add\n      swap1\n      dup1\n      dup4\n      dup4\n      0x00\n        /* \"--CODEGEN--\":8:108   */\n    tag_26:\n        /* \"--CODEGEN--\":33:36   */\n      dup4\n        /* \"--CODEGEN--\":30:31   */\n      dup2\n        /* \"--CODEGEN--\":27:37   */\n      lt\n        /* \"--CODEGEN--\":8:108   */\n      iszero\n      tag_28\n      jumpi\n        /* \"--CODEGEN--\":90:101   */\n      dup2\n      dup2\n      add\n        /* \"--CODEGEN--\":84:102   */\n      mload\n        /* \"--CODEGEN--\":71:82   */\n      dup4\n      dup3\n      add\n        /* \"--CODEGEN--\":64:103   */\n      mstore\n        /* \"--CODEGEN--\":52:54   */\n      0x20\n        /* \"--CODEGEN--\":45:55   */\n      add\n        /* \"--CODEGEN--\":8:108   */\n      jump(tag_26)\n    tag_28:\n        /* \"--CODEGEN--\":12:26   */\n      pop\n        /* \"Users/leilei/Downloads/TradingCompV2RewardDistribution/contracts/BEP20TokenImplementation.sol\":14379:14471  function name() external override view returns (string memory) {... */\n      pop\n      pop\n      pop\n      swap1\n      pop\n      swap1\n      dup2\n      add\n      swap1\n      0x1f\n      and\n      dup1\n      iszero\n      tag_29\n      jumpi\n      dup1\n      dup3\n      sub\n      dup1\n      mload\n      0x01\n      dup4\n      0x20\n      sub\n      0x0100\n      exp\n      sub\n      not\n      and\n      dup2\n      mstore\n      0x20\n      add\n      swap2\n      pop\n    tag_29:\n      pop\n      swap3\n      pop\n      pop\n      pop\n      mload(0x40)\n      dup1\n      swap2\n      sub\n      swap1\n      return\n        /* \"Users/leilei/Downloads/TradingCompV2RewardDistribution/contracts/BEP20TokenImplementation.sol\":15511:15671  function approve(address spender, uint256 amount) external override returns (bool) {... */\n    tag_4:\n      tag_30\n      0x04\n      dup1\n      calldatasize\n      sub\n        /* \"--CODEGEN--\":15:17   */\n      0x40\n        /* \"--CODEGEN--\":10:13   */\n      dup2\n        /* \"--CODEGEN--\":7:18   */\n      lt\n        /* \"--CODEGEN--\":4:6   */\n      iszero\n      tag_31\n      jumpi\n        /* \"--CODEGEN--\":31:32   */\n      0x00\n        /* \"--CODEGEN--\":28:29   */\n      dup1\n        /* \"--CODEGEN--\":21:33   */\n      revert\n        /* \"--CODEGEN--\":4:6   */\n    tag_31:\n      pop\n      sub(shl(0xa0, 0x01), 0x01)\n        /* \"Users/leilei/Downloads/TradingCompV2RewardDistribution/contracts/BEP20TokenImplementation.sol\":15511:15671  function approve(address spender, uint256 amount) external override returns (bool) {... */\n      dup2\n      calldataload\n      and\n      swap1\n      0x20\n      add\n      calldataload\n      tag_32\n      jump\t// in\n    tag_30:\n      0x40\n      dup1\n      mload\n      swap2\n      iszero\n      iszero\n      dup3\n      mstore\n      mload\n      swap1\n      dup2\n      swap1\n      sub\n      0x20\n      add\n      swap1\n      return\n        /* \"Users/leilei/Downloads/TradingCompV2RewardDistribution/contracts/BEP20TokenImplementation.sol\":14530:14630  function totalSupply() external override view returns (uint256) {... */\n    tag_5:\n      tag_33\n      tag_34\n      jump\t// in\n    tag_33:\n      0x40\n      dup1\n      mload\n      swap2\n      dup3\n      mstore\n      mload\n      swap1\n      dup2\n      swap1\n      sub\n      0x20\n      add\n      swap1\n      return\n        /* \"Users/leilei/Downloads/TradingCompV2RewardDistribution/contracts/BEP20TokenImplementation.sol\":16128:16439  function transferFrom(address sender, address recipient, uint256 amount) external override returns (bool) {... */\n    tag_6:\n      tag_30\n      0x04\n      dup1\n      calldatasize\n      sub\n        /* \"--CODEGEN--\":15:17   */\n      0x60\n        /* \"--CODEGEN--\":10:13   */\n      dup2\n        /* \"--CODEGEN--\":7:18   */\n      lt\n        /* \"--CODEGEN--\":4:6   */\n      iszero\n      tag_36\n      jumpi\n        /* \"--CODEGEN--\":31:32   */\n      0x00\n        /* \"--CODEGEN--\":28:29   */\n      dup1\n        /* \"--CODEGEN--\":21:33   */\n      revert\n        /* \"--CODEGEN--\":4:6   */\n    tag_36:\n      pop\n      sub(shl(0xa0, 0x01), 0x01)\n        /* \"Users/leilei/Downloads/TradingCompV2RewardDistribution/contracts/BEP20TokenImplementation.sol\":16128:16439  function transferFrom(address sender, address recipient, uint256 amount) external override returns (bool) {... */\n      dup2\n      calldataload\n      dup2\n      and\n      swap2\n      0x20\n      dup2\n      add\n      calldataload\n      swap1\n      swap2\n      and\n      swap1\n      0x40\n      add\n      calldataload\n      tag_37\n      jump\t// in\n        /* \"Users/leilei/Downloads/TradingCompV2RewardDistribution/contracts/BEP20TokenImplementation.sol\":14075:14167  function decimals() external override view returns (uint8) {... */\n    tag_7:\n      tag_38\n      tag_39\n      jump\t// in\n    tag_38:\n      0x40\n      dup1\n      mload\n      0xff\n      swap1\n      swap3\n      and\n      dup3\n      mstore\n      mload\n      swap1\n      dup2\n      swap1\n      sub\n      0x20\n      add\n      swap1\n      return\n        /* \"Users/leilei/Downloads/TradingCompV2RewardDistribution/contracts/BEP20TokenImplementation.sol\":16833:17040  function increaseAllowance(address spender, uint256 addedValue) public returns (bool) {... */\n    tag_8:\n      tag_30\n      0x04\n      dup1\n      calldatasize\n      sub\n        /* \"--CODEGEN--\":15:17   */\n      0x40\n        /* \"--CODEGEN--\":10:13   */\n      dup2\n        /* \"--CODEGEN--\":7:18   */\n      lt\n        /* \"--CODEGEN--\":4:6   */\n      iszero\n      tag_41\n      jumpi\n        /* \"--CODEGEN--\":31:32   */\n      0x00\n        /* \"--CODEGEN--\":28:29   */\n      dup1\n        /* \"--CODEGEN--\":21:33   */\n      revert\n        /* \"--CODEGEN--\":4:6   */\n    tag_41:\n      pop\n      sub(shl(0xa0, 0x01), 0x01)\n        /* \"Users/leilei/Downloads/TradingCompV2RewardDistribution/contracts/BEP20TokenImplementation.sol\":16833:17040  function increaseAllowance(address spender, uint256 addedValue) public returns (bool) {... */\n      dup2\n      calldataload\n      and\n      swap1\n      0x20\n      add\n      calldataload\n      tag_42\n      jump\t// in\n        /* \"Users/leilei/Downloads/TradingCompV2RewardDistribution/contracts/BEP20TokenImplementation.sol\":18295:18412  function burn(uint256 amount) public returns (bool) {... */\n    tag_9:\n      tag_30\n      0x04\n      dup1\n      calldatasize\n      sub\n        /* \"--CODEGEN--\":15:17   */\n      0x20\n        /* \"--CODEGEN--\":10:13   */\n      dup2\n        /* \"--CODEGEN--\":7:18   */\n      lt\n        /* \"--CODEGEN--\":4:6   */\n      iszero\n      tag_44\n      jumpi\n        /* \"--CODEGEN--\":31:32   */\n      0x00\n        /* \"--CODEGEN--\":28:29   */\n      dup1\n        /* \"--CODEGEN--\":21:33   */\n      revert\n        /* \"--CODEGEN--\":4:6   */\n    tag_44:\n      pop\n        /* \"Users/leilei/Downloads/TradingCompV2RewardDistribution/contracts/BEP20TokenImplementation.sol\":18295:18412  function burn(uint256 amount) public returns (bool) {... */\n      calldataload\n      tag_45\n      jump\t// in\n        /* \"Users/leilei/Downloads/TradingCompV2RewardDistribution/contracts/BEP20TokenImplementation.sol\":13777:13859  function mintable() external view returns (bool) {... */\n    tag_10:\n      tag_30\n      tag_47\n      jump\t// in\n        /* \"Users/leilei/Downloads/TradingCompV2RewardDistribution/contracts/BEP20TokenImplementation.sol\":14687:14806  function balanceOf(address account) external override view returns (uint256) {... */\n    tag_11:\n      tag_33\n      0x04\n      dup1\n      calldatasize\n      sub\n        /* \"--CODEGEN--\":15:17   */\n      0x20\n        /* \"--CODEGEN--\":10:13   */\n      dup2\n        /* \"--CODEGEN--\":7:18   */\n      lt\n        /* \"--CODEGEN--\":4:6   */\n      iszero\n      tag_49\n      jumpi\n        /* \"--CODEGEN--\":31:32   */\n      0x00\n        /* \"--CODEGEN--\":28:29   */\n      dup1\n        /* \"--CODEGEN--\":21:33   */\n      revert\n        /* \"--CODEGEN--\":4:6   */\n    tag_49:\n      pop\n        /* \"Users/leilei/Downloads/TradingCompV2RewardDistribution/contracts/BEP20TokenImplementation.sol\":14687:14806  function balanceOf(address account) external override view returns (uint256) {... */\n      calldataload\n      sub(shl(0xa0, 0x01), 0x01)\n      and\n      tag_50\n      jump\t// in\n        /* \"Users/leilei/Downloads/TradingCompV2RewardDistribution/contracts/BEP20TokenImplementation.sol\":13185:13322  function renounceOwnership() public onlyOwner {... */\n    tag_12:\n      tag_51\n      tag_52\n      jump\t// in\n    tag_51:\n      stop\n        /* \"Users/leilei/Downloads/TradingCompV2RewardDistribution/contracts/BEP20TokenImplementation.sol\":13922:14013  function getOwner() external override view returns (address) {... */\n    tag_13:\n      tag_53\n      tag_54\n      jump\t// in\n    tag_53:\n      0x40\n      dup1\n      mload\n      sub(shl(0xa0, 0x01), 0x01)\n      swap1\n      swap3\n      and\n      dup3\n      mstore\n      mload\n      swap1\n      dup2\n      swap1\n      sub\n      0x20\n      add\n      swap1\n      return\n        /* \"Users/leilei/Downloads/TradingCompV2RewardDistribution/contracts/BEP20TokenImplementation.sol\":14227:14323  function symbol() external override view returns (string memory) {... */\n    tag_14:\n      tag_24\n      tag_56\n      jump\t// in\n        /* \"Users/leilei/Downloads/TradingCompV2RewardDistribution/contracts/BEP20TokenImplementation.sol\":18026:18211  function mint(uint256 amount) public onlyOwner returns (bool) {... */\n    tag_15:\n      tag_30\n      0x04\n      dup1\n      calldatasize\n      sub\n        /* \"--CODEGEN--\":15:17   */\n      0x20\n        /* \"--CODEGEN--\":10:13   */\n      dup2\n        /* \"--CODEGEN--\":7:18   */\n      lt\n        /* \"--CODEGEN--\":4:6   */\n      iszero\n      tag_62\n      jumpi\n        /* \"--CODEGEN--\":31:32   */\n      0x00\n        /* \"--CODEGEN--\":28:29   */\n      dup1\n        /* \"--CODEGEN--\":21:33   */\n      revert\n        /* \"--CODEGEN--\":4:6   */\n    tag_62:\n      pop\n        /* \"Users/leilei/Downloads/TradingCompV2RewardDistribution/contracts/BEP20TokenImplementation.sol\":18026:18211  function mint(uint256 amount) public onlyOwner returns (bool) {... */\n      calldataload\n      tag_63\n      jump\t// in\n        /* \"Users/leilei/Downloads/TradingCompV2RewardDistribution/contracts/BEP20TokenImplementation.sol\":17526:17784  function decreaseAllowance(address spender, uint256 subtractedValue) public returns (bool) {... */\n    tag_16:\n      tag_30\n      0x04\n      dup1\n      calldatasize\n      sub\n        /* \"--CODEGEN--\":15:17   */\n      0x40\n        /* \"--CODEGEN--\":10:13   */\n      dup2\n        /* \"--CODEGEN--\":7:18   */\n      lt\n        /* \"--CODEGEN--\":4:6   */\n      iszero\n      tag_65\n      jumpi\n        /* \"--CODEGEN--\":31:32   */\n      0x00\n        /* \"--CODEGEN--\":28:29   */\n      dup1\n        /* \"--CODEGEN--\":21:33   */\n      revert\n        /* \"--CODEGEN--\":4:6   */\n    tag_65:\n      pop\n      sub(shl(0xa0, 0x01), 0x01)\n        /* \"Users/leilei/Downloads/TradingCompV2RewardDistribution/contracts/BEP20TokenImplementation.sol\":17526:17784  function decreaseAllowance(address spender, uint256 subtractedValue) public returns (bool) {... */\n      dup2\n      calldataload\n      and\n      swap1\n      0x20\n      add\n      calldataload\n      tag_66\n      jump\t// in\n        /* \"Users/leilei/Downloads/TradingCompV2RewardDistribution/contracts/BEP20TokenImplementation.sol\":15008:15174  function transfer(address recipient, uint256 amount) external override returns (bool) {... */\n    tag_17:\n      tag_30\n      0x04\n      dup1\n      calldatasize\n      sub\n        /* \"--CODEGEN--\":15:17   */\n      0x40\n        /* \"--CODEGEN--\":10:13   */\n      dup2\n        /* \"--CODEGEN--\":7:18   */\n      lt\n        /* \"--CODEGEN--\":4:6   */\n      iszero\n      tag_68\n      jumpi\n        /* \"--CODEGEN--\":31:32   */\n      0x00\n        /* \"--CODEGEN--\":28:29   */\n      dup1\n        /* \"--CODEGEN--\":21:33   */\n      revert\n        /* \"--CODEGEN--\":4:6   */\n    tag_68:\n      pop\n      sub(shl(0xa0, 0x01), 0x01)\n        /* \"Users/leilei/Downloads/TradingCompV2RewardDistribution/contracts/BEP20TokenImplementation.sol\":15008:15174  function transfer(address recipient, uint256 amount) external override returns (bool) {... */\n      dup2\n      calldataload\n      and\n      swap1\n      0x20\n      add\n      calldataload\n      tag_69\n      jump\t// in\n        /* \"Users/leilei/Downloads/TradingCompV2RewardDistribution/contracts/BEP20TokenImplementation.sol\":15231:15374  function allowance(address owner, address spender) external override view returns (uint256) {... */\n    tag_18:\n      tag_33\n      0x04\n      dup1\n      calldatasize\n      sub\n        /* \"--CODEGEN--\":15:17   */\n      0x40\n        /* \"--CODEGEN--\":10:13   */\n      dup2\n        /* \"--CODEGEN--\":7:18   */\n      lt\n        /* \"--CODEGEN--\":4:6   */\n      iszero\n      tag_71\n      jumpi\n        /* \"--CODEGEN--\":31:32   */\n      0x00\n        /* \"--CODEGEN--\":28:29   */\n      dup1\n        /* \"--CODEGEN--\":21:33   */\n      revert\n        /* \"--CODEGEN--\":4:6   */\n    tag_71:\n      pop\n      sub(shl(0xa0, 0x01), 0x01)\n        /* \"Users/leilei/Downloads/TradingCompV2RewardDistribution/contracts/BEP20TokenImplementation.sol\":15231:15374  function allowance(address owner, address spender) external override view returns (uint256) {... */\n      dup2\n      calldataload\n      dup2\n      and\n      swap2\n      0x20\n      add\n      calldataload\n      and\n      tag_72\n      jump\t// in\n        /* \"Users/leilei/Downloads/TradingCompV2RewardDistribution/contracts/BEP20TokenImplementation.sol\":12537:12849  function initialize(string memory name, string memory symbol, uint8 decimals, uint256 amount, bool mintable, address owner) public initializer {... */\n    tag_19:\n      tag_51\n      0x04\n      dup1\n      calldatasize\n      sub\n        /* \"--CODEGEN--\":15:18   */\n      0xc0\n        /* \"--CODEGEN--\":10:13   */\n      dup2\n        /* \"--CODEGEN--\":7:19   */\n      lt\n        /* \"--CODEGEN--\":4:6   */\n      iszero\n      tag_74\n      jumpi\n        /* \"--CODEGEN--\":32:33   */\n      0x00\n        /* \"--CODEGEN--\":29:30   */\n      dup1\n        /* \"--CODEGEN--\":22:34   */\n      revert\n        /* \"--CODEGEN--\":4:6   */\n    tag_74:\n        /* \"Users/leilei/Downloads/TradingCompV2RewardDistribution/contracts/BEP20TokenImplementation.sol\":12537:12849  function initialize(string memory name, string memory symbol, uint8 decimals, uint256 amount, bool mintable, address owner) public initializer {... */\n      dup2\n      add\n      swap1\n      0x20\n      dup2\n      add\n      dup2\n      calldataload\n        /* \"--CODEGEN--\":27:38   */\n      0x0100000000\n        /* \"--CODEGEN--\":11:39   */\n      dup2\n      gt\n        /* \"--CODEGEN--\":8:10   */\n      iszero\n      tag_75\n      jumpi\n        /* \"--CODEGEN--\":52:53   */\n      0x00\n        /* \"--CODEGEN--\":49:50   */\n      dup1\n        /* \"--CODEGEN--\":42:54   */\n      revert\n        /* \"--CODEGEN--\":8:10   */\n    tag_75:\n        /* \"Users/leilei/Downloads/TradingCompV2RewardDistribution/contracts/BEP20TokenImplementation.sol\":12537:12849  function initialize(string memory name, string memory symbol, uint8 decimals, uint256 amount, bool mintable, address owner) public initializer {... */\n      dup3\n      add\n        /* \"--CODEGEN--\":41:50   */\n      dup4\n        /* \"--CODEGEN--\":34:38   */\n      0x20\n        /* \"--CODEGEN--\":18:32   */\n      dup3\n        /* \"--CODEGEN--\":14:39   */\n      add\n        /* \"--CODEGEN--\":11:51   */\n      gt\n        /* \"--CODEGEN--\":8:10   */\n      iszero\n      tag_76\n      jumpi\n        /* \"--CODEGEN--\":64:65   */\n      0x00\n        /* \"--CODEGEN--\":61:62   */\n      dup1\n        /* \"--CODEGEN--\":54:66   */\n      revert\n        /* \"--CODEGEN--\":8:10   */\n    tag_76:\n        /* \"Users/leilei/Downloads/TradingCompV2RewardDistribution/contracts/BEP20TokenImplementation.sol\":12537:12849  function initialize(string memory name, string memory symbol, uint8 decimals, uint256 amount, bool mintable, address owner) public initializer {... */\n      dup1\n      calldataload\n      swap1\n      0x20\n      add\n      swap2\n        /* \"--CODEGEN--\":100:109   */\n      dup5\n        /* \"--CODEGEN--\":95:96   */\n      0x01\n        /* \"--CODEGEN--\":81:93   */\n      dup4\n        /* \"--CODEGEN--\":77:97   */\n      mul\n        /* \"--CODEGEN--\":67:75   */\n      dup5\n        /* \"--CODEGEN--\":63:98   */\n      add\n        /* \"--CODEGEN--\":60:110   */\n      gt\n        /* \"--CODEGEN--\":39:50   */\n      0x0100000000\n        /* \"--CODEGEN--\":25:37   */\n      dup4\n        /* \"--CODEGEN--\":22:51   */\n      gt\n        /* \"--CODEGEN--\":11:118   */\n      or\n        /* \"--CODEGEN--\":8:10   */\n      iszero\n      tag_77\n      jumpi\n        /* \"--CODEGEN--\":131:132   */\n      0x00\n        /* \"--CODEGEN--\":128:129   */\n      dup1\n        /* \"--CODEGEN--\":121:133   */\n      revert\n        /* \"--CODEGEN--\":8:10   */\n    tag_77:\n        /* \"Users/leilei/Downloads/TradingCompV2RewardDistribution/contracts/BEP20TokenImplementation.sol\":12537:12849  function initialize(string memory name, string memory symbol, uint8 decimals, uint256 amount, bool mintable, address owner) public initializer {... */\n      swap2\n      swap1\n      dup1\n      dup1\n      0x1f\n      add\n      0x20\n      dup1\n      swap2\n      div\n      mul\n      0x20\n      add\n      mload(0x40)\n      swap1\n      dup2\n      add\n      0x40\n      mstore\n      dup1\n      swap4\n      swap3\n      swap2\n      swap1\n      dup2\n      dup2\n      mstore\n      0x20\n      add\n      dup4\n      dup4\n        /* \"--CODEGEN--\":30:33   */\n      dup1\n        /* \"--CODEGEN--\":22:28   */\n      dup3\n        /* \"--CODEGEN--\":14:20   */\n      dup5\n        /* \"--CODEGEN--\":1:34   */\n      calldatacopy\n        /* \"--CODEGEN--\":99:100   */\n      0x00\n        /* \"--CODEGEN--\":81:97   */\n      swap3\n      add\n        /* \"--CODEGEN--\":74:101   */\n      swap2\n      swap1\n      swap2\n      mstore\n      pop\n        /* \"Users/leilei/Downloads/TradingCompV2RewardDistribution/contracts/BEP20TokenImplementation.sol\":12537:12849  function initialize(string memory name, string memory symbol, uint8 decimals, uint256 amount, bool mintable, address owner) public initializer {... */\n      swap3\n      swap6\n      swap5\n      swap4\n      0x20\n      dup2\n      add\n      swap4\n      pop\n      calldataload\n      swap2\n      pop\n      pop\n        /* \"--CODEGEN--\":27:38   */\n      0x0100000000\n        /* \"--CODEGEN--\":11:39   */\n      dup2\n      gt\n        /* \"--CODEGEN--\":8:10   */\n      iszero\n      tag_78\n      jumpi\n        /* \"--CODEGEN--\":52:53   */\n      0x00\n        /* \"--CODEGEN--\":49:50   */\n      dup1\n        /* \"--CODEGEN--\":42:54   */\n      revert\n        /* \"--CODEGEN--\":8:10   */\n    tag_78:\n        /* \"Users/leilei/Downloads/TradingCompV2RewardDistribution/contracts/BEP20TokenImplementation.sol\":12537:12849  function initialize(string memory name, string memory symbol, uint8 decimals, uint256 amount, bool mintable, address owner) public initializer {... */\n      dup3\n      add\n        /* \"--CODEGEN--\":41:50   */\n      dup4\n        /* \"--CODEGEN--\":34:38   */\n      0x20\n        /* \"--CODEGEN--\":18:32   */\n      dup3\n        /* \"--CODEGEN--\":14:39   */\n      add\n        /* \"--CODEGEN--\":11:51   */\n      gt\n        /* \"--CODEGEN--\":8:10   */\n      iszero\n      tag_79\n      jumpi\n        /* \"--CODEGEN--\":64:65   */\n      0x00\n        /* \"--CODEGEN--\":61:62   */\n      dup1\n        /* \"--CODEGEN--\":54:66   */\n      revert\n        /* \"--CODEGEN--\":8:10   */\n    tag_79:\n        /* \"Users/leilei/Downloads/TradingCompV2RewardDistribution/contracts/BEP20TokenImplementation.sol\":12537:12849  function initialize(string memory name, string memory symbol, uint8 decimals, uint256 amount, bool mintable, address owner) public initializer {... */\n      dup1\n      calldataload\n      swap1\n      0x20\n      add\n      swap2\n        /* \"--CODEGEN--\":100:109   */\n      dup5\n        /* \"--CODEGEN--\":95:96   */\n      0x01\n        /* \"--CODEGEN--\":81:93   */\n      dup4\n        /* \"--CODEGEN--\":77:97   */\n      mul\n        /* \"--CODEGEN--\":67:75   */\n      dup5\n        /* \"--CODEGEN--\":63:98   */\n      add\n        /* \"--CODEGEN--\":60:110   */\n      gt\n        /* \"--CODEGEN--\":39:50   */\n      0x0100000000\n        /* \"--CODEGEN--\":25:37   */\n      dup4\n        /* \"--CODEGEN--\":22:51   */\n      gt\n        /* \"--CODEGEN--\":11:118   */\n      or\n        /* \"--CODEGEN--\":8:10   */\n      iszero\n      tag_80\n      jumpi\n        /* \"--CODEGEN--\":131:132   */\n      0x00\n        /* \"--CODEGEN--\":128:129   */\n      dup1\n        /* \"--CODEGEN--\":121:133   */\n      revert\n        /* \"--CODEGEN--\":8:10   */\n    tag_80:\n        /* \"Users/leilei/Downloads/TradingCompV2RewardDistribution/contracts/BEP20TokenImplementation.sol\":12537:12849  function initialize(string memory name, string memory symbol, uint8 decimals, uint256 amount, bool mintable, address owner) public initializer {... */\n      swap2\n      swap1\n      dup1\n      dup1\n      0x1f\n      add\n      0x20\n      dup1\n      swap2\n      div\n      mul\n      0x20\n      add\n      mload(0x40)\n      swap1\n      dup2\n      add\n      0x40\n      mstore\n      dup1\n      swap4\n      swap3\n      swap2\n      swap1\n      dup2\n      dup2\n      mstore\n      0x20\n      add\n      dup4\n      dup4\n        /* \"--CODEGEN--\":30:33   */\n      dup1\n        /* \"--CODEGEN--\":22:28   */\n      dup3\n        /* \"--CODEGEN--\":14:20   */\n      dup5\n        /* \"--CODEGEN--\":1:34   */\n      calldatacopy\n        /* \"--CODEGEN--\":99:100   */\n      0x00\n        /* \"--CODEGEN--\":81:97   */\n      swap3\n      add\n        /* \"--CODEGEN--\":74:101   */\n      swap2\n      swap1\n      swap2\n      mstore\n      pop\n        /* \"Users/leilei/Downloads/TradingCompV2RewardDistribution/contracts/BEP20TokenImplementation.sol\":12537:12849  function initialize(string memory name, string memory symbol, uint8 decimals, uint256 amount, bool mintable, address owner) public initializer {... */\n      swap3\n      swap6\n      pop\n      pop\n      pop\n      dup2\n      calldataload\n      0xff\n      and\n      swap3\n      pop\n      pop\n      0x20\n      dup2\n      add\n      calldataload\n      swap1\n      0x40\n      dup2\n      add\n      calldataload\n      iszero\n      iszero\n      swap1\n      0x60\n      add\n      calldataload\n      sub(shl(0xa0, 0x01), 0x01)\n      and\n      tag_81\n      jump\t// in\n        /* \"Users/leilei/Downloads/TradingCompV2RewardDistribution/contracts/BEP20TokenImplementation.sol\":13471:13703  function transferOwnership(address newOwner) public onlyOwner {... */\n    tag_20:\n      tag_51\n      0x04\n      dup1\n      calldatasize\n      sub\n        /* \"--CODEGEN--\":15:17   */\n      0x20\n        /* \"--CODEGEN--\":10:13   */\n      dup2\n        /* \"--CODEGEN--\":7:18   */\n      lt\n        /* \"--CODEGEN--\":4:6   */\n      iszero\n      tag_83\n      jumpi\n        /* \"--CODEGEN--\":31:32   */\n      0x00\n        /* \"--CODEGEN--\":28:29   */\n      dup1\n        /* \"--CODEGEN--\":21:33   */\n      revert\n        /* \"--CODEGEN--\":4:6   */\n    tag_83:\n      pop\n        /* \"Users/leilei/Downloads/TradingCompV2RewardDistribution/contracts/BEP20TokenImplementation.sol\":13471:13703  function transferOwnership(address newOwner) public onlyOwner {... */\n      calldataload\n      sub(shl(0xa0, 0x01), 0x01)\n      and\n      tag_84\n      jump\t// in\n        /* \"Users/leilei/Downloads/TradingCompV2RewardDistribution/contracts/BEP20TokenImplementation.sol\":14379:14471  function name() external override view returns (string memory) {... */\n    tag_25:\n        /* \"Users/leilei/Downloads/TradingCompV2RewardDistribution/contracts/BEP20TokenImplementation.sol\":14459:14464  _name */\n      0x04\n        /* \"Users/leilei/Downloads/TradingCompV2RewardDistribution/contracts/BEP20TokenImplementation.sol\":14452:14464  return _name */\n      dup1\n      sload\n      0x40\n      dup1\n      mload\n      0x20\n      0x1f\n      0x02\n      not(0x00)\n      0x0100\n      0x01\n      dup9\n      and\n      iszero\n      mul\n      add\n      swap1\n      swap6\n      and\n      swap5\n      swap1\n      swap5\n      div\n      swap4\n      dup5\n      add\n      dup2\n      swap1\n      div\n      dup2\n      mul\n      dup3\n      add\n      dup2\n      add\n      swap1\n      swap3\n      mstore\n      dup3\n      dup2\n      mstore\n        /* \"Users/leilei/Downloads/TradingCompV2RewardDistribution/contracts/BEP20TokenImplementation.sol\":14427:14440  string memory */\n      0x60\n      swap4\n        /* \"Users/leilei/Downloads/TradingCompV2RewardDistribution/contracts/BEP20TokenImplementation.sol\":14452:14464  return _name */\n      swap1\n      swap3\n        /* \"Users/leilei/Downloads/TradingCompV2RewardDistribution/contracts/BEP20TokenImplementation.sol\":14459:14464  _name */\n      swap1\n      swap2\n        /* \"Users/leilei/Downloads/TradingCompV2RewardDistribution/contracts/BEP20TokenImplementation.sol\":14452:14464  return _name */\n      dup4\n      add\n        /* \"Users/leilei/Downloads/TradingCompV2RewardDistribution/contracts/BEP20TokenImplementation.sol\":14459:14464  _name */\n      dup3\n        /* \"Users/leilei/Downloads/TradingCompV2RewardDistribution/contracts/BEP20TokenImplementation.sol\":14452:14464  return _name */\n      dup3\n      dup1\n      iszero\n      tag_86\n      jumpi\n      dup1\n      0x1f\n      lt\n      tag_87\n      jumpi\n      0x0100\n      dup1\n      dup4\n      sload\n      div\n      mul\n      dup4\n      mstore\n      swap2\n      0x20\n      add\n      swap2\n      jump(tag_86)\n    tag_87:\n      dup3\n      add\n      swap2\n      swap1\n      0x00\n      mstore\n      keccak256(0x00, 0x20)\n      swap1\n    tag_88:\n      dup2\n      sload\n      dup2\n      mstore\n      swap1\n      0x01\n      add\n      swap1\n      0x20\n      add\n      dup1\n      dup4\n      gt\n      tag_88\n      jumpi\n      dup3\n      swap1\n      sub\n      0x1f\n      and\n      dup3\n      add\n      swap2\n    tag_86:\n      pop\n      pop\n      pop\n      pop\n      pop\n      swap1\n      pop\n        /* \"Users/leilei/Downloads/TradingCompV2RewardDistribution/contracts/BEP20TokenImplementation.sol\":14379:14471  function name() external override view returns (string memory) {... */\n    tag_85:\n      swap1\n      jump\t// out\n        /* \"Users/leilei/Downloads/TradingCompV2RewardDistribution/contracts/BEP20TokenImplementation.sol\":15511:15671  function approve(address spender, uint256 amount) external override returns (bool) {... */\n    tag_32:\n        /* \"Users/leilei/Downloads/TradingCompV2RewardDistribution/contracts/BEP20TokenImplementation.sol\":15588:15592  bool */\n      0x00\n        /* \"Users/leilei/Downloads/TradingCompV2RewardDistribution/contracts/BEP20TokenImplementation.sol\":15604:15643  _approve(_msgSender(), spender, amount) */\n      tag_90\n        /* \"Users/leilei/Downloads/TradingCompV2RewardDistribution/contracts/BEP20TokenImplementation.sol\":15613:15625  _msgSender() */\n      tag_91\n        /* \"Users/leilei/Downloads/TradingCompV2RewardDistribution/contracts/BEP20TokenImplementation.sol\":15613:15623  _msgSender */\n      tag_92\n        /* \"Users/leilei/Downloads/TradingCompV2RewardDistribution/contracts/BEP20TokenImplementation.sol\":15613:15625  _msgSender() */\n      jump\t// in\n    tag_91:\n        /* \"Users/leilei/Downloads/TradingCompV2RewardDistribution/contracts/BEP20TokenImplementation.sol\":15627:15634  spender */\n      dup5\n        /* \"Users/leilei/Downloads/TradingCompV2RewardDistribution/contracts/BEP20TokenImplementation.sol\":15636:15642  amount */\n      dup5\n        /* \"Users/leilei/Downloads/TradingCompV2RewardDistribution/contracts/BEP20TokenImplementation.sol\":15604:15612  _approve */\n      tag_93\n        /* \"Users/leilei/Downloads/TradingCompV2RewardDistribution/contracts/BEP20TokenImplementation.sol\":15604:15643  _approve(_msgSender(), spender, amount) */\n      jump\t// in\n    tag_90:\n      pop\n        /* \"Users/leilei/Downloads/TradingCompV2RewardDistribution/contracts/BEP20TokenImplementation.sol\":15660:15664  true */\n      0x01\n        /* \"Users/leilei/Downloads/TradingCompV2RewardDistribution/contracts/BEP20TokenImplementation.sol\":15511:15671  function approve(address spender, uint256 amount) external override returns (bool) {... */\n      swap3\n      swap2\n      pop\n      pop\n      jump\t// out\n        /* \"Users/leilei/Downloads/TradingCompV2RewardDistribution/contracts/BEP20TokenImplementation.sol\":14530:14630  function totalSupply() external override view returns (uint256) {... */\n    tag_34:\n        /* \"Users/leilei/Downloads/TradingCompV2RewardDistribution/contracts/BEP20TokenImplementation.sol\":14611:14623  _totalSupply */\n      sload(0x03)\n        /* \"Users/leilei/Downloads/TradingCompV2RewardDistribution/contracts/BEP20TokenImplementation.sol\":14530:14630  function totalSupply() external override view returns (uint256) {... */\n      swap1\n      jump\t// out\n        /* \"Users/leilei/Downloads/TradingCompV2RewardDistribution/contracts/BEP20TokenImplementation.sol\":16128:16439  function transferFrom(address sender, address recipient, uint256 amount) external override returns (bool) {... */\n    tag_37:\n        /* \"Users/leilei/Downloads/TradingCompV2RewardDistribution/contracts/BEP20TokenImplementation.sol\":16228:16232  bool */\n      0x00\n        /* \"Users/leilei/Downloads/TradingCompV2RewardDistribution/contracts/BEP20TokenImplementation.sol\":16244:16280  _transfer(sender, recipient, amount) */\n      tag_96\n        /* \"Users/leilei/Downloads/TradingCompV2RewardDistribution/contracts/BEP20TokenImplementation.sol\":16254:16260  sender */\n      dup5\n        /* \"Users/leilei/Downloads/TradingCompV2RewardDistribution/contracts/BEP20TokenImplementation.sol\":16262:16271  recipient */\n      dup5\n        /* \"Users/leilei/Downloads/TradingCompV2RewardDistribution/contracts/BEP20TokenImplementation.sol\":16273:16279  amount */\n      dup5\n        /* \"Users/leilei/Downloads/TradingCompV2RewardDistribution/contracts/BEP20TokenImplementation.sol\":16244:16253  _transfer */\n      tag_97\n        /* \"Users/leilei/Downloads/TradingCompV2RewardDistribution/contracts/BEP20TokenImplementation.sol\":16244:16280  _transfer(sender, recipient, amount) */\n      jump\t// in\n    tag_96:\n        /* \"Users/leilei/Downloads/TradingCompV2RewardDistribution/contracts/BEP20TokenImplementation.sol\":16290:16411  _approve(sender, _msgSender(), _allowances[sender][_msgSender()].sub(amount, \"BEP20: transfer amount exceeds allowance\")) */\n      tag_98\n        /* \"Users/leilei/Downloads/TradingCompV2RewardDistribution/contracts/BEP20TokenImplementation.sol\":16299:16305  sender */\n      dup5\n        /* \"Users/leilei/Downloads/TradingCompV2RewardDistribution/contracts/BEP20TokenImplementation.sol\":16307:16319  _msgSender() */\n      tag_99\n        /* \"Users/leilei/Downloads/TradingCompV2RewardDistribution/contracts/BEP20TokenImplementation.sol\":16307:16317  _msgSender */\n      tag_92\n        /* \"Users/leilei/Downloads/TradingCompV2RewardDistribution/contracts/BEP20TokenImplementation.sol\":16307:16319  _msgSender() */\n      jump\t// in\n    tag_99:\n        /* \"Users/leilei/Downloads/TradingCompV2RewardDistribution/contracts/BEP20TokenImplementation.sol\":16321:16410  _allowances[sender][_msgSender()].sub(amount, \"BEP20: transfer amount exceeds allowance\") */\n      tag_100\n        /* \"Users/leilei/Downloads/TradingCompV2RewardDistribution/contracts/BEP20TokenImplementation.sol\":16359:16365  amount */\n      dup6\n        /* \"Users/leilei/Downloads/TradingCompV2RewardDistribution/contracts/BEP20TokenImplementation.sol\":16321:16410  _allowances[sender][_msgSender()].sub(amount, \"BEP20: transfer amount exceeds allowance\") */\n      mload(0x40)\n      dup1\n      0x60\n      add\n      0x40\n      mstore\n      dup1\n      0x28\n      dup2\n      mstore\n      0x20\n      add\n      data_4f3506f4ba71c79c3cbd442a3afeb30e9b27af2d84e116a4385b34e267d2287e\n      0x28\n      swap2\n      codecopy\n      sub(shl(0xa0, 0x01), 0x01)\n        /* \"Users/leilei/Downloads/TradingCompV2RewardDistribution/contracts/BEP20TokenImplementation.sol\":16321:16340  _allowances[sender] */\n      dup11\n      and\n      0x00\n      swap1\n      dup2\n      mstore\n        /* \"Users/leilei/Downloads/TradingCompV2RewardDistribution/contracts/BEP20TokenImplementation.sol\":16321:16332  _allowances */\n      0x02\n        /* \"Users/leilei/Downloads/TradingCompV2RewardDistribution/contracts/BEP20TokenImplementation.sol\":16321:16340  _allowances[sender] */\n      0x20\n      mstore\n      0x40\n      dup2\n      keccak256\n      swap1\n        /* \"Users/leilei/Downloads/TradingCompV2RewardDistribution/contracts/BEP20TokenImplementation.sol\":16341:16353  _msgSender() */\n      tag_101\n        /* \"Users/leilei/Downloads/TradingCompV2RewardDistribution/contracts/BEP20TokenImplementation.sol\":16341:16351  _msgSender */\n      tag_92\n        /* \"Users/leilei/Downloads/TradingCompV2RewardDistribution/contracts/BEP20TokenImplementation.sol\":16341:16353  _msgSender() */\n      jump\t// in\n    tag_101:\n      sub(shl(0xa0, 0x01), 0x01)\n        /* \"Users/leilei/Downloads/TradingCompV2RewardDistribution/contracts/BEP20TokenImplementation.sol\":16321:16354  _allowances[sender][_msgSender()] */\n      and\n      dup2\n      mstore\n      0x20\n      dup2\n      add\n      swap2\n      swap1\n      swap2\n      mstore\n      0x40\n      add\n      0x00\n      keccak256\n      sload\n      swap2\n        /* \"Users/leilei/Downloads/TradingCompV2RewardDistribution/contracts/BEP20TokenImplementation.sol\":16321:16410  _allowances[sender][_msgSender()].sub(amount, \"BEP20: transfer amount exceeds allowance\") */\n      swap1\n      0xffffffff\n        /* \"Users/leilei/Downloads/TradingCompV2RewardDistribution/contracts/BEP20TokenImplementation.sol\":16321:16358  _allowances[sender][_msgSender()].sub */\n      tag_102\n        /* \"Users/leilei/Downloads/TradingCompV2RewardDistribution/contracts/BEP20TokenImplementation.sol\":16321:16410  _allowances[sender][_msgSender()].sub(amount, \"BEP20: transfer amount exceeds allowance\") */\n      and\n      jump\t// in\n    tag_100:\n        /* \"Users/leilei/Downloads/TradingCompV2RewardDistribution/contracts/BEP20TokenImplementation.sol\":16290:16298  _approve */\n      tag_93\n        /* \"Users/leilei/Downloads/TradingCompV2RewardDistribution/contracts/BEP20TokenImplementation.sol\":16290:16411  _approve(sender, _msgSender(), _allowances[sender][_msgSender()].sub(amount, \"BEP20: transfer amount exceeds allowance\")) */\n      jump\t// in\n    tag_98:\n      pop\n        /* \"Users/leilei/Downloads/TradingCompV2RewardDistribution/contracts/BEP20TokenImplementation.sol\":16428:16432  true */\n      0x01\n        /* \"Users/leilei/Downloads/TradingCompV2RewardDistribution/contracts/BEP20TokenImplementation.sol\":16128:16439  function transferFrom(address sender, address recipient, uint256 amount) external override returns (bool) {... */\n      swap4\n      swap3\n      pop\n      pop\n      pop\n      jump\t// out\n        /* \"Users/leilei/Downloads/TradingCompV2RewardDistribution/contracts/BEP20TokenImplementation.sol\":14075:14167  function decimals() external override view returns (uint8) {... */\n    tag_39:\n        /* \"Users/leilei/Downloads/TradingCompV2RewardDistribution/contracts/BEP20TokenImplementation.sol\":14151:14160  _decimals */\n      and(0xff, sload(0x06))\n        /* \"Users/leilei/Downloads/TradingCompV2RewardDistribution/contracts/BEP20TokenImplementation.sol\":14075:14167  function decimals() external override view returns (uint8) {... */\n      swap1\n      jump\t// out\n        /* \"Users/leilei/Downloads/TradingCompV2RewardDistribution/contracts/BEP20TokenImplementation.sol\":16833:17040  function increaseAllowance(address spender, uint256 addedValue) public returns (bool) {... */\n    tag_42:\n        /* \"Users/leilei/Downloads/TradingCompV2RewardDistribution/contracts/BEP20TokenImplementation.sol\":16913:16917  bool */\n      0x00\n        /* \"Users/leilei/Downloads/TradingCompV2RewardDistribution/contracts/BEP20TokenImplementation.sol\":16929:17012  _approve(_msgSender(), spender, _allowances[_msgSender()][spender].add(addedValue)) */\n      tag_90\n        /* \"Users/leilei/Downloads/TradingCompV2RewardDistribution/contracts/BEP20TokenImplementation.sol\":16938:16950  _msgSender() */\n      tag_106\n        /* \"Users/leilei/Downloads/TradingCompV2RewardDistribution/contracts/BEP20TokenImplementation.sol\":16938:16948  _msgSender */\n      tag_92\n        /* \"Users/leilei/Downloads/TradingCompV2RewardDistribution/contracts/BEP20TokenImplementation.sol\":16938:16950  _msgSender() */\n      jump\t// in\n    tag_106:\n        /* \"Users/leilei/Downloads/TradingCompV2RewardDistribution/contracts/BEP20TokenImplementation.sol\":16952:16959  spender */\n      dup5\n        /* \"Users/leilei/Downloads/TradingCompV2RewardDistribution/contracts/BEP20TokenImplementation.sol\":16961:17011  _allowances[_msgSender()][spender].add(addedValue) */\n      tag_100\n        /* \"Users/leilei/Downloads/TradingCompV2RewardDistribution/contracts/BEP20TokenImplementation.sol\":17000:17010  addedValue */\n      dup6\n        /* \"Users/leilei/Downloads/TradingCompV2RewardDistribution/contracts/BEP20TokenImplementation.sol\":16961:16972  _allowances */\n      0x02\n        /* \"Users/leilei/Downloads/TradingCompV2RewardDistribution/contracts/BEP20TokenImplementation.sol\":16961:16986  _allowances[_msgSender()] */\n      0x00\n        /* \"Users/leilei/Downloads/TradingCompV2RewardDistribution/contracts/BEP20TokenImplementation.sol\":16973:16985  _msgSender() */\n      tag_108\n        /* \"Users/leilei/Downloads/TradingCompV2RewardDistribution/contracts/BEP20TokenImplementation.sol\":16973:16983  _msgSender */\n      tag_92\n        /* \"Users/leilei/Downloads/TradingCompV2RewardDistribution/contracts/BEP20TokenImplementation.sol\":16973:16985  _msgSender() */\n      jump\t// in\n    tag_108:\n      sub(shl(0xa0, 0x01), 0x01)\n        /* \"Users/leilei/Downloads/TradingCompV2RewardDistribution/contracts/BEP20TokenImplementation.sol\":16961:16986  _allowances[_msgSender()] */\n      swap1\n      dup2\n      and\n      dup3\n      mstore\n      0x20\n      dup1\n      dup4\n      add\n      swap4\n      swap1\n      swap4\n      mstore\n      0x40\n      swap2\n      dup3\n      add\n      0x00\n      swap1\n      dup2\n      keccak256\n        /* \"Users/leilei/Downloads/TradingCompV2RewardDistribution/contracts/BEP20TokenImplementation.sol\":16961:16995  _allowances[_msgSender()][spender] */\n      swap2\n      dup13\n      and\n      dup2\n      mstore\n      swap3\n      mstore\n      swap1\n      keccak256\n      sload\n      swap1\n        /* \"Users/leilei/Downloads/TradingCompV2RewardDistribution/contracts/BEP20TokenImplementation.sol\":16961:17011  _allowances[_msgSender()][spender].add(addedValue) */\n      0xffffffff\n        /* \"Users/leilei/Downloads/TradingCompV2RewardDistribution/contracts/BEP20TokenImplementation.sol\":16961:16999  _allowances[_msgSender()][spender].add */\n      tag_109\n        /* \"Users/leilei/Downloads/TradingCompV2RewardDistribution/contracts/BEP20TokenImplementation.sol\":16961:17011  _allowances[_msgSender()][spender].add(addedValue) */\n      and\n      jump\t// in\n        /* \"Users/leilei/Downloads/TradingCompV2RewardDistribution/contracts/BEP20TokenImplementation.sol\":18295:18412  function burn(uint256 amount) public returns (bool) {... */\n    tag_45:\n        /* \"Users/leilei/Downloads/TradingCompV2RewardDistribution/contracts/BEP20TokenImplementation.sol\":18341:18345  bool */\n      0x00\n        /* \"Users/leilei/Downloads/TradingCompV2RewardDistribution/contracts/BEP20TokenImplementation.sol\":18357:18384  _burn(_msgSender(), amount) */\n      tag_111\n        /* \"Users/leilei/Downloads/TradingCompV2RewardDistribution/contracts/BEP20TokenImplementation.sol\":18363:18375  _msgSender() */\n      tag_112\n        /* \"Users/leilei/Downloads/TradingCompV2RewardDistribution/contracts/BEP20TokenImplementation.sol\":18363:18373  _msgSender */\n      tag_92\n        /* \"Users/leilei/Downloads/TradingCompV2RewardDistribution/contracts/BEP20TokenImplementation.sol\":18363:18375  _msgSender() */\n      jump\t// in\n    tag_112:\n        /* \"Users/leilei/Downloads/TradingCompV2RewardDistribution/contracts/BEP20TokenImplementation.sol\":18377:18383  amount */\n      dup4\n        /* \"Users/leilei/Downloads/TradingCompV2RewardDistribution/contracts/BEP20TokenImplementation.sol\":18357:18362  _burn */\n      tag_113\n        /* \"Users/leilei/Downloads/TradingCompV2RewardDistribution/contracts/BEP20TokenImplementation.sol\":18357:18384  _burn(_msgSender(), amount) */\n      jump\t// in\n    tag_111:\n      pop\n        /* \"Users/leilei/Downloads/TradingCompV2RewardDistribution/contracts/BEP20TokenImplementation.sol\":18401:18405  true */\n      0x01\n        /* \"Users/leilei/Downloads/TradingCompV2RewardDistribution/contracts/BEP20TokenImplementation.sol\":18295:18412  function burn(uint256 amount) public returns (bool) {... */\n      swap2\n      swap1\n      pop\n      jump\t// out\n        /* \"Users/leilei/Downloads/TradingCompV2RewardDistribution/contracts/BEP20TokenImplementation.sol\":13777:13859  function mintable() external view returns (bool) {... */\n    tag_47:\n        /* \"Users/leilei/Downloads/TradingCompV2RewardDistribution/contracts/BEP20TokenImplementation.sol\":13843:13852  _mintable */\n      sload(0x06)\n      shl(0xa8, 0x01)\n      swap1\n      div\n      0xff\n      and\n      swap1\n        /* \"Users/leilei/Downloads/TradingCompV2RewardDistribution/contracts/BEP20TokenImplementation.sol\":13777:13859  function mintable() external view returns (bool) {... */\n      jump\t// out\n        /* \"Users/leilei/Downloads/TradingCompV2RewardDistribution/contracts/BEP20TokenImplementation.sol\":14687:14806  function balanceOf(address account) external override view returns (uint256) {... */\n    tag_50:\n      sub(shl(0xa0, 0x01), 0x01)\n        /* \"Users/leilei/Downloads/TradingCompV2RewardDistribution/contracts/BEP20TokenImplementation.sol\":14781:14799  _balances[account] */\n      and\n        /* \"Users/leilei/Downloads/TradingCompV2RewardDistribution/contracts/BEP20TokenImplementation.sol\":14755:14762  uint256 */\n      0x00\n        /* \"Users/leilei/Downloads/TradingCompV2RewardDistribution/contracts/BEP20TokenImplementation.sol\":14781:14799  _balances[account] */\n      swap1\n      dup2\n      mstore\n        /* \"Users/leilei/Downloads/TradingCompV2RewardDistribution/contracts/BEP20TokenImplementation.sol\":14781:14790  _balances */\n      0x01\n        /* \"Users/leilei/Downloads/TradingCompV2RewardDistribution/contracts/BEP20TokenImplementation.sol\":14781:14799  _balances[account] */\n      0x20\n      mstore\n      0x40\n      swap1\n      keccak256\n      sload\n      swap1\n        /* \"Users/leilei/Downloads/TradingCompV2RewardDistribution/contracts/BEP20TokenImplementation.sol\":14687:14806  function balanceOf(address account) external override view returns (uint256) {... */\n      jump\t// out\n        /* \"Users/leilei/Downloads/TradingCompV2RewardDistribution/contracts/BEP20TokenImplementation.sol\":13185:13322  function renounceOwnership() public onlyOwner {... */\n    tag_52:\n        /* \"Users/leilei/Downloads/TradingCompV2RewardDistribution/contracts/BEP20TokenImplementation.sol\":12401:12413  _msgSender() */\n      tag_117\n        /* \"Users/leilei/Downloads/TradingCompV2RewardDistribution/contracts/BEP20TokenImplementation.sol\":12401:12411  _msgSender */\n      tag_92\n        /* \"Users/leilei/Downloads/TradingCompV2RewardDistribution/contracts/BEP20TokenImplementation.sol\":12401:12413  _msgSender() */\n      jump\t// in\n    tag_117:\n        /* \"Users/leilei/Downloads/TradingCompV2RewardDistribution/contracts/BEP20TokenImplementation.sol\":12391:12397  _owner */\n      sload(0x06)\n      0x0100\n      swap1\n      div\n      sub(shl(0xa0, 0x01), 0x01)\n      swap1\n      dup2\n      and\n        /* \"Users/leilei/Downloads/TradingCompV2RewardDistribution/contracts/BEP20TokenImplementation.sol\":12391:12413  _owner == _msgSender() */\n      swap2\n      and\n      eq\n        /* \"Users/leilei/Downloads/TradingCompV2RewardDistribution/contracts/BEP20TokenImplementation.sol\":12383:12450  require(_owner == _msgSender(), \"Ownable: caller is not the owner\") */\n      tag_118\n      jumpi\n      0x40\n      dup1\n      mload\n      shl(0xe5, 0x461bcd)\n      dup2\n      mstore\n      0x20\n      0x04\n      dup3\n      add\n      dup2\n      swap1\n      mstore\n      0x24\n      dup3\n      add\n      mstore\n      0x4f776e61626c653a2063616c6c6572206973206e6f7420746865206f776e6572\n      0x44\n      dup3\n      add\n      mstore\n      swap1\n      mload\n      swap1\n      dup2\n      swap1\n      sub\n      0x64\n      add\n      swap1\n      revert\n    tag_118:\n        /* \"Users/leilei/Downloads/TradingCompV2RewardDistribution/contracts/BEP20TokenImplementation.sol\":13267:13273  _owner */\n      sload(0x06)\n        /* \"Users/leilei/Downloads/TradingCompV2RewardDistribution/contracts/BEP20TokenImplementation.sol\":13246:13286  OwnershipTransferred(_owner, address(0)) */\n      mload(0x40)\n        /* \"Users/leilei/Downloads/TradingCompV2RewardDistribution/contracts/BEP20TokenImplementation.sol\":13283:13284  0 */\n      0x00\n      swap2\n        /* \"Users/leilei/Downloads/TradingCompV2RewardDistribution/contracts/BEP20TokenImplementation.sol\":13267:13273  _owner */\n      0x0100\n      swap1\n      div\n      sub(shl(0xa0, 0x01), 0x01)\n      and\n      swap1\n        /* \"Users/leilei/Downloads/TradingCompV2RewardDistribution/contracts/BEP20TokenImplementation.sol\":13246:13286  OwnershipTransferred(_owner, address(0)) */\n      0x8be0079c531659141344cd1fd0a4f28419497f9722a3daafe3b4186f6b6457e0\n      swap1\n        /* \"Users/leilei/Downloads/TradingCompV2RewardDistribution/contracts/BEP20TokenImplementation.sol\":13283:13284  0 */\n      dup4\n      swap1\n        /* \"Users/leilei/Downloads/TradingCompV2RewardDistribution/contracts/BEP20TokenImplementation.sol\":13246:13286  OwnershipTransferred(_owner, address(0)) */\n      log3\n        /* \"Users/leilei/Downloads/TradingCompV2RewardDistribution/contracts/BEP20TokenImplementation.sol\":13296:13302  _owner */\n      0x06\n        /* \"Users/leilei/Downloads/TradingCompV2RewardDistribution/contracts/BEP20TokenImplementation.sol\":13296:13315  _owner = address(0) */\n      dup1\n      sload\n      not(sub(shl(0xa8, 0x01), 0x0100))\n      and\n      swap1\n      sstore\n        /* \"Users/leilei/Downloads/TradingCompV2RewardDistribution/contracts/BEP20TokenImplementation.sol\":13185:13322  function renounceOwnership() public onlyOwner {... */\n      jump\t// out\n        /* \"Users/leilei/Downloads/TradingCompV2RewardDistribution/contracts/BEP20TokenImplementation.sol\":13922:14013  function getOwner() external override view returns (address) {... */\n    tag_54:\n        /* \"Users/leilei/Downloads/TradingCompV2RewardDistribution/contracts/BEP20TokenImplementation.sol\":14000:14006  _owner */\n      sload(0x06)\n      0x0100\n      swap1\n      div\n      sub(shl(0xa0, 0x01), 0x01)\n      and\n      swap1\n        /* \"Users/leilei/Downloads/TradingCompV2RewardDistribution/contracts/BEP20TokenImplementation.sol\":13922:14013  function getOwner() external override view returns (address) {... */\n      jump\t// out\n        /* \"Users/leilei/Downloads/TradingCompV2RewardDistribution/contracts/BEP20TokenImplementation.sol\":14227:14323  function symbol() external override view returns (string memory) {... */\n    tag_56:\n        /* \"Users/leilei/Downloads/TradingCompV2RewardDistribution/contracts/BEP20TokenImplementation.sol\":14309:14316  _symbol */\n      0x05\n        /* \"Users/leilei/Downloads/TradingCompV2RewardDistribution/contracts/BEP20TokenImplementation.sol\":14302:14316  return _symbol */\n      dup1\n      sload\n      0x40\n      dup1\n      mload\n      0x20\n      0x1f\n      0x02\n      not(0x00)\n      0x0100\n      0x01\n      dup9\n      and\n      iszero\n      mul\n      add\n      swap1\n      swap6\n      and\n      swap5\n      swap1\n      swap5\n      div\n      swap4\n      dup5\n      add\n      dup2\n      swap1\n      div\n      dup2\n      mul\n      dup3\n      add\n      dup2\n      add\n      swap1\n      swap3\n      mstore\n      dup3\n      dup2\n      mstore\n        /* \"Users/leilei/Downloads/TradingCompV2RewardDistribution/contracts/BEP20TokenImplementation.sol\":14277:14290  string memory */\n      0x60\n      swap4\n        /* \"Users/leilei/Downloads/TradingCompV2RewardDistribution/contracts/BEP20TokenImplementation.sol\":14302:14316  return _symbol */\n      swap1\n      swap3\n        /* \"Users/leilei/Downloads/TradingCompV2RewardDistribution/contracts/BEP20TokenImplementation.sol\":14309:14316  _symbol */\n      swap1\n      swap2\n        /* \"Users/leilei/Downloads/TradingCompV2RewardDistribution/contracts/BEP20TokenImplementation.sol\":14302:14316  return _symbol */\n      dup4\n      add\n        /* \"Users/leilei/Downloads/TradingCompV2RewardDistribution/contracts/BEP20TokenImplementation.sol\":14309:14316  _symbol */\n      dup3\n        /* \"Users/leilei/Downloads/TradingCompV2RewardDistribution/contracts/BEP20TokenImplementation.sol\":14302:14316  return _symbol */\n      dup3\n      dup1\n      iszero\n      tag_86\n      jumpi\n      dup1\n      0x1f\n      lt\n      tag_87\n      jumpi\n      0x0100\n      dup1\n      dup4\n      sload\n      div\n      mul\n      dup4\n      mstore\n      swap2\n      0x20\n      add\n      swap2\n      jump(tag_86)\n        /* \"Users/leilei/Downloads/TradingCompV2RewardDistribution/contracts/BEP20TokenImplementation.sol\":18026:18211  function mint(uint256 amount) public onlyOwner returns (bool) {... */\n    tag_63:\n        /* \"Users/leilei/Downloads/TradingCompV2RewardDistribution/contracts/BEP20TokenImplementation.sol\":18082:18086  bool */\n      0x00\n        /* \"Users/leilei/Downloads/TradingCompV2RewardDistribution/contracts/BEP20TokenImplementation.sol\":12401:12413  _msgSender() */\n      tag_126\n        /* \"Users/leilei/Downloads/TradingCompV2RewardDistribution/contracts/BEP20TokenImplementation.sol\":12401:12411  _msgSender */\n      tag_92\n        /* \"Users/leilei/Downloads/TradingCompV2RewardDistribution/contracts/BEP20TokenImplementation.sol\":12401:12413  _msgSender() */\n      jump\t// in\n    tag_126:\n        /* \"Users/leilei/Downloads/TradingCompV2RewardDistribution/contracts/BEP20TokenImplementation.sol\":12391:12397  _owner */\n      sload(0x06)\n      0x0100\n      swap1\n      div\n      sub(shl(0xa0, 0x01), 0x01)\n      swap1\n      dup2\n      and\n        /* \"Users/leilei/Downloads/TradingCompV2RewardDistribution/contracts/BEP20TokenImplementation.sol\":12391:12413  _owner == _msgSender() */\n      swap2\n      and\n      eq\n        /* \"Users/leilei/Downloads/TradingCompV2RewardDistribution/contracts/BEP20TokenImplementation.sol\":12383:12450  require(_owner == _msgSender(), \"Ownable: caller is not the owner\") */\n      tag_127\n      jumpi\n      0x40\n      dup1\n      mload\n      shl(0xe5, 0x461bcd)\n      dup2\n      mstore\n      0x20\n      0x04\n      dup3\n      add\n      dup2\n      swap1\n      mstore\n      0x24\n      dup3\n      add\n      mstore\n      0x4f776e61626c653a2063616c6c6572206973206e6f7420746865206f776e6572\n      0x44\n      dup3\n      add\n      mstore\n      swap1\n      mload\n      swap1\n      dup2\n      swap1\n      sub\n      0x64\n      add\n      swap1\n      revert\n    tag_127:\n        /* \"Users/leilei/Downloads/TradingCompV2RewardDistribution/contracts/BEP20TokenImplementation.sol\":18106:18115  _mintable */\n      sload(0x06)\n      shl(0xa8, 0x01)\n      swap1\n      div\n      0xff\n      and\n        /* \"Users/leilei/Downloads/TradingCompV2RewardDistribution/contracts/BEP20TokenImplementation.sol\":18098:18146  require(_mintable, \"this token is not mintable\") */\n      tag_129\n      jumpi\n      0x40\n      dup1\n      mload\n      shl(0xe5, 0x461bcd)\n      dup2\n      mstore\n      0x20\n      0x04\n      dup3\n      add\n      mstore\n      0x1a\n      0x24\n      dup3\n      add\n      mstore\n      0x7468697320746f6b656e206973206e6f74206d696e7461626c65000000000000\n      0x44\n      dup3\n      add\n      mstore\n      swap1\n      mload\n      swap1\n      dup2\n      swap1\n      sub\n      0x64\n      add\n      swap1\n      revert\n    tag_129:\n        /* \"Users/leilei/Downloads/TradingCompV2RewardDistribution/contracts/BEP20TokenImplementation.sol\":18156:18183  _mint(_msgSender(), amount) */\n      tag_111\n        /* \"Users/leilei/Downloads/TradingCompV2RewardDistribution/contracts/BEP20TokenImplementation.sol\":18162:18174  _msgSender() */\n      tag_131\n        /* \"Users/leilei/Downloads/TradingCompV2RewardDistribution/contracts/BEP20TokenImplementation.sol\":18162:18172  _msgSender */\n      tag_92\n        /* \"Users/leilei/Downloads/TradingCompV2RewardDistribution/contracts/BEP20TokenImplementation.sol\":18162:18174  _msgSender() */\n      jump\t// in\n    tag_131:\n        /* \"Users/leilei/Downloads/TradingCompV2RewardDistribution/contracts/BEP20TokenImplementation.sol\":18176:18182  amount */\n      dup4\n        /* \"Users/leilei/Downloads/TradingCompV2RewardDistribution/contracts/BEP20TokenImplementation.sol\":18156:18161  _mint */\n      tag_132\n        /* \"Users/leilei/Downloads/TradingCompV2RewardDistribution/contracts/BEP20TokenImplementation.sol\":18156:18183  _mint(_msgSender(), amount) */\n      jump\t// in\n        /* \"Users/leilei/Downloads/TradingCompV2RewardDistribution/contracts/BEP20TokenImplementation.sol\":17526:17784  function decreaseAllowance(address spender, uint256 subtractedValue) public returns (bool) {... */\n    tag_66:\n        /* \"Users/leilei/Downloads/TradingCompV2RewardDistribution/contracts/BEP20TokenImplementation.sol\":17611:17615  bool */\n      0x00\n        /* \"Users/leilei/Downloads/TradingCompV2RewardDistribution/contracts/BEP20TokenImplementation.sol\":17627:17756  _approve(_msgSender(), spender, _allowances[_msgSender()][spender].sub(subtractedValue, \"BEP20: decreased allowance below zero\")) */\n      tag_90\n        /* \"Users/leilei/Downloads/TradingCompV2RewardDistribution/contracts/BEP20TokenImplementation.sol\":17636:17648  _msgSender() */\n      tag_135\n        /* \"Users/leilei/Downloads/TradingCompV2RewardDistribution/contracts/BEP20TokenImplementation.sol\":17636:17646  _msgSender */\n      tag_92\n        /* \"Users/leilei/Downloads/TradingCompV2RewardDistribution/contracts/BEP20TokenImplementation.sol\":17636:17648  _msgSender() */\n      jump\t// in\n    tag_135:\n        /* \"Users/leilei/Downloads/TradingCompV2RewardDistribution/contracts/BEP20TokenImplementation.sol\":17650:17657  spender */\n      dup5\n        /* \"Users/leilei/Downloads/TradingCompV2RewardDistribution/contracts/BEP20TokenImplementation.sol\":17659:17755  _allowances[_msgSender()][spender].sub(subtractedValue, \"BEP20: decreased allowance below zero\") */\n      tag_100\n        /* \"Users/leilei/Downloads/TradingCompV2RewardDistribution/contracts/BEP20TokenImplementation.sol\":17698:17713  subtractedValue */\n      dup6\n        /* \"Users/leilei/Downloads/TradingCompV2RewardDistribution/contracts/BEP20TokenImplementation.sol\":17659:17755  _allowances[_msgSender()][spender].sub(subtractedValue, \"BEP20: decreased allowance below zero\") */\n      mload(0x40)\n      dup1\n      0x60\n      add\n      0x40\n      mstore\n      dup1\n      0x25\n      dup2\n      mstore\n      0x20\n      add\n      data_b7060b3538dcd3ddc8a941c91636a8115a1aa46914747fd9809d543bbb46cd22\n      0x25\n      swap2\n      codecopy\n        /* \"Users/leilei/Downloads/TradingCompV2RewardDistribution/contracts/BEP20TokenImplementation.sol\":17659:17670  _allowances */\n      0x02\n        /* \"Users/leilei/Downloads/TradingCompV2RewardDistribution/contracts/BEP20TokenImplementation.sol\":17659:17684  _allowances[_msgSender()] */\n      0x00\n        /* \"Users/leilei/Downloads/TradingCompV2RewardDistribution/contracts/BEP20TokenImplementation.sol\":17671:17683  _msgSender() */\n      tag_137\n        /* \"Users/leilei/Downloads/TradingCompV2RewardDistribution/contracts/BEP20TokenImplementation.sol\":17671:17681  _msgSender */\n      tag_92\n        /* \"Users/leilei/Downloads/TradingCompV2RewardDistribution/contracts/BEP20TokenImplementation.sol\":17671:17683  _msgSender() */\n      jump\t// in\n    tag_137:\n      sub(shl(0xa0, 0x01), 0x01)\n        /* \"Users/leilei/Downloads/TradingCompV2RewardDistribution/contracts/BEP20TokenImplementation.sol\":17659:17684  _allowances[_msgSender()] */\n      swap1\n      dup2\n      and\n      dup3\n      mstore\n      0x20\n      dup1\n      dup4\n      add\n      swap4\n      swap1\n      swap4\n      mstore\n      0x40\n      swap2\n      dup3\n      add\n      0x00\n      swap1\n      dup2\n      keccak256\n        /* \"Users/leilei/Downloads/TradingCompV2RewardDistribution/contracts/BEP20TokenImplementation.sol\":17659:17693  _allowances[_msgSender()][spender] */\n      swap2\n      dup14\n      and\n      dup2\n      mstore\n      swap3\n      mstore\n      swap1\n      keccak256\n      sload\n      swap2\n        /* \"Users/leilei/Downloads/TradingCompV2RewardDistribution/contracts/BEP20TokenImplementation.sol\":17659:17755  _allowances[_msgSender()][spender].sub(subtractedValue, \"BEP20: decreased allowance below zero\") */\n      swap1\n      0xffffffff\n        /* \"Users/leilei/Downloads/TradingCompV2RewardDistribution/contracts/BEP20TokenImplementation.sol\":17659:17697  _allowances[_msgSender()][spender].sub */\n      tag_102\n        /* \"Users/leilei/Downloads/TradingCompV2RewardDistribution/contracts/BEP20TokenImplementation.sol\":17659:17755  _allowances[_msgSender()][spender].sub(subtractedValue, \"BEP20: decreased allowance below zero\") */\n      and\n      jump\t// in\n        /* \"Users/leilei/Downloads/TradingCompV2RewardDistribution/contracts/BEP20TokenImplementation.sol\":15008:15174  function transfer(address recipient, uint256 amount) external override returns (bool) {... */\n    tag_69:\n        /* \"Users/leilei/Downloads/TradingCompV2RewardDistribution/contracts/BEP20TokenImplementation.sol\":15088:15092  bool */\n      0x00\n        /* \"Users/leilei/Downloads/TradingCompV2RewardDistribution/contracts/BEP20TokenImplementation.sol\":15104:15146  _transfer(_msgSender(), recipient, amount) */\n      tag_90\n        /* \"Users/leilei/Downloads/TradingCompV2RewardDistribution/contracts/BEP20TokenImplementation.sol\":15114:15126  _msgSender() */\n      tag_140\n        /* \"Users/leilei/Downloads/TradingCompV2RewardDistribution/contracts/BEP20TokenImplementation.sol\":15114:15124  _msgSender */\n      tag_92\n        /* \"Users/leilei/Downloads/TradingCompV2RewardDistribution/contracts/BEP20TokenImplementation.sol\":15114:15126  _msgSender() */\n      jump\t// in\n    tag_140:\n        /* \"Users/leilei/Downloads/TradingCompV2RewardDistribution/contracts/BEP20TokenImplementation.sol\":15128:15137  recipient */\n      dup5\n        /* \"Users/leilei/Downloads/TradingCompV2RewardDistribution/contracts/BEP20TokenImplementation.sol\":15139:15145  amount */\n      dup5\n        /* \"Users/leilei/Downloads/TradingCompV2RewardDistribution/contracts/BEP20TokenImplementation.sol\":15104:15113  _transfer */\n      tag_97\n        /* \"Users/leilei/Downloads/TradingCompV2RewardDistribution/contracts/BEP20TokenImplementation.sol\":15104:15146  _transfer(_msgSender(), recipient, amount) */\n      jump\t// in\n        /* \"Users/leilei/Downloads/TradingCompV2RewardDistribution/contracts/BEP20TokenImplementation.sol\":15231:15374  function allowance(address owner, address spender) external override view returns (uint256) {... */\n    tag_72:\n      sub(shl(0xa0, 0x01), 0x01)\n        /* \"Users/leilei/Downloads/TradingCompV2RewardDistribution/contracts/BEP20TokenImplementation.sol\":15340:15358  _allowances[owner] */\n      swap2\n      dup3\n      and\n        /* \"Users/leilei/Downloads/TradingCompV2RewardDistribution/contracts/BEP20TokenImplementation.sol\":15314:15321  uint256 */\n      0x00\n        /* \"Users/leilei/Downloads/TradingCompV2RewardDistribution/contracts/BEP20TokenImplementation.sol\":15340:15358  _allowances[owner] */\n      swap1\n      dup2\n      mstore\n        /* \"Users/leilei/Downloads/TradingCompV2RewardDistribution/contracts/BEP20TokenImplementation.sol\":15340:15351  _allowances */\n      0x02\n        /* \"Users/leilei/Downloads/TradingCompV2RewardDistribution/contracts/BEP20TokenImplementation.sol\":15340:15358  _allowances[owner] */\n      0x20\n      swap1\n      dup2\n      mstore\n      0x40\n      dup1\n      dup4\n      keccak256\n        /* \"Users/leilei/Downloads/TradingCompV2RewardDistribution/contracts/BEP20TokenImplementation.sol\":15340:15367  _allowances[owner][spender] */\n      swap4\n      swap1\n      swap5\n      and\n      dup3\n      mstore\n      swap2\n      swap1\n      swap2\n      mstore\n      keccak256\n      sload\n      swap1\n        /* \"Users/leilei/Downloads/TradingCompV2RewardDistribution/contracts/BEP20TokenImplementation.sol\":15231:15374  function allowance(address owner, address spender) external override view returns (uint256) {... */\n      jump\t// out\n        /* \"Users/leilei/Downloads/TradingCompV2RewardDistribution/contracts/BEP20TokenImplementation.sol\":12537:12849  function initialize(string memory name, string memory symbol, uint8 decimals, uint256 amount, bool mintable, address owner) public initializer {... */\n    tag_81:\n        /* \"Users/leilei/Downloads/TradingCompV2RewardDistribution/contracts/BEP20TokenImplementation.sol\":10622:10635  _initializing */\n      sload(0x00)\n      0x0100\n      swap1\n      div\n      0xff\n      and\n      dup1\n        /* \"Users/leilei/Downloads/TradingCompV2RewardDistribution/contracts/BEP20TokenImplementation.sol\":10622:10655  _initializing || _isConstructor() */\n      tag_144\n      jumpi\n      pop\n        /* \"Users/leilei/Downloads/TradingCompV2RewardDistribution/contracts/BEP20TokenImplementation.sol\":10639:10655  _isConstructor() */\n      tag_144\n        /* \"Users/leilei/Downloads/TradingCompV2RewardDistribution/contracts/BEP20TokenImplementation.sol\":10639:10653  _isConstructor */\n      tag_145\n        /* \"Users/leilei/Downloads/TradingCompV2RewardDistribution/contracts/BEP20TokenImplementation.sol\":10639:10655  _isConstructor() */\n      jump\t// in\n    tag_144:\n        /* \"Users/leilei/Downloads/TradingCompV2RewardDistribution/contracts/BEP20TokenImplementation.sol\":10622:10672  _initializing || _isConstructor() || !_initialized */\n      dup1\n      tag_146\n      jumpi\n      pop\n        /* \"Users/leilei/Downloads/TradingCompV2RewardDistribution/contracts/BEP20TokenImplementation.sol\":10660:10672  _initialized */\n      and(0xff, sload(0x00))\n        /* \"Users/leilei/Downloads/TradingCompV2RewardDistribution/contracts/BEP20TokenImplementation.sol\":10659:10672  !_initialized */\n      iszero\n        /* \"Users/leilei/Downloads/TradingCompV2RewardDistribution/contracts/BEP20TokenImplementation.sol\":10622:10672  _initializing || _isConstructor() || !_initialized */\n    tag_146:\n        /* \"Users/leilei/Downloads/TradingCompV2RewardDistribution/contracts/BEP20TokenImplementation.sol\":10614:10723  require(_initializing || _isConstructor() || !_initialized, \"Initializable: contract is already initialized\") */\n      tag_147\n      jumpi\n      mload(0x40)\n      shl(0xe5, 0x461bcd)\n      dup2\n      mstore\n      0x04\n      add\n      dup1\n      dup1\n      0x20\n      add\n      dup3\n      dup2\n      sub\n      dup3\n      mstore\n      0x2e\n      dup2\n      mstore\n      0x20\n      add\n      dup1\n      data_7a2a4e26842155ea933fe6eb6e3137eb5a296dcdf55721c552be7b4c3cc23759\n      0x2e\n      swap2\n      codecopy\n      0x40\n      add\n      swap2\n      pop\n      pop\n      mload(0x40)\n      dup1\n      swap2\n      sub\n      swap1\n      revert\n    tag_147:\n        /* \"Users/leilei/Downloads/TradingCompV2RewardDistribution/contracts/BEP20TokenImplementation.sol\":10734:10753  bool isTopLevelCall */\n      0x00\n        /* \"Users/leilei/Downloads/TradingCompV2RewardDistribution/contracts/BEP20TokenImplementation.sol\":10757:10770  _initializing */\n      sload\n      0x0100\n      swap1\n      div\n      0xff\n      and\n        /* \"Users/leilei/Downloads/TradingCompV2RewardDistribution/contracts/BEP20TokenImplementation.sol\":10756:10770  !_initializing */\n      iszero\n        /* \"Users/leilei/Downloads/TradingCompV2RewardDistribution/contracts/BEP20TokenImplementation.sol\":10780:10878  if (isTopLevelCall) {... */\n      dup1\n      iszero\n      tag_148\n      jumpi\n        /* \"Users/leilei/Downloads/TradingCompV2RewardDistribution/contracts/BEP20TokenImplementation.sol\":10814:10827  _initializing */\n      0x00\n        /* \"Users/leilei/Downloads/TradingCompV2RewardDistribution/contracts/BEP20TokenImplementation.sol\":10814:10834  _initializing = true */\n      dup1\n      sload\n      not(0xff)\n      not(0xff00)\n      swap1\n      swap2\n      and\n      0x0100\n      or\n        /* \"Users/leilei/Downloads/TradingCompV2RewardDistribution/contracts/BEP20TokenImplementation.sol\":10848:10867  _initialized = true */\n      and\n        /* \"Users/leilei/Downloads/TradingCompV2RewardDistribution/contracts/BEP20TokenImplementation.sol\":10830:10834  true */\n      0x01\n        /* \"Users/leilei/Downloads/TradingCompV2RewardDistribution/contracts/BEP20TokenImplementation.sol\":10848:10867  _initialized = true */\n      or\n      swap1\n      sstore\n        /* \"Users/leilei/Downloads/TradingCompV2RewardDistribution/contracts/BEP20TokenImplementation.sol\":10780:10878  if (isTopLevelCall) {... */\n    tag_148:\n        /* \"Users/leilei/Downloads/TradingCompV2RewardDistribution/contracts/BEP20TokenImplementation.sol\":12690:12696  _owner */\n      0x06\n        /* \"Users/leilei/Downloads/TradingCompV2RewardDistribution/contracts/BEP20TokenImplementation.sol\":12690:12704  _owner = owner */\n      dup1\n      sload\n      not(sub(shl(0xa8, 0x01), 0x0100))\n      and\n      0x0100\n      sub(shl(0xa0, 0x01), 0x01)\n      dup6\n      and\n      mul\n      or\n      swap1\n      sstore\n        /* \"Users/leilei/Downloads/TradingCompV2RewardDistribution/contracts/BEP20TokenImplementation.sol\":12714:12726  _name = name */\n      dup7\n      mload\n      tag_150\n      swap1\n        /* \"Users/leilei/Downloads/TradingCompV2RewardDistribution/contracts/BEP20TokenImplementation.sol\":12714:12719  _name */\n      0x04\n      swap1\n        /* \"Users/leilei/Downloads/TradingCompV2RewardDistribution/contracts/BEP20TokenImplementation.sol\":12714:12726  _name = name */\n      0x20\n      dup11\n      add\n      swap1\n      tag_151\n      jump\t// in\n    tag_150:\n      pop\n        /* \"Users/leilei/Downloads/TradingCompV2RewardDistribution/contracts/BEP20TokenImplementation.sol\":12736:12752  _symbol = symbol */\n      dup6\n      mload\n      tag_152\n      swap1\n        /* \"Users/leilei/Downloads/TradingCompV2RewardDistribution/contracts/BEP20TokenImplementation.sol\":12736:12743  _symbol */\n      0x05\n      swap1\n        /* \"Users/leilei/Downloads/TradingCompV2RewardDistribution/contracts/BEP20TokenImplementation.sol\":12736:12752  _symbol = symbol */\n      0x20\n      dup10\n      add\n      swap1\n      tag_151\n      jump\t// in\n    tag_152:\n      pop\n        /* \"Users/leilei/Downloads/TradingCompV2RewardDistribution/contracts/BEP20TokenImplementation.sol\":12762:12771  _decimals */\n      0x06\n        /* \"Users/leilei/Downloads/TradingCompV2RewardDistribution/contracts/BEP20TokenImplementation.sol\":12762:12782  _decimals = decimals */\n      dup1\n      sload\n      not(0xff)\n      and\n      0xff\n      dup8\n      and\n      or\n      not(shl(0xa8, 0xff))\n        /* \"Users/leilei/Downloads/TradingCompV2RewardDistribution/contracts/BEP20TokenImplementation.sol\":12792:12812  _mintable = mintable */\n      and\n      shl(0xa8, 0x01)\n      dup6\n      iszero\n      iszero\n      mul\n      or\n      swap1\n      sstore\n        /* \"Users/leilei/Downloads/TradingCompV2RewardDistribution/contracts/BEP20TokenImplementation.sol\":12822:12842  _mint(owner, amount) */\n      tag_153\n        /* \"Users/leilei/Downloads/TradingCompV2RewardDistribution/contracts/BEP20TokenImplementation.sol\":12828:12833  owner */\n      dup3\n        /* \"Users/leilei/Downloads/TradingCompV2RewardDistribution/contracts/BEP20TokenImplementation.sol\":12835:12841  amount */\n      dup6\n        /* \"Users/leilei/Downloads/TradingCompV2RewardDistribution/contracts/BEP20TokenImplementation.sol\":12822:12827  _mint */\n      tag_132\n        /* \"Users/leilei/Downloads/TradingCompV2RewardDistribution/contracts/BEP20TokenImplementation.sol\":12822:12842  _mint(owner, amount) */\n      jump\t// in\n    tag_153:\n        /* \"Users/leilei/Downloads/TradingCompV2RewardDistribution/contracts/BEP20TokenImplementation.sol\":10904:10918  isTopLevelCall */\n      dup1\n        /* \"Users/leilei/Downloads/TradingCompV2RewardDistribution/contracts/BEP20TokenImplementation.sol\":10900:10966  if (isTopLevelCall) {... */\n      iszero\n      tag_154\n      jumpi\n        /* \"Users/leilei/Downloads/TradingCompV2RewardDistribution/contracts/BEP20TokenImplementation.sol\":10950:10955  false */\n      0x00\n        /* \"Users/leilei/Downloads/TradingCompV2RewardDistribution/contracts/BEP20TokenImplementation.sol\":10934:10955  _initializing = false */\n      dup1\n      sload\n      not(0xff00)\n      and\n      swap1\n      sstore\n        /* \"Users/leilei/Downloads/TradingCompV2RewardDistribution/contracts/BEP20TokenImplementation.sol\":10900:10966  if (isTopLevelCall) {... */\n    tag_154:\n        /* \"Users/leilei/Downloads/TradingCompV2RewardDistribution/contracts/BEP20TokenImplementation.sol\":12537:12849  function initialize(string memory name, string memory symbol, uint8 decimals, uint256 amount, bool mintable, address owner) public initializer {... */\n      pop\n      pop\n      pop\n      pop\n      pop\n      pop\n      pop\n      jump\t// out\n        /* \"Users/leilei/Downloads/TradingCompV2RewardDistribution/contracts/BEP20TokenImplementation.sol\":13471:13703  function transferOwnership(address newOwner) public onlyOwner {... */\n    tag_84:\n        /* \"Users/leilei/Downloads/TradingCompV2RewardDistribution/contracts/BEP20TokenImplementation.sol\":12401:12413  _msgSender() */\n      tag_156\n        /* \"Users/leilei/Downloads/TradingCompV2RewardDistribution/contracts/BEP20TokenImplementation.sol\":12401:12411  _msgSender */\n      tag_92\n        /* \"Users/leilei/Downloads/TradingCompV2RewardDistribution/contracts/BEP20TokenImplementation.sol\":12401:12413  _msgSender() */\n      jump\t// in\n    tag_156:\n        /* \"Users/leilei/Downloads/TradingCompV2RewardDistribution/contracts/BEP20TokenImplementation.sol\":12391:12397  _owner */\n      sload(0x06)\n      0x0100\n      swap1\n      div\n      sub(shl(0xa0, 0x01), 0x01)\n      swap1\n      dup2\n      and\n        /* \"Users/leilei/Downloads/TradingCompV2RewardDistribution/contracts/BEP20TokenImplementation.sol\":12391:12413  _owner == _msgSender() */\n      swap2\n      and\n      eq\n        /* \"Users/leilei/Downloads/TradingCompV2RewardDistribution/contracts/BEP20TokenImplementation.sol\":12383:12450  require(_owner == _msgSender(), \"Ownable: caller is not the owner\") */\n      tag_157\n      jumpi\n      0x40\n      dup1\n      mload\n      shl(0xe5, 0x461bcd)\n      dup2\n      mstore\n      0x20\n      0x04\n      dup3\n      add\n      dup2\n      swap1\n      mstore\n      0x24\n      dup3\n      add\n      mstore\n      0x4f776e61626c653a2063616c6c6572206973206e6f7420746865206f776e6572\n      0x44\n      dup3\n      add\n      mstore\n      swap1\n      mload\n      swap1\n      dup2\n      swap1\n      sub\n      0x64\n      add\n      swap1\n      revert\n    tag_157:\n      sub(shl(0xa0, 0x01), 0x01)\n        /* \"Users/leilei/Downloads/TradingCompV2RewardDistribution/contracts/BEP20TokenImplementation.sol\":13551:13573  newOwner != address(0) */\n      dup2\n      and\n        /* \"Users/leilei/Downloads/TradingCompV2RewardDistribution/contracts/BEP20TokenImplementation.sol\":13543:13616  require(newOwner != address(0), \"Ownable: new owner is the zero address\") */\n      tag_159\n      jumpi\n      mload(0x40)\n      shl(0xe5, 0x461bcd)\n      dup2\n      mstore\n      0x04\n      add\n      dup1\n      dup1\n      0x20\n      add\n      dup3\n      dup2\n      sub\n      dup3\n      mstore\n      0x26\n      dup2\n      mstore\n      0x20\n      add\n      dup1\n      data_245f15ff17f551913a7a18385165551503906a406f905ac1c2437281a7cd0cfe\n      0x26\n      swap2\n      codecopy\n      0x40\n      add\n      swap2\n      pop\n      pop\n      mload(0x40)\n      dup1\n      swap2\n      sub\n      swap1\n      revert\n    tag_159:\n        /* \"Users/leilei/Downloads/TradingCompV2RewardDistribution/contracts/BEP20TokenImplementation.sol\":13652:13658  _owner */\n      sload(0x06)\n        /* \"Users/leilei/Downloads/TradingCompV2RewardDistribution/contracts/BEP20TokenImplementation.sol\":13631:13669  OwnershipTransferred(_owner, newOwner) */\n      mload(0x40)\n      sub(shl(0xa0, 0x01), 0x01)\n      dup1\n      dup5\n      and\n      swap3\n        /* \"Users/leilei/Downloads/TradingCompV2RewardDistribution/contracts/BEP20TokenImplementation.sol\":13652:13658  _owner */\n      0x0100\n      swap1\n      div\n      and\n      swap1\n        /* \"Users/leilei/Downloads/TradingCompV2RewardDistribution/contracts/BEP20TokenImplementation.sol\":13631:13669  OwnershipTransferred(_owner, newOwner) */\n      0x8be0079c531659141344cd1fd0a4f28419497f9722a3daafe3b4186f6b6457e0\n      swap1\n      0x00\n      swap1\n      log3\n        /* \"Users/leilei/Downloads/TradingCompV2RewardDistribution/contracts/BEP20TokenImplementation.sol\":13679:13685  _owner */\n      0x06\n        /* \"Users/leilei/Downloads/TradingCompV2RewardDistribution/contracts/BEP20TokenImplementation.sol\":13679:13696  _owner = newOwner */\n      dup1\n      sload\n      sub(shl(0xa0, 0x01), 0x01)\n      swap1\n      swap3\n      and\n      0x0100\n      mul\n      not(sub(shl(0xa8, 0x01), 0x0100))\n      swap1\n      swap3\n      and\n      swap2\n      swap1\n      swap2\n      or\n      swap1\n      sstore\n        /* \"Users/leilei/Downloads/TradingCompV2RewardDistribution/contracts/BEP20TokenImplementation.sol\":13471:13703  function transferOwnership(address newOwner) public onlyOwner {... */\n      jump\t// out\n        /* \"Users/leilei/Downloads/TradingCompV2RewardDistribution/contracts/BEP20TokenImplementation.sol\":3606:3710  function _msgSender() internal view virtual returns (address payable) {... */\n    tag_92:\n        /* \"Users/leilei/Downloads/TradingCompV2RewardDistribution/contracts/BEP20TokenImplementation.sol\":3693:3703  msg.sender */\n      caller\n        /* \"Users/leilei/Downloads/TradingCompV2RewardDistribution/contracts/BEP20TokenImplementation.sol\":3606:3710  function _msgSender() internal view virtual returns (address payable) {... */\n      swap1\n      jump\t// out\n        /* \"Users/leilei/Downloads/TradingCompV2RewardDistribution/contracts/BEP20TokenImplementation.sol\":21008:21340  function _approve(address owner, address spender, uint256 amount) internal {... */\n    tag_93:\n      sub(shl(0xa0, 0x01), 0x01)\n        /* \"Users/leilei/Downloads/TradingCompV2RewardDistribution/contracts/BEP20TokenImplementation.sol\":21101:21120  owner != address(0) */\n      dup4\n      and\n        /* \"Users/leilei/Downloads/TradingCompV2RewardDistribution/contracts/BEP20TokenImplementation.sol\":21093:21161  require(owner != address(0), \"BEP20: approve from the zero address\") */\n      tag_162\n      jumpi\n      mload(0x40)\n      shl(0xe5, 0x461bcd)\n      dup2\n      mstore\n      0x04\n      add\n      dup1\n      dup1\n      0x20\n      add\n      dup3\n      dup2\n      sub\n      dup3\n      mstore\n      0x24\n      dup2\n      mstore\n      0x20\n      add\n      dup1\n      data_1441cfbef485de93bedecc35b3d10fa2992db382c4c9c583a6e423a140abe4a4\n      0x24\n      swap2\n      codecopy\n      0x40\n      add\n      swap2\n      pop\n      pop\n      mload(0x40)\n      dup1\n      swap2\n      sub\n      swap1\n      revert\n    tag_162:\n      sub(shl(0xa0, 0x01), 0x01)\n        /* \"Users/leilei/Downloads/TradingCompV2RewardDistribution/contracts/BEP20TokenImplementation.sol\":21179:21200  spender != address(0) */\n      dup3\n      and\n        /* \"Users/leilei/Downloads/TradingCompV2RewardDistribution/contracts/BEP20TokenImplementation.sol\":21171:21239  require(spender != address(0), \"BEP20: approve to the zero address\") */\n      tag_163\n      jumpi\n      mload(0x40)\n      shl(0xe5, 0x461bcd)\n      dup2\n      mstore\n      0x04\n      add\n      dup1\n      dup1\n      0x20\n      add\n      dup3\n      dup2\n      sub\n      dup3\n      mstore\n      0x22\n      dup2\n      mstore\n      0x20\n      add\n      dup1\n      data_f10e7571e18b354270dee950932fb6a745efc79414b2b2556185a4ed6a1af0d5\n      0x22\n      swap2\n      codecopy\n      0x40\n      add\n      swap2\n      pop\n      pop\n      mload(0x40)\n      dup1\n      swap2\n      sub\n      swap1\n      revert\n    tag_163:\n      sub(shl(0xa0, 0x01), 0x01)\n        /* \"Users/leilei/Downloads/TradingCompV2RewardDistribution/contracts/BEP20TokenImplementation.sol\":21250:21268  _allowances[owner] */\n      dup1\n      dup5\n      and\n      0x00\n      dup2\n      dup2\n      mstore\n        /* \"Users/leilei/Downloads/TradingCompV2RewardDistribution/contracts/BEP20TokenImplementation.sol\":21250:21261  _allowances */\n      0x02\n        /* \"Users/leilei/Downloads/TradingCompV2RewardDistribution/contracts/BEP20TokenImplementation.sol\":21250:21268  _allowances[owner] */\n      0x20\n      swap1\n      dup2\n      mstore\n      0x40\n      dup1\n      dup4\n      keccak256\n        /* \"Users/leilei/Downloads/TradingCompV2RewardDistribution/contracts/BEP20TokenImplementation.sol\":21250:21277  _allowances[owner][spender] */\n      swap5\n      dup8\n      and\n      dup1\n      dup5\n      mstore\n      swap5\n      dup3\n      mstore\n      swap2\n      dup3\n      swap1\n      keccak256\n        /* \"Users/leilei/Downloads/TradingCompV2RewardDistribution/contracts/BEP20TokenImplementation.sol\":21250:21286  _allowances[owner][spender] = amount */\n      dup6\n      swap1\n      sstore\n        /* \"Users/leilei/Downloads/TradingCompV2RewardDistribution/contracts/BEP20TokenImplementation.sol\":21301:21333  Approval(owner, spender, amount) */\n      dup2\n      mload\n      dup6\n      dup2\n      mstore\n      swap2\n      mload\n      0x8c5be1e5ebec7d5bd14f71427d1e84f3dd0314c0f7b2291e5b200ac8c7c3b925\n      swap3\n      dup2\n      swap1\n      sub\n      swap1\n      swap2\n      add\n      swap1\n      log3\n        /* \"Users/leilei/Downloads/TradingCompV2RewardDistribution/contracts/BEP20TokenImplementation.sol\":21008:21340  function _approve(address owner, address spender, uint256 amount) internal {... */\n      pop\n      pop\n      pop\n      jump\t// out\n        /* \"Users/leilei/Downloads/TradingCompV2RewardDistribution/contracts/BEP20TokenImplementation.sol\":18886:19350  function _transfer(address sender, address recipient, uint256 amount) internal {... */\n    tag_97:\n      sub(shl(0xa0, 0x01), 0x01)\n        /* \"Users/leilei/Downloads/TradingCompV2RewardDistribution/contracts/BEP20TokenImplementation.sol\":18983:19003  sender != address(0) */\n      dup4\n      and\n        /* \"Users/leilei/Downloads/TradingCompV2RewardDistribution/contracts/BEP20TokenImplementation.sol\":18975:19045  require(sender != address(0), \"BEP20: transfer from the zero address\") */\n      tag_165\n      jumpi\n      mload(0x40)\n      shl(0xe5, 0x461bcd)\n      dup2\n      mstore\n      0x04\n      add\n      dup1\n      dup1\n      0x20\n      add\n      dup3\n      dup2\n      sub\n      dup3\n      mstore\n      0x25\n      dup2\n      mstore\n      0x20\n      add\n      dup1\n      data_0d26cf302d50b28de74be656b11d67092b32131e5712d1bcf08c4e976dacda57\n      0x25\n      swap2\n      codecopy\n      0x40\n      add\n      swap2\n      pop\n      pop\n      mload(0x40)\n      dup1\n      swap2\n      sub\n      swap1\n      revert\n    tag_165:\n      sub(shl(0xa0, 0x01), 0x01)\n        /* \"Users/leilei/Downloads/TradingCompV2RewardDistribution/contracts/BEP20TokenImplementation.sol\":19063:19086  recipient != address(0) */\n      dup3\n      and\n        /* \"Users/leilei/Downloads/TradingCompV2RewardDistribution/contracts/BEP20TokenImplementation.sol\":19055:19126  require(recipient != address(0), \"BEP20: transfer to the zero address\") */\n      tag_166\n      jumpi\n      mload(0x40)\n      shl(0xe5, 0x461bcd)\n      dup2\n      mstore\n      0x04\n      add\n      dup1\n      dup1\n      0x20\n      add\n      dup3\n      dup2\n      sub\n      dup3\n      mstore\n      0x23\n      dup2\n      mstore\n      0x20\n      add\n      dup1\n      data_ade9efcb59e42e439ffe61509b352b1af56d64ccb68d80b039b7b69578f371d2\n      0x23\n      swap2\n      codecopy\n      0x40\n      add\n      swap2\n      pop\n      pop\n      mload(0x40)\n      dup1\n      swap2\n      sub\n      swap1\n      revert\n    tag_166:\n        /* \"Users/leilei/Downloads/TradingCompV2RewardDistribution/contracts/BEP20TokenImplementation.sol\":19157:19228  _balances[sender].sub(amount, \"BEP20: transfer amount exceeds balance\") */\n      tag_167\n        /* \"Users/leilei/Downloads/TradingCompV2RewardDistribution/contracts/BEP20TokenImplementation.sol\":19179:19185  amount */\n      dup2\n        /* \"Users/leilei/Downloads/TradingCompV2RewardDistribution/contracts/BEP20TokenImplementation.sol\":19157:19228  _balances[sender].sub(amount, \"BEP20: transfer amount exceeds balance\") */\n      mload(0x40)\n      dup1\n      0x60\n      add\n      0x40\n      mstore\n      dup1\n      0x26\n      dup2\n      mstore\n      0x20\n      add\n      data_a91efd7a65ef5b4ae4d6568d674798b78a5a89184dd296c100513251c22d3e73\n      0x26\n      swap2\n      codecopy\n      sub(shl(0xa0, 0x01), 0x01)\n        /* \"Users/leilei/Downloads/TradingCompV2RewardDistribution/contracts/BEP20TokenImplementation.sol\":19157:19174  _balances[sender] */\n      dup7\n      and\n      0x00\n      swap1\n      dup2\n      mstore\n        /* \"Users/leilei/Downloads/TradingCompV2RewardDistribution/contracts/BEP20TokenImplementation.sol\":19157:19166  _balances */\n      0x01\n        /* \"Users/leilei/Downloads/TradingCompV2RewardDistribution/contracts/BEP20TokenImplementation.sol\":19157:19174  _balances[sender] */\n      0x20\n      mstore\n      0x40\n      swap1\n      keccak256\n      sload\n      swap2\n        /* \"Users/leilei/Downloads/TradingCompV2RewardDistribution/contracts/BEP20TokenImplementation.sol\":19157:19228  _balances[sender].sub(amount, \"BEP20: transfer amount exceeds balance\") */\n      swap1\n      0xffffffff\n        /* \"Users/leilei/Downloads/TradingCompV2RewardDistribution/contracts/BEP20TokenImplementation.sol\":19157:19178  _balances[sender].sub */\n      tag_102\n        /* \"Users/leilei/Downloads/TradingCompV2RewardDistribution/contracts/BEP20TokenImplementation.sol\":19157:19228  _balances[sender].sub(amount, \"BEP20: transfer amount exceeds balance\") */\n      and\n      jump\t// in\n    tag_167:\n      sub(shl(0xa0, 0x01), 0x01)\n        /* \"Users/leilei/Downloads/TradingCompV2RewardDistribution/contracts/BEP20TokenImplementation.sol\":19137:19154  _balances[sender] */\n      dup1\n      dup6\n      and\n      0x00\n      swap1\n      dup2\n      mstore\n        /* \"Users/leilei/Downloads/TradingCompV2RewardDistribution/contracts/BEP20TokenImplementation.sol\":19137:19146  _balances */\n      0x01\n        /* \"Users/leilei/Downloads/TradingCompV2RewardDistribution/contracts/BEP20TokenImplementation.sol\":19137:19154  _balances[sender] */\n      0x20\n      mstore\n      0x40\n      dup1\n      dup3\n      keccak256\n        /* \"Users/leilei/Downloads/TradingCompV2RewardDistribution/contracts/BEP20TokenImplementation.sol\":19137:19228  _balances[sender] = _balances[sender].sub(amount, \"BEP20: transfer amount exceeds balance\") */\n      swap4\n      swap1\n      swap4\n      sstore\n        /* \"Users/leilei/Downloads/TradingCompV2RewardDistribution/contracts/BEP20TokenImplementation.sol\":19261:19281  _balances[recipient] */\n      swap1\n      dup5\n      and\n      dup2\n      mstore\n      keccak256\n      sload\n        /* \"Users/leilei/Downloads/TradingCompV2RewardDistribution/contracts/BEP20TokenImplementation.sol\":19261:19293  _balances[recipient].add(amount) */\n      tag_168\n      swap1\n        /* \"Users/leilei/Downloads/TradingCompV2RewardDistribution/contracts/BEP20TokenImplementation.sol\":19286:19292  amount */\n      dup3\n        /* \"Users/leilei/Downloads/TradingCompV2RewardDistribution/contracts/BEP20TokenImplementation.sol\":19261:19293  _balances[recipient].add(amount) */\n      0xffffffff\n        /* \"Users/leilei/Downloads/TradingCompV2RewardDistribution/contracts/BEP20TokenImplementation.sol\":19261:19285  _balances[recipient].add */\n      tag_109\n        /* \"Users/leilei/Downloads/TradingCompV2RewardDistribution/contracts/BEP20TokenImplementation.sol\":19261:19293  _balances[recipient].add(amount) */\n      and\n      jump\t// in\n    tag_168:\n      sub(shl(0xa0, 0x01), 0x01)\n        /* \"Users/leilei/Downloads/TradingCompV2RewardDistribution/contracts/BEP20TokenImplementation.sol\":19238:19258  _balances[recipient] */\n      dup1\n      dup5\n      and\n      0x00\n      dup2\n      dup2\n      mstore\n        /* \"Users/leilei/Downloads/TradingCompV2RewardDistribution/contracts/BEP20TokenImplementation.sol\":19238:19247  _balances */\n      0x01\n        /* \"Users/leilei/Downloads/TradingCompV2RewardDistribution/contracts/BEP20TokenImplementation.sol\":19238:19258  _balances[recipient] */\n      0x20\n      swap1\n      dup2\n      mstore\n      0x40\n      swap2\n      dup3\n      swap1\n      keccak256\n        /* \"Users/leilei/Downloads/TradingCompV2RewardDistribution/contracts/BEP20TokenImplementation.sol\":19238:19293  _balances[recipient] = _balances[recipient].add(amount) */\n      swap5\n      swap1\n      swap5\n      sstore\n        /* \"Users/leilei/Downloads/TradingCompV2RewardDistribution/contracts/BEP20TokenImplementation.sol\":19308:19343  Transfer(sender, recipient, amount) */\n      dup1\n      mload\n      dup6\n      dup2\n      mstore\n      swap1\n      mload\n        /* \"Users/leilei/Downloads/TradingCompV2RewardDistribution/contracts/BEP20TokenImplementation.sol\":19238:19258  _balances[recipient] */\n      swap2\n      swap4\n        /* \"Users/leilei/Downloads/TradingCompV2RewardDistribution/contracts/BEP20TokenImplementation.sol\":19308:19343  Transfer(sender, recipient, amount) */\n      swap3\n      dup8\n      and\n      swap3\n      0xddf252ad1be2c89b69c2b068fc378daa952ba7f163c4a11628f55a4df523b3ef\n      swap3\n      swap2\n      dup3\n      swap1\n      sub\n      add\n      swap1\n      log3\n        /* \"Users/leilei/Downloads/TradingCompV2RewardDistribution/contracts/BEP20TokenImplementation.sol\":18886:19350  function _transfer(address sender, address recipient, uint256 amount) internal {... */\n      pop\n      pop\n      pop\n      jump\t// out\n        /* \"Users/leilei/Downloads/TradingCompV2RewardDistribution/contracts/BEP20TokenImplementation.sol\":5674:5861  function sub(uint256 a, uint256 b, string memory errorMessage) internal pure returns (uint256) {... */\n    tag_102:\n        /* \"Users/leilei/Downloads/TradingCompV2RewardDistribution/contracts/BEP20TokenImplementation.sol\":5760:5767  uint256 */\n      0x00\n        /* \"Users/leilei/Downloads/TradingCompV2RewardDistribution/contracts/BEP20TokenImplementation.sol\":5795:5807  errorMessage */\n      dup2\n        /* \"Users/leilei/Downloads/TradingCompV2RewardDistribution/contracts/BEP20TokenImplementation.sol\":5787:5793  b <= a */\n      dup5\n      dup5\n      gt\n      iszero\n        /* \"Users/leilei/Downloads/TradingCompV2RewardDistribution/contracts/BEP20TokenImplementation.sol\":5779:5808  require(b <= a, errorMessage) */\n      tag_170\n      jumpi\n      mload(0x40)\n      shl(0xe5, 0x461bcd)\n      dup2\n      mstore\n      0x04\n      add\n      dup1\n      dup1\n      0x20\n      add\n      dup3\n      dup2\n      sub\n      dup3\n      mstore\n      dup4\n      dup2\n      dup2\n      mload\n      dup2\n      mstore\n      0x20\n      add\n      swap2\n      pop\n      dup1\n      mload\n      swap1\n      0x20\n      add\n      swap1\n      dup1\n      dup4\n      dup4\n        /* \"--CODEGEN--\":23:24   */\n      0x00\n        /* \"--CODEGEN--\":8:108   */\n    tag_171:\n        /* \"--CODEGEN--\":33:36   */\n      dup4\n        /* \"--CODEGEN--\":30:31   */\n      dup2\n        /* \"--CODEGEN--\":27:37   */\n      lt\n        /* \"--CODEGEN--\":8:108   */\n      iszero\n      tag_173\n      jumpi\n        /* \"--CODEGEN--\":90:101   */\n      dup2\n      dup2\n      add\n        /* \"--CODEGEN--\":84:102   */\n      mload\n        /* \"--CODEGEN--\":71:82   */\n      dup4\n      dup3\n      add\n        /* \"--CODEGEN--\":64:103   */\n      mstore\n        /* \"--CODEGEN--\":52:54   */\n      0x20\n        /* \"--CODEGEN--\":45:55   */\n      add\n        /* \"--CODEGEN--\":8:108   */\n      jump(tag_171)\n    tag_173:\n        /* \"--CODEGEN--\":12:26   */\n      pop\n        /* \"Users/leilei/Downloads/TradingCompV2RewardDistribution/contracts/BEP20TokenImplementation.sol\":5779:5808  require(b <= a, errorMessage) */\n      pop\n      pop\n      pop\n      swap1\n      pop\n      swap1\n      dup2\n      add\n      swap1\n      0x1f\n      and\n      dup1\n      iszero\n      tag_174\n      jumpi\n      dup1\n      dup3\n      sub\n      dup1\n      mload\n      0x01\n      dup4\n      0x20\n      sub\n      0x0100\n      exp\n      sub\n      not\n      and\n      dup2\n      mstore\n      0x20\n      add\n      swap2\n      pop\n    tag_174:\n      pop\n      swap3\n      pop\n      pop\n      pop\n      mload(0x40)\n      dup1\n      swap2\n      sub\n      swap1\n      revert\n    tag_170:\n      pop\n      pop\n      pop\n        /* \"Users/leilei/Downloads/TradingCompV2RewardDistribution/contracts/BEP20TokenImplementation.sol\":5830:5835  a - b */\n      swap1\n      sub\n      swap1\n        /* \"Users/leilei/Downloads/TradingCompV2RewardDistribution/contracts/BEP20TokenImplementation.sol\":5674:5861  function sub(uint256 a, uint256 b, string memory errorMessage) internal pure returns (uint256) {... */\n      jump\t// out\n        /* \"Users/leilei/Downloads/TradingCompV2RewardDistribution/contracts/BEP20TokenImplementation.sol\":4802:4978  function add(uint256 a, uint256 b) internal pure returns (uint256) {... */\n    tag_109:\n        /* \"Users/leilei/Downloads/TradingCompV2RewardDistribution/contracts/BEP20TokenImplementation.sol\":4860:4867  uint256 */\n      0x00\n        /* \"Users/leilei/Downloads/TradingCompV2RewardDistribution/contracts/BEP20TokenImplementation.sol\":4891:4896  a + b */\n      dup3\n      dup3\n      add\n        /* \"Users/leilei/Downloads/TradingCompV2RewardDistribution/contracts/BEP20TokenImplementation.sol\":4914:4920  c >= a */\n      dup4\n      dup2\n      lt\n      iszero\n        /* \"Users/leilei/Downloads/TradingCompV2RewardDistribution/contracts/BEP20TokenImplementation.sol\":4906:4952  require(c >= a, \"SafeMath: addition overflow\") */\n      tag_176\n      jumpi\n      0x40\n      dup1\n      mload\n      shl(0xe5, 0x461bcd)\n      dup2\n      mstore\n      0x20\n      0x04\n      dup3\n      add\n      mstore\n      0x1b\n      0x24\n      dup3\n      add\n      mstore\n      0x536166654d6174683a206164646974696f6e206f766572666c6f770000000000\n      0x44\n      dup3\n      add\n      mstore\n      swap1\n      mload\n      swap1\n      dup2\n      swap1\n      sub\n      0x64\n      add\n      swap1\n      revert\n    tag_176:\n        /* \"Users/leilei/Downloads/TradingCompV2RewardDistribution/contracts/BEP20TokenImplementation.sol\":4970:4971  c */\n      swap4\n        /* \"Users/leilei/Downloads/TradingCompV2RewardDistribution/contracts/BEP20TokenImplementation.sol\":4802:4978  function add(uint256 a, uint256 b) internal pure returns (uint256) {... */\n      swap3\n      pop\n      pop\n      pop\n      jump\t// out\n        /* \"Users/leilei/Downloads/TradingCompV2RewardDistribution/contracts/BEP20TokenImplementation.sol\":20241:20583  function _burn(address account, uint256 amount) internal {... */\n    tag_113:\n      sub(shl(0xa0, 0x01), 0x01)\n        /* \"Users/leilei/Downloads/TradingCompV2RewardDistribution/contracts/BEP20TokenImplementation.sol\":20316:20337  account != address(0) */\n      dup3\n      and\n        /* \"Users/leilei/Downloads/TradingCompV2RewardDistribution/contracts/BEP20TokenImplementation.sol\":20308:20375  require(account != address(0), \"BEP20: burn from the zero address\") */\n      tag_178\n      jumpi\n      mload(0x40)\n      shl(0xe5, 0x461bcd)\n      dup2\n      mstore\n      0x04\n      add\n      dup1\n      dup1\n      0x20\n      add\n      dup3\n      dup2\n      sub\n      dup3\n      mstore\n      0x21\n      dup2\n      mstore\n      0x20\n      add\n      dup1\n      data_b81edbf10508d9b81724f18ff8f3d8bfba9790734ce1f1c54dfe1030b4914855\n      0x21\n      swap2\n      codecopy\n      0x40\n      add\n      swap2\n      pop\n      pop\n      mload(0x40)\n      dup1\n      swap2\n      sub\n      swap1\n      revert\n    tag_178:\n        /* \"Users/leilei/Downloads/TradingCompV2RewardDistribution/contracts/BEP20TokenImplementation.sol\":20407:20475  _balances[account].sub(amount, \"BEP20: burn amount exceeds balance\") */\n      tag_179\n        /* \"Users/leilei/Downloads/TradingCompV2RewardDistribution/contracts/BEP20TokenImplementation.sol\":20430:20436  amount */\n      dup2\n        /* \"Users/leilei/Downloads/TradingCompV2RewardDistribution/contracts/BEP20TokenImplementation.sol\":20407:20475  _balances[account].sub(amount, \"BEP20: burn amount exceeds balance\") */\n      mload(0x40)\n      dup1\n      0x60\n      add\n      0x40\n      mstore\n      dup1\n      0x22\n      dup2\n      mstore\n      0x20\n      add\n      data_deaa84b30175fd0578812c46240362b7914652a35e6707ad7e1556891e4ae032\n      0x22\n      swap2\n      codecopy\n      sub(shl(0xa0, 0x01), 0x01)\n        /* \"Users/leilei/Downloads/TradingCompV2RewardDistribution/contracts/BEP20TokenImplementation.sol\":20407:20425  _balances[account] */\n      dup6\n      and\n      0x00\n      swap1\n      dup2\n      mstore\n        /* \"Users/leilei/Downloads/TradingCompV2RewardDistribution/contracts/BEP20TokenImplementation.sol\":20407:20416  _balances */\n      0x01\n        /* \"Users/leilei/Downloads/TradingCompV2RewardDistribution/contracts/BEP20TokenImplementation.sol\":20407:20425  _balances[account] */\n      0x20\n      mstore\n      0x40\n      swap1\n      keccak256\n      sload\n      swap2\n        /* \"Users/leilei/Downloads/TradingCompV2RewardDistribution/contracts/BEP20TokenImplementation.sol\":20407:20475  _balances[account].sub(amount, \"BEP20: burn amount exceeds balance\") */\n      swap1\n      0xffffffff\n        /* \"Users/leilei/Downloads/TradingCompV2RewardDistribution/contracts/BEP20TokenImplementation.sol\":20407:20429  _balances[account].sub */\n      tag_102\n        /* \"Users/leilei/Downloads/TradingCompV2RewardDistribution/contracts/BEP20TokenImplementation.sol\":20407:20475  _balances[account].sub(amount, \"BEP20: burn amount exceeds balance\") */\n      and\n      jump\t// in\n    tag_179:\n      sub(shl(0xa0, 0x01), 0x01)\n        /* \"Users/leilei/Downloads/TradingCompV2RewardDistribution/contracts/BEP20TokenImplementation.sol\":20386:20404  _balances[account] */\n      dup4\n      and\n      0x00\n      swap1\n      dup2\n      mstore\n        /* \"Users/leilei/Downloads/TradingCompV2RewardDistribution/contracts/BEP20TokenImplementation.sol\":20386:20395  _balances */\n      0x01\n        /* \"Users/leilei/Downloads/TradingCompV2RewardDistribution/contracts/BEP20TokenImplementation.sol\":20386:20404  _balances[account] */\n      0x20\n      mstore\n      0x40\n      swap1\n      keccak256\n        /* \"Users/leilei/Downloads/TradingCompV2RewardDistribution/contracts/BEP20TokenImplementation.sol\":20386:20475  _balances[account] = _balances[account].sub(amount, \"BEP20: burn amount exceeds balance\") */\n      sstore\n        /* \"Users/leilei/Downloads/TradingCompV2RewardDistribution/contracts/BEP20TokenImplementation.sol\":20500:20512  _totalSupply */\n      sload(0x03)\n        /* \"Users/leilei/Downloads/TradingCompV2RewardDistribution/contracts/BEP20TokenImplementation.sol\":20500:20524  _totalSupply.sub(amount) */\n      tag_180\n      swap1\n        /* \"Users/leilei/Downloads/TradingCompV2RewardDistribution/contracts/BEP20TokenImplementation.sol\":20517:20523  amount */\n      dup3\n        /* \"Users/leilei/Downloads/TradingCompV2RewardDistribution/contracts/BEP20TokenImplementation.sol\":20500:20524  _totalSupply.sub(amount) */\n      0xffffffff\n        /* \"Users/leilei/Downloads/TradingCompV2RewardDistribution/contracts/BEP20TokenImplementation.sol\":20500:20516  _totalSupply.sub */\n      tag_181\n        /* \"Users/leilei/Downloads/TradingCompV2RewardDistribution/contracts/BEP20TokenImplementation.sol\":20500:20524  _totalSupply.sub(amount) */\n      and\n      jump\t// in\n    tag_180:\n        /* \"Users/leilei/Downloads/TradingCompV2RewardDistribution/contracts/BEP20TokenImplementation.sol\":20485:20497  _totalSupply */\n      0x03\n        /* \"Users/leilei/Downloads/TradingCompV2RewardDistribution/contracts/BEP20TokenImplementation.sol\":20485:20524  _totalSupply = _totalSupply.sub(amount) */\n      sstore\n        /* \"Users/leilei/Downloads/TradingCompV2RewardDistribution/contracts/BEP20TokenImplementation.sol\":20539:20576  Transfer(account, address(0), amount) */\n      0x40\n      dup1\n      mload\n      dup3\n      dup2\n      mstore\n      swap1\n      mload\n        /* \"Users/leilei/Downloads/TradingCompV2RewardDistribution/contracts/BEP20TokenImplementation.sol\":20565:20566  0 */\n      0x00\n      swap2\n      sub(shl(0xa0, 0x01), 0x01)\n        /* \"Users/leilei/Downloads/TradingCompV2RewardDistribution/contracts/BEP20TokenImplementation.sol\":20539:20576  Transfer(account, address(0), amount) */\n      dup6\n      and\n      swap2\n      0xddf252ad1be2c89b69c2b068fc378daa952ba7f163c4a11628f55a4df523b3ef\n      swap2\n      dup2\n      swap1\n      sub\n      0x20\n      add\n      swap1\n      log3\n        /* \"Users/leilei/Downloads/TradingCompV2RewardDistribution/contracts/BEP20TokenImplementation.sol\":20241:20583  function _burn(address account, uint256 amount) internal {... */\n      pop\n      pop\n      jump\t// out\n        /* \"Users/leilei/Downloads/TradingCompV2RewardDistribution/contracts/BEP20TokenImplementation.sol\":19620:19922  function _mint(address account, uint256 amount) internal {... */\n    tag_132:\n      sub(shl(0xa0, 0x01), 0x01)\n        /* \"Users/leilei/Downloads/TradingCompV2RewardDistribution/contracts/BEP20TokenImplementation.sol\":19695:19716  account != address(0) */\n      dup3\n      and\n        /* \"Users/leilei/Downloads/TradingCompV2RewardDistribution/contracts/BEP20TokenImplementation.sol\":19687:19752  require(account != address(0), \"BEP20: mint to the zero address\") */\n      tag_183\n      jumpi\n      0x40\n      dup1\n      mload\n      shl(0xe5, 0x461bcd)\n      dup2\n      mstore\n      0x20\n      0x04\n      dup3\n      add\n      mstore\n      0x1f\n      0x24\n      dup3\n      add\n      mstore\n      0x42455032303a206d696e7420746f20746865207a65726f206164647265737300\n      0x44\n      dup3\n      add\n      mstore\n      swap1\n      mload\n      swap1\n      dup2\n      swap1\n      sub\n      0x64\n      add\n      swap1\n      revert\n    tag_183:\n        /* \"Users/leilei/Downloads/TradingCompV2RewardDistribution/contracts/BEP20TokenImplementation.sol\":19778:19790  _totalSupply */\n      sload(0x03)\n        /* \"Users/leilei/Downloads/TradingCompV2RewardDistribution/contracts/BEP20TokenImplementation.sol\":19778:19802  _totalSupply.add(amount) */\n      tag_184\n      swap1\n        /* \"Users/leilei/Downloads/TradingCompV2RewardDistribution/contracts/BEP20TokenImplementation.sol\":19795:19801  amount */\n      dup3\n        /* \"Users/leilei/Downloads/TradingCompV2RewardDistribution/contracts/BEP20TokenImplementation.sol\":19778:19802  _totalSupply.add(amount) */\n      0xffffffff\n        /* \"Users/leilei/Downloads/TradingCompV2RewardDistribution/contracts/BEP20TokenImplementation.sol\":19778:19794  _totalSupply.add */\n      tag_109\n        /* \"Users/leilei/Downloads/TradingCompV2RewardDistribution/contracts/BEP20TokenImplementation.sol\":19778:19802  _totalSupply.add(amount) */\n      and\n      jump\t// in\n    tag_184:\n        /* \"Users/leilei/Downloads/TradingCompV2RewardDistribution/contracts/BEP20TokenImplementation.sol\":19763:19775  _totalSupply */\n      0x03\n        /* \"Users/leilei/Downloads/TradingCompV2RewardDistribution/contracts/BEP20TokenImplementation.sol\":19763:19802  _totalSupply = _totalSupply.add(amount) */\n      sstore\n      sub(shl(0xa0, 0x01), 0x01)\n        /* \"Users/leilei/Downloads/TradingCompV2RewardDistribution/contracts/BEP20TokenImplementation.sol\":19833:19851  _balances[account] */\n      dup3\n      and\n      0x00\n      swap1\n      dup2\n      mstore\n        /* \"Users/leilei/Downloads/TradingCompV2RewardDistribution/contracts/BEP20TokenImplementation.sol\":19833:19842  _balances */\n      0x01\n        /* \"Users/leilei/Downloads/TradingCompV2RewardDistribution/contracts/BEP20TokenImplementation.sol\":19833:19851  _balances[account] */\n      0x20\n      mstore\n      0x40\n      swap1\n      keccak256\n      sload\n        /* \"Users/leilei/Downloads/TradingCompV2RewardDistribution/contracts/BEP20TokenImplementation.sol\":19833:19863  _balances[account].add(amount) */\n      tag_185\n      swap1\n        /* \"Users/leilei/Downloads/TradingCompV2RewardDistribution/contracts/BEP20TokenImplementation.sol\":19856:19862  amount */\n      dup3\n        /* \"Users/leilei/Downloads/TradingCompV2RewardDistribution/contracts/BEP20TokenImplementation.sol\":19833:19863  _balances[account].add(amount) */\n      0xffffffff\n        /* \"Users/leilei/Downloads/TradingCompV2RewardDistribution/contracts/BEP20TokenImplementation.sol\":19833:19855  _balances[account].add */\n      tag_109\n        /* \"Users/leilei/Downloads/TradingCompV2RewardDistribution/contracts/BEP20TokenImplementation.sol\":19833:19863  _balances[account].add(amount) */\n      and\n      jump\t// in\n    tag_185:\n      sub(shl(0xa0, 0x01), 0x01)\n        /* \"Users/leilei/Downloads/TradingCompV2RewardDistribution/contracts/BEP20TokenImplementation.sol\":19812:19830  _balances[account] */\n      dup4\n      and\n      0x00\n      dup2\n      dup2\n      mstore\n        /* \"Users/leilei/Downloads/TradingCompV2RewardDistribution/contracts/BEP20TokenImplementation.sol\":19812:19821  _balances */\n      0x01\n        /* \"Users/leilei/Downloads/TradingCompV2RewardDistribution/contracts/BEP20TokenImplementation.sol\":19812:19830  _balances[account] */\n      0x20\n      swap1\n      dup2\n      mstore\n      0x40\n      dup1\n      dup4\n      keccak256\n        /* \"Users/leilei/Downloads/TradingCompV2RewardDistribution/contracts/BEP20TokenImplementation.sol\":19812:19863  _balances[account] = _balances[account].add(amount) */\n      swap5\n      swap1\n      swap5\n      sstore\n        /* \"Users/leilei/Downloads/TradingCompV2RewardDistribution/contracts/BEP20TokenImplementation.sol\":19878:19915  Transfer(address(0), account, amount) */\n      dup4\n      mload\n      dup6\n      dup2\n      mstore\n      swap4\n      mload\n        /* \"Users/leilei/Downloads/TradingCompV2RewardDistribution/contracts/BEP20TokenImplementation.sol\":19812:19830  _balances[account] */\n      swap3\n      swap4\n      swap2\n      swap3\n        /* \"Users/leilei/Downloads/TradingCompV2RewardDistribution/contracts/BEP20TokenImplementation.sol\":19878:19915  Transfer(address(0), account, amount) */\n      0xddf252ad1be2c89b69c2b068fc378daa952ba7f163c4a11628f55a4df523b3ef\n      swap3\n      dup2\n      swap1\n      sub\n      swap1\n      swap2\n      add\n      swap1\n      log3\n        /* \"Users/leilei/Downloads/TradingCompV2RewardDistribution/contracts/BEP20TokenImplementation.sol\":19620:19922  function _mint(address account, uint256 amount) internal {... */\n      pop\n      pop\n      jump\t// out\n        /* \"Users/leilei/Downloads/TradingCompV2RewardDistribution/contracts/BEP20TokenImplementation.sol\":11062:11655  function _isConstructor() private view returns (bool) {... */\n    tag_145:\n        /* \"Users/leilei/Downloads/TradingCompV2RewardDistribution/contracts/BEP20TokenImplementation.sol\":11498:11502  this */\n      address\n        /* \"Users/leilei/Downloads/TradingCompV2RewardDistribution/contracts/BEP20TokenImplementation.sol\":11606:11623  extcodesize(self) */\n      extcodesize\n        /* \"Users/leilei/Downloads/TradingCompV2RewardDistribution/contracts/BEP20TokenImplementation.sol\":11641:11648  cs == 0 */\n      iszero\n        /* \"Users/leilei/Downloads/TradingCompV2RewardDistribution/contracts/BEP20TokenImplementation.sol\":11062:11655  function _isConstructor() private view returns (bool) {... */\n      swap1\n      jump\t// out\n        /* \"Users/leilei/Downloads/TradingCompV2RewardDistribution/contracts/BEP20TokenImplementation.sol\":5249:5383  function sub(uint256 a, uint256 b) internal pure returns (uint256) {... */\n    tag_181:\n        /* \"Users/leilei/Downloads/TradingCompV2RewardDistribution/contracts/BEP20TokenImplementation.sol\":5307:5314  uint256 */\n      0x00\n        /* \"Users/leilei/Downloads/TradingCompV2RewardDistribution/contracts/BEP20TokenImplementation.sol\":5333:5376  sub(a, b, \"SafeMath: subtraction overflow\") */\n      tag_176\n        /* \"Users/leilei/Downloads/TradingCompV2RewardDistribution/contracts/BEP20TokenImplementation.sol\":5337:5338  a */\n      dup4\n        /* \"Users/leilei/Downloads/TradingCompV2RewardDistribution/contracts/BEP20TokenImplementation.sol\":5340:5341  b */\n      dup4\n        /* \"Users/leilei/Downloads/TradingCompV2RewardDistribution/contracts/BEP20TokenImplementation.sol\":5333:5376  sub(a, b, \"SafeMath: subtraction overflow\") */\n      mload(0x40)\n      dup1\n      0x40\n      add\n      0x40\n      mstore\n      dup1\n      0x1e\n      dup2\n      mstore\n      0x20\n      add\n      0x536166654d6174683a207375627472616374696f6e206f766572666c6f770000\n      dup2\n      mstore\n      pop\n        /* \"Users/leilei/Downloads/TradingCompV2RewardDistribution/contracts/BEP20TokenImplementation.sol\":5333:5336  sub */\n      tag_102\n        /* \"Users/leilei/Downloads/TradingCompV2RewardDistribution/contracts/BEP20TokenImplementation.sol\":5333:5376  sub(a, b, \"SafeMath: subtraction overflow\") */\n      jump\t// in\n    tag_151:\n      dup3\n      dup1\n      sload\n      0x01\n      dup2\n      0x01\n      and\n      iszero\n      0x0100\n      mul\n      sub\n      and\n      0x02\n      swap1\n      div\n      swap1\n      0x00\n      mstore\n      keccak256(0x00, 0x20)\n      swap1\n      0x1f\n      add\n      0x20\n      swap1\n      div\n      dup2\n      add\n      swap3\n      dup3\n      0x1f\n      lt\n      tag_190\n      jumpi\n      dup1\n      mload\n      not(0xff)\n      and\n      dup4\n      dup1\n      add\n      or\n      dup6\n      sstore\n      jump(tag_192)\n    tag_190:\n      dup3\n      dup1\n      add\n      0x01\n      add\n      dup6\n      sstore\n      dup3\n      iszero\n      tag_192\n      jumpi\n      swap2\n      dup3\n      add\n    tag_191:\n      dup3\n      dup2\n      gt\n      iszero\n      tag_192\n      jumpi\n      dup3\n      mload\n      dup3\n      sstore\n      swap2\n      0x20\n      add\n      swap2\n      swap1\n      0x01\n      add\n      swap1\n      jump(tag_191)\n    tag_192:\n      pop\n      tag_193\n      swap3\n      swap2\n      pop\n      tag_194\n      jump\t// in\n    tag_193:\n      pop\n      swap1\n      jump\t// out\n    tag_194:\n      tag_85\n      swap2\n      swap1\n    tag_196:\n      dup1\n      dup3\n      gt\n      iszero\n      tag_193\n      jumpi\n      0x00\n      dup2\n      sstore\n      0x01\n      add\n      jump(tag_196)\n    stop\n    data_0d26cf302d50b28de74be656b11d67092b32131e5712d1bcf08c4e976dacda57 42455032303a207472616e736665722066726f6d20746865207a65726f2061646472657373\n    data_1441cfbef485de93bedecc35b3d10fa2992db382c4c9c583a6e423a140abe4a4 42455032303a20617070726f76652066726f6d20746865207a65726f2061646472657373\n    data_245f15ff17f551913a7a18385165551503906a406f905ac1c2437281a7cd0cfe 4f776e61626c653a206e6577206f776e657220697320746865207a65726f2061646472657373\n    data_4f3506f4ba71c79c3cbd442a3afeb30e9b27af2d84e116a4385b34e267d2287e 42455032303a207472616e7366657220616d6f756e74206578636565647320616c6c6f77616e6365\n    data_7a2a4e26842155ea933fe6eb6e3137eb5a296dcdf55721c552be7b4c3cc23759 496e697469616c697a61626c653a20636f6e747261637420697320616c726561647920696e697469616c697a6564\n    data_a91efd7a65ef5b4ae4d6568d674798b78a5a89184dd296c100513251c22d3e73 42455032303a207472616e7366657220616d6f756e7420657863656564732062616c616e6365\n    data_ade9efcb59e42e439ffe61509b352b1af56d64ccb68d80b039b7b69578f371d2 42455032303a207472616e7366657220746f20746865207a65726f2061646472657373\n    data_b7060b3538dcd3ddc8a941c91636a8115a1aa46914747fd9809d543bbb46cd22 42455032303a2064656372656173656420616c6c6f77616e63652062656c6f77207a65726f\n    data_b81edbf10508d9b81724f18ff8f3d8bfba9790734ce1f1c54dfe1030b4914855 42455032303a206275726e2066726f6d20746865207a65726f2061646472657373\n    data_deaa84b30175fd0578812c46240362b7914652a35e6707ad7e1556891e4ae032 42455032303a206275726e20616d6f756e7420657863656564732062616c616e6365\n    data_f10e7571e18b354270dee950932fb6a745efc79414b2b2556185a4ed6a1af0d5 42455032303a20617070726f766520746f20746865207a65726f2061646472657373\n\n    auxdata: 0xa2646970667358221220b533bbd1a5692e5441948b1b725074be1c97f71eef126c041ea84e9ab05bb8c164736f6c637827302e362e392d6e696768746c792e323032302e352e32382b636f6d6d69742e65653833303763650058\n}\n",
				"bytecode": {
					"linkReferences": {},
					"object": "608060405234801561001057600080fd5b506113ef806100206000396000f3fe608060405234801561001057600080fd5b50600436106101165760003560e01c8063715018a6116100a2578063a457c2d711610071578063a457c2d714610310578063a9059cbb1461033c578063dd62ed3e14610368578063ef3ebcb814610396578063f2fde38b146104e257610116565b8063715018a6146102bd578063893d20e8146102c757806395d89b41146102eb578063a0712d68146102f357610116565b8063313ce567116100e9578063313ce56714610228578063395093511461024657806342966c68146102725780634bf365df1461028f57806370a082311461029757610116565b806306fdde031461011b578063095ea7b31461019857806318160ddd146101d857806323b872dd146101f2575b600080fd5b610123610508565b6040805160208082528351818301528351919283929083019185019080838360005b8381101561015d578181015183820152602001610145565b50505050905090810190601f16801561018a5780820380516001836020036101000a031916815260200191505b509250505060405180910390f35b6101c4600480360360408110156101ae57600080fd5b506001600160a01b03813516906020013561059f565b604080519115158252519081900360200190f35b6101e06105bc565b60408051918252519081900360200190f35b6101c46004803603606081101561020857600080fd5b506001600160a01b038135811691602081013590911690604001356105c2565b61023061064f565b6040805160ff9092168252519081900360200190f35b6101c46004803603604081101561025c57600080fd5b506001600160a01b038135169060200135610658565b6101c46004803603602081101561028857600080fd5b50356106ac565b6101c46106c7565b6101e0600480360360208110156102ad57600080fd5b50356001600160a01b03166106d7565b6102c56106f2565b005b6102cf6107b1565b604080516001600160a01b039092168252519081900360200190f35b6101236107c5565b6101c46004803603602081101561030957600080fd5b5035610826565b6101c46004803603604081101561032657600080fd5b506001600160a01b038135169060200135610906565b6101c46004803603604081101561035257600080fd5b506001600160a01b038135169060200135610974565b6101e06004803603604081101561037e57600080fd5b506001600160a01b0381358116916020013516610988565b6102c5600480360360c08110156103ac57600080fd5b8101906020810181356401000000008111156103c757600080fd5b8201836020820111156103d957600080fd5b803590602001918460018302840111640100000000831117156103fb57600080fd5b91908080601f016020809104026020016040519081016040528093929190818152602001838380828437600092019190915250929594936020810193503591505064010000000081111561044e57600080fd5b82018360208201111561046057600080fd5b8035906020019184600183028401116401000000008311171561048257600080fd5b91908080601f0160208091040260200160405190810160405280939291908181526020018383808284376000920191909152509295505050813560ff169250506020810135906040810135151590606001356001600160a01b03166109b3565b6102c5600480360360208110156104f857600080fd5b50356001600160a01b0316610acd565b60048054604080516020601f60026000196101006001881615020190951694909404938401819004810282018101909252828152606093909290918301828280156105945780601f1061056957610100808354040283529160200191610594565b820191906000526020600020905b81548152906001019060200180831161057757829003601f168201915b505050505090505b90565b60006105b36105ac610be8565b8484610bec565b50600192915050565b60035490565b60006105cf848484610cd8565b610645846105db610be8565b6106408560405180606001604052806028815260200161126c602891396001600160a01b038a16600090815260026020526040812090610619610be8565b6001600160a01b03168152602081019190915260400160002054919063ffffffff610e3616565b610bec565b5060019392505050565b60065460ff1690565b60006105b3610665610be8565b846106408560026000610676610be8565b6001600160a01b03908116825260208083019390935260409182016000908120918c16815292529020549063ffffffff610ecd16565b60006106bf6106b9610be8565b83610f2e565b506001919050565b600654600160a81b900460ff1690565b6001600160a01b031660009081526001602052604090205490565b6106fa610be8565b60065461010090046001600160a01b03908116911614610761576040805162461bcd60e51b815260206004820181905260248201527f4f776e61626c653a2063616c6c6572206973206e6f7420746865206f776e6572604482015290519081900360640190fd5b60065460405160009161010090046001600160a01b0316907f8be0079c531659141344cd1fd0a4f28419497f9722a3daafe3b4186f6b6457e0908390a360068054610100600160a81b0319169055565b60065461010090046001600160a01b031690565b60058054604080516020601f60026000196101006001881615020190951694909404938401819004810282018101909252828152606093909290918301828280156105945780601f1061056957610100808354040283529160200191610594565b6000610830610be8565b60065461010090046001600160a01b03908116911614610897576040805162461bcd60e51b815260206004820181905260248201527f4f776e61626c653a2063616c6c6572206973206e6f7420746865206f776e6572604482015290519081900360640190fd5b600654600160a81b900460ff166108f5576040805162461bcd60e51b815260206004820152601a60248201527f7468697320746f6b656e206973206e6f74206d696e7461626c65000000000000604482015290519081900360640190fd5b6106bf610900610be8565b8361102a565b60006105b3610913610be8565b846106408560405180606001604052806025815260200161130b602591396002600061093d610be8565b6001600160a01b03908116825260208083019390935260409182016000908120918d1681529252902054919063ffffffff610e3616565b60006105b3610981610be8565b8484610cd8565b6001600160a01b03918216600090815260026020908152604080832093909416825291909152205490565b600054610100900460ff16806109cc57506109cc61111c565b806109da575060005460ff16155b610a155760405162461bcd60e51b815260040180806020018281038252602e815260200180611294602e913960400191505060405180910390fd5b600054610100900460ff16158015610a40576000805460ff1961ff0019909116610100171660011790555b60068054610100600160a81b0319166101006001600160a01b038516021790558651610a739060049060208a0190611164565b508551610a87906005906020890190611164565b506006805460ff191660ff87161760ff60a81b1916600160a81b85151502179055610ab2828561102a565b8015610ac4576000805461ff00191690555b50505050505050565b610ad5610be8565b60065461010090046001600160a01b03908116911614610b3c576040805162461bcd60e51b815260206004820181905260248201527f4f776e61626c653a2063616c6c6572206973206e6f7420746865206f776e6572604482015290519081900360640190fd5b6001600160a01b038116610b815760405162461bcd60e51b81526004018080602001828103825260268152602001806112466026913960400191505060405180910390fd5b6006546040516001600160a01b0380841692610100900416907f8be0079c531659141344cd1fd0a4f28419497f9722a3daafe3b4186f6b6457e090600090a3600680546001600160a01b0390921661010002610100600160a81b0319909216919091179055565b3390565b6001600160a01b038316610c315760405162461bcd60e51b81526004018080602001828103825260248152602001806112226024913960400191505060405180910390fd5b6001600160a01b038216610c765760405162461bcd60e51b81526004018080602001828103825260228152602001806113736022913960400191505060405180910390fd5b6001600160a01b03808416600081815260026020908152604080832094871680845294825291829020859055815185815291517f8c5be1e5ebec7d5bd14f71427d1e84f3dd0314c0f7b2291e5b200ac8c7c3b9259281900390910190a3505050565b6001600160a01b038316610d1d5760405162461bcd60e51b81526004018080602001828103825260258152602001806111fd6025913960400191505060405180910390fd5b6001600160a01b038216610d625760405162461bcd60e51b81526004018080602001828103825260238152602001806112e86023913960400191505060405180910390fd5b610da5816040518060600160405280602681526020016112c2602691396001600160a01b038616600090815260016020526040902054919063ffffffff610e3616565b6001600160a01b038085166000908152600160205260408082209390935590841681522054610dda908263ffffffff610ecd16565b6001600160a01b0380841660008181526001602090815260409182902094909455805185815290519193928716927fddf252ad1be2c89b69c2b068fc378daa952ba7f163c4a11628f55a4df523b3ef92918290030190a3505050565b60008184841115610ec55760405162461bcd60e51b81526004018080602001828103825283818151815260200191508051906020019080838360005b83811015610e8a578181015183820152602001610e72565b50505050905090810190601f168015610eb75780820380516001836020036101000a031916815260200191505b509250505060405180910390fd5b505050900390565b600082820183811015610f27576040805162461bcd60e51b815260206004820152601b60248201527f536166654d6174683a206164646974696f6e206f766572666c6f770000000000604482015290519081900360640190fd5b9392505050565b6001600160a01b038216610f735760405162461bcd60e51b81526004018080602001828103825260218152602001806113306021913960400191505060405180910390fd5b610fb681604051806060016040528060228152602001611351602291396001600160a01b038516600090815260016020526040902054919063ffffffff610e3616565b6001600160a01b038316600090815260016020526040902055600354610fe2908263ffffffff61112216565b6003556040805182815290516000916001600160a01b038516917fddf252ad1be2c89b69c2b068fc378daa952ba7f163c4a11628f55a4df523b3ef9181900360200190a35050565b6001600160a01b038216611085576040805162461bcd60e51b815260206004820152601f60248201527f42455032303a206d696e7420746f20746865207a65726f206164647265737300604482015290519081900360640190fd5b600354611098908263ffffffff610ecd16565b6003556001600160a01b0382166000908152600160205260409020546110c4908263ffffffff610ecd16565b6001600160a01b03831660008181526001602090815260408083209490945583518581529351929391927fddf252ad1be2c89b69c2b068fc378daa952ba7f163c4a11628f55a4df523b3ef9281900390910190a35050565b303b1590565b6000610f2783836040518060400160405280601e81526020017f536166654d6174683a207375627472616374696f6e206f766572666c6f770000815250610e36565b828054600181600116156101000203166002900490600052602060002090601f016020900481019282601f106111a557805160ff19168380011785556111d2565b828001600101855582156111d2579182015b828111156111d25782518255916020019190600101906111b7565b506111de9291506111e2565b5090565b61059c91905b808211156111de57600081556001016111e856fe42455032303a207472616e736665722066726f6d20746865207a65726f206164647265737342455032303a20617070726f76652066726f6d20746865207a65726f20616464726573734f776e61626c653a206e6577206f776e657220697320746865207a65726f206164647265737342455032303a207472616e7366657220616d6f756e74206578636565647320616c6c6f77616e6365496e697469616c697a61626c653a20636f6e747261637420697320616c726561647920696e697469616c697a656442455032303a207472616e7366657220616d6f756e7420657863656564732062616c616e636542455032303a207472616e7366657220746f20746865207a65726f206164647265737342455032303a2064656372656173656420616c6c6f77616e63652062656c6f77207a65726f42455032303a206275726e2066726f6d20746865207a65726f206164647265737342455032303a206275726e20616d6f756e7420657863656564732062616c616e636542455032303a20617070726f766520746f20746865207a65726f2061646472657373a2646970667358221220b533bbd1a5692e5441948b1b725074be1c97f71eef126c041ea84e9ab05bb8c164736f6c637827302e362e392d6e696768746c792e323032302e352e32382b636f6d6d69742e65653833303763650058",
					"opcodes": "PUSH1 0x80 PUSH1 0x40 MSTORE CALLVALUE DUP1 ISZERO PUSH2 0x10 JUMPI PUSH1 0x0 DUP1 REVERT JUMPDEST POP PUSH2 0x13EF DUP1 PUSH2 0x20 PUSH1 0x0 CODECOPY PUSH1 0x0 RETURN INVALID PUSH1 0x80 PUSH1 0x40 MSTORE CALLVALUE DUP1 ISZERO PUSH2 0x10 JUMPI PUSH1 0x0 DUP1 REVERT JUMPDEST POP PUSH1 0x4 CALLDATASIZE LT PUSH2 0x116 JUMPI PUSH1 0x0 CALLDATALOAD PUSH1 0xE0 SHR DUP1 PUSH4 0x715018A6 GT PUSH2 0xA2 JUMPI DUP1 PUSH4 0xA457C2D7 GT PUSH2 0x71 JUMPI DUP1 PUSH4 0xA457C2D7 EQ PUSH2 0x310 JUMPI DUP1 PUSH4 0xA9059CBB EQ PUSH2 0x33C JUMPI DUP1 PUSH4 0xDD62ED3E EQ PUSH2 0x368 JUMPI DUP1 PUSH4 0xEF3EBCB8 EQ PUSH2 0x396 JUMPI DUP1 PUSH4 0xF2FDE38B EQ PUSH2 0x4E2 JUMPI PUSH2 0x116 JUMP JUMPDEST DUP1 PUSH4 0x715018A6 EQ PUSH2 0x2BD JUMPI DUP1 PUSH4 0x893D20E8 EQ PUSH2 0x2C7 JUMPI DUP1 PUSH4 0x95D89B41 EQ PUSH2 0x2EB JUMPI DUP1 PUSH4 0xA0712D68 EQ PUSH2 0x2F3 JUMPI PUSH2 0x116 JUMP JUMPDEST DUP1 PUSH4 0x313CE567 GT PUSH2 0xE9 JUMPI DUP1 PUSH4 0x313CE567 EQ PUSH2 0x228 JUMPI DUP1 PUSH4 0x39509351 EQ PUSH2 0x246 JUMPI DUP1 PUSH4 0x42966C68 EQ PUSH2 0x272 JUMPI DUP1 PUSH4 0x4BF365DF EQ PUSH2 0x28F JUMPI DUP1 PUSH4 0x70A08231 EQ PUSH2 0x297 JUMPI PUSH2 0x116 JUMP JUMPDEST DUP1 PUSH4 0x6FDDE03 EQ PUSH2 0x11B JUMPI DUP1 PUSH4 0x95EA7B3 EQ PUSH2 0x198 JUMPI DUP1 PUSH4 0x18160DDD EQ PUSH2 0x1D8 JUMPI DUP1 PUSH4 0x23B872DD EQ PUSH2 0x1F2 JUMPI JUMPDEST PUSH1 0x0 DUP1 REVERT JUMPDEST PUSH2 0x123 PUSH2 0x508 JUMP JUMPDEST PUSH1 0x40 DUP1 MLOAD PUSH1 0x20 DUP1 DUP3 MSTORE DUP4 MLOAD DUP2 DUP4 ADD MSTORE DUP4 MLOAD SWAP2 SWAP3 DUP4 SWAP3 SWAP1 DUP4 ADD SWAP2 DUP6 ADD SWAP1 DUP1 DUP4 DUP4 PUSH1 0x0 JUMPDEST DUP4 DUP2 LT ISZERO PUSH2 0x15D JUMPI DUP2 DUP2 ADD MLOAD DUP4 DUP3 ADD MSTORE PUSH1 0x20 ADD PUSH2 0x145 JUMP JUMPDEST POP POP POP POP SWAP1 POP SWAP1 DUP2 ADD SWAP1 PUSH1 0x1F AND DUP1 ISZERO PUSH2 0x18A JUMPI DUP1 DUP3 SUB DUP1 MLOAD PUSH1 0x1 DUP4 PUSH1 0x20 SUB PUSH2 0x100 EXP SUB NOT AND DUP2 MSTORE PUSH1 0x20 ADD SWAP2 POP JUMPDEST POP SWAP3 POP POP POP PUSH1 0x40 MLOAD DUP1 SWAP2 SUB SWAP1 RETURN JUMPDEST PUSH2 0x1C4 PUSH1 0x4 DUP1 CALLDATASIZE SUB PUSH1 0x40 DUP2 LT ISZERO PUSH2 0x1AE JUMPI PUSH1 0x0 DUP1 REVERT JUMPDEST POP PUSH1 0x1 PUSH1 0x1 PUSH1 0xA0 SHL SUB DUP2 CALLDATALOAD AND SWAP1 PUSH1 0x20 ADD CALLDATALOAD PUSH2 0x59F JUMP JUMPDEST PUSH1 0x40 DUP1 MLOAD SWAP2 ISZERO ISZERO DUP3 MSTORE MLOAD SWAP1 DUP2 SWAP1 SUB PUSH1 0x20 ADD SWAP1 RETURN JUMPDEST PUSH2 0x1E0 PUSH2 0x5BC JUMP JUMPDEST PUSH1 0x40 DUP1 MLOAD SWAP2 DUP3 MSTORE MLOAD SWAP1 DUP2 SWAP1 SUB PUSH1 0x20 ADD SWAP1 RETURN JUMPDEST PUSH2 0x1C4 PUSH1 0x4 DUP1 CALLDATASIZE SUB PUSH1 0x60 DUP2 LT ISZERO PUSH2 0x208 JUMPI PUSH1 0x0 DUP1 REVERT JUMPDEST POP PUSH1 0x1 PUSH1 0x1 PUSH1 0xA0 SHL SUB DUP2 CALLDATALOAD DUP2 AND SWAP2 PUSH1 0x20 DUP2 ADD CALLDATALOAD SWAP1 SWAP2 AND SWAP1 PUSH1 0x40 ADD CALLDATALOAD PUSH2 0x5C2 JUMP JUMPDEST PUSH2 0x230 PUSH2 0x64F JUMP JUMPDEST PUSH1 0x40 DUP1 MLOAD PUSH1 0xFF SWAP1 SWAP3 AND DUP3 MSTORE MLOAD SWAP1 DUP2 SWAP1 SUB PUSH1 0x20 ADD SWAP1 RETURN JUMPDEST PUSH2 0x1C4 PUSH1 0x4 DUP1 CALLDATASIZE SUB PUSH1 0x40 DUP2 LT ISZERO PUSH2 0x25C JUMPI PUSH1 0x0 DUP1 REVERT JUMPDEST POP PUSH1 0x1 PUSH1 0x1 PUSH1 0xA0 SHL SUB DUP2 CALLDATALOAD AND SWAP1 PUSH1 0x20 ADD CALLDATALOAD PUSH2 0x658 JUMP JUMPDEST PUSH2 0x1C4 PUSH1 0x4 DUP1 CALLDATASIZE SUB PUSH1 0x20 DUP2 LT ISZERO PUSH2 0x288 JUMPI PUSH1 0x0 DUP1 REVERT JUMPDEST POP CALLDATALOAD PUSH2 0x6AC JUMP JUMPDEST PUSH2 0x1C4 PUSH2 0x6C7 JUMP JUMPDEST PUSH2 0x1E0 PUSH1 0x4 DUP1 CALLDATASIZE SUB PUSH1 0x20 DUP2 LT ISZERO PUSH2 0x2AD JUMPI PUSH1 0x0 DUP1 REVERT JUMPDEST POP CALLDATALOAD PUSH1 0x1 PUSH1 0x1 PUSH1 0xA0 SHL SUB AND PUSH2 0x6D7 JUMP JUMPDEST PUSH2 0x2C5 PUSH2 0x6F2 JUMP JUMPDEST STOP JUMPDEST PUSH2 0x2CF PUSH2 0x7B1 JUMP JUMPDEST PUSH1 0x40 DUP1 MLOAD PUSH1 0x1 PUSH1 0x1 PUSH1 0xA0 SHL SUB SWAP1 SWAP3 AND DUP3 MSTORE MLOAD SWAP1 DUP2 SWAP1 SUB PUSH1 0x20 ADD SWAP1 RETURN JUMPDEST PUSH2 0x123 PUSH2 0x7C5 JUMP JUMPDEST PUSH2 0x1C4 PUSH1 0x4 DUP1 CALLDATASIZE SUB PUSH1 0x20 DUP2 LT ISZERO PUSH2 0x309 JUMPI PUSH1 0x0 DUP1 REVERT JUMPDEST POP CALLDATALOAD PUSH2 0x826 JUMP JUMPDEST PUSH2 0x1C4 PUSH1 0x4 DUP1 CALLDATASIZE SUB PUSH1 0x40 DUP2 LT ISZERO PUSH2 0x326 JUMPI PUSH1 0x0 DUP1 REVERT JUMPDEST POP PUSH1 0x1 PUSH1 0x1 PUSH1 0xA0 SHL SUB DUP2 CALLDATALOAD AND SWAP1 PUSH1 0x20 ADD CALLDATALOAD PUSH2 0x906 JUMP JUMPDEST PUSH2 0x1C4 PUSH1 0x4 DUP1 CALLDATASIZE SUB PUSH1 0x40 DUP2 LT ISZERO PUSH2 0x352 JUMPI PUSH1 0x0 DUP1 REVERT JUMPDEST POP PUSH1 0x1 PUSH1 0x1 PUSH1 0xA0 SHL SUB DUP2 CALLDATALOAD AND SWAP1 PUSH1 0x20 ADD CALLDATALOAD PUSH2 0x974 JUMP JUMPDEST PUSH2 0x1E0 PUSH1 0x4 DUP1 CALLDATASIZE SUB PUSH1 0x40 DUP2 LT ISZERO PUSH2 0x37E JUMPI PUSH1 0x0 DUP1 REVERT JUMPDEST POP PUSH1 0x1 PUSH1 0x1 PUSH1 0xA0 SHL SUB DUP2 CALLDATALOAD DUP2 AND SWAP2 PUSH1 0x20 ADD CALLDATALOAD AND PUSH2 0x988 JUMP JUMPDEST PUSH2 0x2C5 PUSH1 0x4 DUP1 CALLDATASIZE SUB PUSH1 0xC0 DUP2 LT ISZERO PUSH2 0x3AC JUMPI PUSH1 0x0 DUP1 REVERT JUMPDEST DUP2 ADD SWAP1 PUSH1 0x20 DUP2 ADD DUP2 CALLDATALOAD PUSH5 0x100000000 DUP2 GT ISZERO PUSH2 0x3C7 JUMPI PUSH1 0x0 DUP1 REVERT JUMPDEST DUP3 ADD DUP4 PUSH1 0x20 DUP3 ADD GT ISZERO PUSH2 0x3D9 JUMPI PUSH1 0x0 DUP1 REVERT JUMPDEST DUP1 CALLDATALOAD SWAP1 PUSH1 0x20 ADD SWAP2 DUP5 PUSH1 0x1 DUP4 MUL DUP5 ADD GT PUSH5 0x100000000 DUP4 GT OR ISZERO PUSH2 0x3FB JUMPI PUSH1 0x0 DUP1 REVERT JUMPDEST SWAP2 SWAP1 DUP1 DUP1 PUSH1 0x1F ADD PUSH1 0x20 DUP1 SWAP2 DIV MUL PUSH1 0x20 ADD PUSH1 0x40 MLOAD SWAP1 DUP2 ADD PUSH1 0x40 MSTORE DUP1 SWAP4 SWAP3 SWAP2 SWAP1 DUP2 DUP2 MSTORE PUSH1 0x20 ADD DUP4 DUP4 DUP1 DUP3 DUP5 CALLDATACOPY PUSH1 0x0 SWAP3 ADD SWAP2 SWAP1 SWAP2 MSTORE POP SWAP3 SWAP6 SWAP5 SWAP4 PUSH1 0x20 DUP2 ADD SWAP4 POP CALLDATALOAD SWAP2 POP POP PUSH5 0x100000000 DUP2 GT ISZERO PUSH2 0x44E JUMPI PUSH1 0x0 DUP1 REVERT JUMPDEST DUP3 ADD DUP4 PUSH1 0x20 DUP3 ADD GT ISZERO PUSH2 0x460 JUMPI PUSH1 0x0 DUP1 REVERT JUMPDEST DUP1 CALLDATALOAD SWAP1 PUSH1 0x20 ADD SWAP2 DUP5 PUSH1 0x1 DUP4 MUL DUP5 ADD GT PUSH5 0x100000000 DUP4 GT OR ISZERO PUSH2 0x482 JUMPI PUSH1 0x0 DUP1 REVERT JUMPDEST SWAP2 SWAP1 DUP1 DUP1 PUSH1 0x1F ADD PUSH1 0x20 DUP1 SWAP2 DIV MUL PUSH1 0x20 ADD PUSH1 0x40 MLOAD SWAP1 DUP2 ADD PUSH1 0x40 MSTORE DUP1 SWAP4 SWAP3 SWAP2 SWAP1 DUP2 DUP2 MSTORE PUSH1 0x20 ADD DUP4 DUP4 DUP1 DUP3 DUP5 CALLDATACOPY PUSH1 0x0 SWAP3 ADD SWAP2 SWAP1 SWAP2 MSTORE POP SWAP3 SWAP6 POP POP POP DUP2 CALLDATALOAD PUSH1 0xFF AND SWAP3 POP POP PUSH1 0x20 DUP2 ADD CALLDATALOAD SWAP1 PUSH1 0x40 DUP2 ADD CALLDATALOAD ISZERO ISZERO SWAP1 PUSH1 0x60 ADD CALLDATALOAD PUSH1 0x1 PUSH1 0x1 PUSH1 0xA0 SHL SUB AND PUSH2 0x9B3 JUMP JUMPDEST PUSH2 0x2C5 PUSH1 0x4 DUP1 CALLDATASIZE SUB PUSH1 0x20 DUP2 LT ISZERO PUSH2 0x4F8 JUMPI PUSH1 0x0 DUP1 REVERT JUMPDEST POP CALLDATALOAD PUSH1 0x1 PUSH1 0x1 PUSH1 0xA0 SHL SUB AND PUSH2 0xACD JUMP JUMPDEST PUSH1 0x4 DUP1 SLOAD PUSH1 0x40 DUP1 MLOAD PUSH1 0x20 PUSH1 0x1F PUSH1 0x2 PUSH1 0x0 NOT PUSH2 0x100 PUSH1 0x1 DUP9 AND ISZERO MUL ADD SWAP1 SWAP6 AND SWAP5 SWAP1 SWAP5 DIV SWAP4 DUP5 ADD DUP2 SWAP1 DIV DUP2 MUL DUP3 ADD DUP2 ADD SWAP1 SWAP3 MSTORE DUP3 DUP2 MSTORE PUSH1 0x60 SWAP4 SWAP1 SWAP3 SWAP1 SWAP2 DUP4 ADD DUP3 DUP3 DUP1 ISZERO PUSH2 0x594 JUMPI DUP1 PUSH1 0x1F LT PUSH2 0x569 JUMPI PUSH2 0x100 DUP1 DUP4 SLOAD DIV MUL DUP4 MSTORE SWAP2 PUSH1 0x20 ADD SWAP2 PUSH2 0x594 JUMP JUMPDEST DUP3 ADD SWAP2 SWAP1 PUSH1 0x0 MSTORE PUSH1 0x20 PUSH1 0x0 KECCAK256 SWAP1 JUMPDEST DUP2 SLOAD DUP2 MSTORE SWAP1 PUSH1 0x1 ADD SWAP1 PUSH1 0x20 ADD DUP1 DUP4 GT PUSH2 0x577 JUMPI DUP3 SWAP1 SUB PUSH1 0x1F AND DUP3 ADD SWAP2 JUMPDEST POP POP POP POP POP SWAP1 POP JUMPDEST SWAP1 JUMP JUMPDEST PUSH1 0x0 PUSH2 0x5B3 PUSH2 0x5AC PUSH2 0xBE8 JUMP JUMPDEST DUP5 DUP5 PUSH2 0xBEC JUMP JUMPDEST POP PUSH1 0x1 SWAP3 SWAP2 POP POP JUMP JUMPDEST PUSH1 0x3 SLOAD SWAP1 JUMP JUMPDEST PUSH1 0x0 PUSH2 0x5CF DUP5 DUP5 DUP5 PUSH2 0xCD8 JUMP JUMPDEST PUSH2 0x645 DUP5 PUSH2 0x5DB PUSH2 0xBE8 JUMP JUMPDEST PUSH2 0x640 DUP6 PUSH1 0x40 MLOAD DUP1 PUSH1 0x60 ADD PUSH1 0x40 MSTORE DUP1 PUSH1 0x28 DUP2 MSTORE PUSH1 0x20 ADD PUSH2 0x126C PUSH1 0x28 SWAP2 CODECOPY PUSH1 0x1 PUSH1 0x1 PUSH1 0xA0 SHL SUB DUP11 AND PUSH1 0x0 SWAP1 DUP2 MSTORE PUSH1 0x2 PUSH1 0x20 MSTORE PUSH1 0x40 DUP2 KECCAK256 SWAP1 PUSH2 0x619 PUSH2 0xBE8 JUMP JUMPDEST PUSH1 0x1 PUSH1 0x1 PUSH1 0xA0 SHL SUB AND DUP2 MSTORE PUSH1 0x20 DUP2 ADD SWAP2 SWAP1 SWAP2 MSTORE PUSH1 0x40 ADD PUSH1 0x0 KECCAK256 SLOAD SWAP2 SWAP1 PUSH4 0xFFFFFFFF PUSH2 0xE36 AND JUMP JUMPDEST PUSH2 0xBEC JUMP JUMPDEST POP PUSH1 0x1 SWAP4 SWAP3 POP POP POP JUMP JUMPDEST PUSH1 0x6 SLOAD PUSH1 0xFF AND SWAP1 JUMP JUMPDEST PUSH1 0x0 PUSH2 0x5B3 PUSH2 0x665 PUSH2 0xBE8 JUMP JUMPDEST DUP5 PUSH2 0x640 DUP6 PUSH1 0x2 PUSH1 0x0 PUSH2 0x676 PUSH2 0xBE8 JUMP JUMPDEST PUSH1 0x1 PUSH1 0x1 PUSH1 0xA0 SHL SUB SWAP1 DUP2 AND DUP3 MSTORE PUSH1 0x20 DUP1 DUP4 ADD SWAP4 SWAP1 SWAP4 MSTORE PUSH1 0x40 SWAP2 DUP3 ADD PUSH1 0x0 SWAP1 DUP2 KECCAK256 SWAP2 DUP13 AND DUP2 MSTORE SWAP3 MSTORE SWAP1 KECCAK256 SLOAD SWAP1 PUSH4 0xFFFFFFFF PUSH2 0xECD AND JUMP JUMPDEST PUSH1 0x0 PUSH2 0x6BF PUSH2 0x6B9 PUSH2 0xBE8 JUMP JUMPDEST DUP4 PUSH2 0xF2E JUMP JUMPDEST POP PUSH1 0x1 SWAP2 SWAP1 POP JUMP JUMPDEST PUSH1 0x6 SLOAD PUSH1 0x1 PUSH1 0xA8 SHL SWAP1 DIV PUSH1 0xFF AND SWAP1 JUMP JUMPDEST PUSH1 0x1 PUSH1 0x1 PUSH1 0xA0 SHL SUB AND PUSH1 0x0 SWAP1 DUP2 MSTORE PUSH1 0x1 PUSH1 0x20 MSTORE PUSH1 0x40 SWAP1 KECCAK256 SLOAD SWAP1 JUMP JUMPDEST PUSH2 0x6FA PUSH2 0xBE8 JUMP JUMPDEST PUSH1 0x6 SLOAD PUSH2 0x100 SWAP1 DIV PUSH1 0x1 PUSH1 0x1 PUSH1 0xA0 SHL SUB SWAP1 DUP2 AND SWAP2 AND EQ PUSH2 0x761 JUMPI PUSH1 0x40 DUP1 MLOAD PUSH3 0x461BCD PUSH1 0xE5 SHL DUP2 MSTORE PUSH1 0x20 PUSH1 0x4 DUP3 ADD DUP2 SWAP1 MSTORE PUSH1 0x24 DUP3 ADD MSTORE PUSH32 0x4F776E61626C653A2063616C6C6572206973206E6F7420746865206F776E6572 PUSH1 0x44 DUP3 ADD MSTORE SWAP1 MLOAD SWAP1 DUP2 SWAP1 SUB PUSH1 0x64 ADD SWAP1 REVERT JUMPDEST PUSH1 0x6 SLOAD PUSH1 0x40 MLOAD PUSH1 0x0 SWAP2 PUSH2 0x100 SWAP1 DIV PUSH1 0x1 PUSH1 0x1 PUSH1 0xA0 SHL SUB AND SWAP1 PUSH32 0x8BE0079C531659141344CD1FD0A4F28419497F9722A3DAAFE3B4186F6B6457E0 SWAP1 DUP4 SWAP1 LOG3 PUSH1 0x6 DUP1 SLOAD PUSH2 0x100 PUSH1 0x1 PUSH1 0xA8 SHL SUB NOT AND SWAP1 SSTORE JUMP JUMPDEST PUSH1 0x6 SLOAD PUSH2 0x100 SWAP1 DIV PUSH1 0x1 PUSH1 0x1 PUSH1 0xA0 SHL SUB AND SWAP1 JUMP JUMPDEST PUSH1 0x5 DUP1 SLOAD PUSH1 0x40 DUP1 MLOAD PUSH1 0x20 PUSH1 0x1F PUSH1 0x2 PUSH1 0x0 NOT PUSH2 0x100 PUSH1 0x1 DUP9 AND ISZERO MUL ADD SWAP1 SWAP6 AND SWAP5 SWAP1 SWAP5 DIV SWAP4 DUP5 ADD DUP2 SWAP1 DIV DUP2 MUL DUP3 ADD DUP2 ADD SWAP1 SWAP3 MSTORE DUP3 DUP2 MSTORE PUSH1 0x60 SWAP4 SWAP1 SWAP3 SWAP1 SWAP2 DUP4 ADD DUP3 DUP3 DUP1 ISZERO PUSH2 0x594 JUMPI DUP1 PUSH1 0x1F LT PUSH2 0x569 JUMPI PUSH2 0x100 DUP1 DUP4 SLOAD DIV MUL DUP4 MSTORE SWAP2 PUSH1 0x20 ADD SWAP2 PUSH2 0x594 JUMP JUMPDEST PUSH1 0x0 PUSH2 0x830 PUSH2 0xBE8 JUMP JUMPDEST PUSH1 0x6 SLOAD PUSH2 0x100 SWAP1 DIV PUSH1 0x1 PUSH1 0x1 PUSH1 0xA0 SHL SUB SWAP1 DUP2 AND SWAP2 AND EQ PUSH2 0x897 JUMPI PUSH1 0x40 DUP1 MLOAD PUSH3 0x461BCD PUSH1 0xE5 SHL DUP2 MSTORE PUSH1 0x20 PUSH1 0x4 DUP3 ADD DUP2 SWAP1 MSTORE PUSH1 0x24 DUP3 ADD MSTORE PUSH32 0x4F776E61626C653A2063616C6C6572206973206E6F7420746865206F776E6572 PUSH1 0x44 DUP3 ADD MSTORE SWAP1 MLOAD SWAP1 DUP2 SWAP1 SUB PUSH1 0x64 ADD SWAP1 REVERT JUMPDEST PUSH1 0x6 SLOAD PUSH1 0x1 PUSH1 0xA8 SHL SWAP1 DIV PUSH1 0xFF AND PUSH2 0x8F5 JUMPI PUSH1 0x40 DUP1 MLOAD PUSH3 0x461BCD PUSH1 0xE5 SHL DUP2 MSTORE PUSH1 0x20 PUSH1 0x4 DUP3 ADD MSTORE PUSH1 0x1A PUSH1 0x24 DUP3 ADD MSTORE PUSH32 0x7468697320746F6B656E206973206E6F74206D696E7461626C65000000000000 PUSH1 0x44 DUP3 ADD MSTORE SWAP1 MLOAD SWAP1 DUP2 SWAP1 SUB PUSH1 0x64 ADD SWAP1 REVERT JUMPDEST PUSH2 0x6BF PUSH2 0x900 PUSH2 0xBE8 JUMP JUMPDEST DUP4 PUSH2 0x102A JUMP JUMPDEST PUSH1 0x0 PUSH2 0x5B3 PUSH2 0x913 PUSH2 0xBE8 JUMP JUMPDEST DUP5 PUSH2 0x640 DUP6 PUSH1 0x40 MLOAD DUP1 PUSH1 0x60 ADD PUSH1 0x40 MSTORE DUP1 PUSH1 0x25 DUP2 MSTORE PUSH1 0x20 ADD PUSH2 0x130B PUSH1 0x25 SWAP2 CODECOPY PUSH1 0x2 PUSH1 0x0 PUSH2 0x93D PUSH2 0xBE8 JUMP JUMPDEST PUSH1 0x1 PUSH1 0x1 PUSH1 0xA0 SHL SUB SWAP1 DUP2 AND DUP3 MSTORE PUSH1 0x20 DUP1 DUP4 ADD SWAP4 SWAP1 SWAP4 MSTORE PUSH1 0x40 SWAP2 DUP3 ADD PUSH1 0x0 SWAP1 DUP2 KECCAK256 SWAP2 DUP14 AND DUP2 MSTORE SWAP3 MSTORE SWAP1 KECCAK256 SLOAD SWAP2 SWAP1 PUSH4 0xFFFFFFFF PUSH2 0xE36 AND JUMP JUMPDEST PUSH1 0x0 PUSH2 0x5B3 PUSH2 0x981 PUSH2 0xBE8 JUMP JUMPDEST DUP5 DUP5 PUSH2 0xCD8 JUMP JUMPDEST PUSH1 0x1 PUSH1 0x1 PUSH1 0xA0 SHL SUB SWAP2 DUP3 AND PUSH1 0x0 SWAP1 DUP2 MSTORE PUSH1 0x2 PUSH1 0x20 SWAP1 DUP2 MSTORE PUSH1 0x40 DUP1 DUP4 KECCAK256 SWAP4 SWAP1 SWAP5 AND DUP3 MSTORE SWAP2 SWAP1 SWAP2 MSTORE KECCAK256 SLOAD SWAP1 JUMP JUMPDEST PUSH1 0x0 SLOAD PUSH2 0x100 SWAP1 DIV PUSH1 0xFF AND DUP1 PUSH2 0x9CC JUMPI POP PUSH2 0x9CC PUSH2 0x111C JUMP JUMPDEST DUP1 PUSH2 0x9DA JUMPI POP PUSH1 0x0 SLOAD PUSH1 0xFF AND ISZERO JUMPDEST PUSH2 0xA15 JUMPI PUSH1 0x40 MLOAD PUSH3 0x461BCD PUSH1 0xE5 SHL DUP2 MSTORE PUSH1 0x4 ADD DUP1 DUP1 PUSH1 0x20 ADD DUP3 DUP2 SUB DUP3 MSTORE PUSH1 0x2E DUP2 MSTORE PUSH1 0x20 ADD DUP1 PUSH2 0x1294 PUSH1 0x2E SWAP2 CODECOPY PUSH1 0x40 ADD SWAP2 POP POP PUSH1 0x40 MLOAD DUP1 SWAP2 SUB SWAP1 REVERT JUMPDEST PUSH1 0x0 SLOAD PUSH2 0x100 SWAP1 DIV PUSH1 0xFF AND ISZERO DUP1 ISZERO PUSH2 0xA40 JUMPI PUSH1 0x0 DUP1 SLOAD PUSH1 0xFF NOT PUSH2 0xFF00 NOT SWAP1 SWAP2 AND PUSH2 0x100 OR AND PUSH1 0x1 OR SWAP1 SSTORE JUMPDEST PUSH1 0x6 DUP1 SLOAD PUSH2 0x100 PUSH1 0x1 PUSH1 0xA8 SHL SUB NOT AND PUSH2 0x100 PUSH1 0x1 PUSH1 0x1 PUSH1 0xA0 SHL SUB DUP6 AND MUL OR SWAP1 SSTORE DUP7 MLOAD PUSH2 0xA73 SWAP1 PUSH1 0x4 SWAP1 PUSH1 0x20 DUP11 ADD SWAP1 PUSH2 0x1164 JUMP JUMPDEST POP DUP6 MLOAD PUSH2 0xA87 SWAP1 PUSH1 0x5 SWAP1 PUSH1 0x20 DUP10 ADD SWAP1 PUSH2 0x1164 JUMP JUMPDEST POP PUSH1 0x6 DUP1 SLOAD PUSH1 0xFF NOT AND PUSH1 0xFF DUP8 AND OR PUSH1 0xFF PUSH1 0xA8 SHL NOT AND PUSH1 0x1 PUSH1 0xA8 SHL DUP6 ISZERO ISZERO MUL OR SWAP1 SSTORE PUSH2 0xAB2 DUP3 DUP6 PUSH2 0x102A JUMP JUMPDEST DUP1 ISZERO PUSH2 0xAC4 JUMPI PUSH1 0x0 DUP1 SLOAD PUSH2 0xFF00 NOT AND SWAP1 SSTORE JUMPDEST POP POP POP POP POP POP POP JUMP JUMPDEST PUSH2 0xAD5 PUSH2 0xBE8 JUMP JUMPDEST PUSH1 0x6 SLOAD PUSH2 0x100 SWAP1 DIV PUSH1 0x1 PUSH1 0x1 PUSH1 0xA0 SHL SUB SWAP1 DUP2 AND SWAP2 AND EQ PUSH2 0xB3C JUMPI PUSH1 0x40 DUP1 MLOAD PUSH3 0x461BCD PUSH1 0xE5 SHL DUP2 MSTORE PUSH1 0x20 PUSH1 0x4 DUP3 ADD DUP2 SWAP1 MSTORE PUSH1 0x24 DUP3 ADD MSTORE PUSH32 0x4F776E61626C653A2063616C6C6572206973206E6F7420746865206F776E6572 PUSH1 0x44 DUP3 ADD MSTORE SWAP1 MLOAD SWAP1 DUP2 SWAP1 SUB PUSH1 0x64 ADD SWAP1 REVERT JUMPDEST PUSH1 0x1 PUSH1 0x1 PUSH1 0xA0 SHL SUB DUP2 AND PUSH2 0xB81 JUMPI PUSH1 0x40 MLOAD PUSH3 0x461BCD PUSH1 0xE5 SHL DUP2 MSTORE PUSH1 0x4 ADD DUP1 DUP1 PUSH1 0x20 ADD DUP3 DUP2 SUB DUP3 MSTORE PUSH1 0x26 DUP2 MSTORE PUSH1 0x20 ADD DUP1 PUSH2 0x1246 PUSH1 0x26 SWAP2 CODECOPY PUSH1 0x40 ADD SWAP2 POP POP PUSH1 0x40 MLOAD DUP1 SWAP2 SUB SWAP1 REVERT JUMPDEST PUSH1 0x6 SLOAD PUSH1 0x40 MLOAD PUSH1 0x1 PUSH1 0x1 PUSH1 0xA0 SHL SUB DUP1 DUP5 AND SWAP3 PUSH2 0x100 SWAP1 DIV AND SWAP1 PUSH32 0x8BE0079C531659141344CD1FD0A4F28419497F9722A3DAAFE3B4186F6B6457E0 SWAP1 PUSH1 0x0 SWAP1 LOG3 PUSH1 0x6 DUP1 SLOAD PUSH1 0x1 PUSH1 0x1 PUSH1 0xA0 SHL SUB SWAP1 SWAP3 AND PUSH2 0x100 MUL PUSH2 0x100 PUSH1 0x1 PUSH1 0xA8 SHL SUB NOT SWAP1 SWAP3 AND SWAP2 SWAP1 SWAP2 OR SWAP1 SSTORE JUMP JUMPDEST CALLER SWAP1 JUMP JUMPDEST PUSH1 0x1 PUSH1 0x1 PUSH1 0xA0 SHL SUB DUP4 AND PUSH2 0xC31 JUMPI PUSH1 0x40 MLOAD PUSH3 0x461BCD PUSH1 0xE5 SHL DUP2 MSTORE PUSH1 0x4 ADD DUP1 DUP1 PUSH1 0x20 ADD DUP3 DUP2 SUB DUP3 MSTORE PUSH1 0x24 DUP2 MSTORE PUSH1 0x20 ADD DUP1 PUSH2 0x1222 PUSH1 0x24 SWAP2 CODECOPY PUSH1 0x40 ADD SWAP2 POP POP PUSH1 0x40 MLOAD DUP1 SWAP2 SUB SWAP1 REVERT JUMPDEST PUSH1 0x1 PUSH1 0x1 PUSH1 0xA0 SHL SUB DUP3 AND PUSH2 0xC76 JUMPI PUSH1 0x40 MLOAD PUSH3 0x461BCD PUSH1 0xE5 SHL DUP2 MSTORE PUSH1 0x4 ADD DUP1 DUP1 PUSH1 0x20 ADD DUP3 DUP2 SUB DUP3 MSTORE PUSH1 0x22 DUP2 MSTORE PUSH1 0x20 ADD DUP1 PUSH2 0x1373 PUSH1 0x22 SWAP2 CODECOPY PUSH1 0x40 ADD SWAP2 POP POP PUSH1 0x40 MLOAD DUP1 SWAP2 SUB SWAP1 REVERT JUMPDEST PUSH1 0x1 PUSH1 0x1 PUSH1 0xA0 SHL SUB DUP1 DUP5 AND PUSH1 0x0 DUP2 DUP2 MSTORE PUSH1 0x2 PUSH1 0x20 SWAP1 DUP2 MSTORE PUSH1 0x40 DUP1 DUP4 KECCAK256 SWAP5 DUP8 AND DUP1 DUP5 MSTORE SWAP5 DUP3 MSTORE SWAP2 DUP3 SWAP1 KECCAK256 DUP6 SWAP1 SSTORE DUP2 MLOAD DUP6 DUP2 MSTORE SWAP2 MLOAD PUSH32 0x8C5BE1E5EBEC7D5BD14F71427D1E84F3DD0314C0F7B2291E5B200AC8C7C3B925 SWAP3 DUP2 SWAP1 SUB SWAP1 SWAP2 ADD SWAP1 LOG3 POP POP POP JUMP JUMPDEST PUSH1 0x1 PUSH1 0x1 PUSH1 0xA0 SHL SUB DUP4 AND PUSH2 0xD1D JUMPI PUSH1 0x40 MLOAD PUSH3 0x461BCD PUSH1 0xE5 SHL DUP2 MSTORE PUSH1 0x4 ADD DUP1 DUP1 PUSH1 0x20 ADD DUP3 DUP2 SUB DUP3 MSTORE PUSH1 0x25 DUP2 MSTORE PUSH1 0x20 ADD DUP1 PUSH2 0x11FD PUSH1 0x25 SWAP2 CODECOPY PUSH1 0x40 ADD SWAP2 POP POP PUSH1 0x40 MLOAD DUP1 SWAP2 SUB SWAP1 REVERT JUMPDEST PUSH1 0x1 PUSH1 0x1 PUSH1 0xA0 SHL SUB DUP3 AND PUSH2 0xD62 JUMPI PUSH1 0x40 MLOAD PUSH3 0x461BCD PUSH1 0xE5 SHL DUP2 MSTORE PUSH1 0x4 ADD DUP1 DUP1 PUSH1 0x20 ADD DUP3 DUP2 SUB DUP3 MSTORE PUSH1 0x23 DUP2 MSTORE PUSH1 0x20 ADD DUP1 PUSH2 0x12E8 PUSH1 0x23 SWAP2 CODECOPY PUSH1 0x40 ADD SWAP2 POP POP PUSH1 0x40 MLOAD DUP1 SWAP2 SUB SWAP1 REVERT JUMPDEST PUSH2 0xDA5 DUP2 PUSH1 0x40 MLOAD DUP1 PUSH1 0x60 ADD PUSH1 0x40 MSTORE DUP1 PUSH1 0x26 DUP2 MSTORE PUSH1 0x20 ADD PUSH2 0x12C2 PUSH1 0x26 SWAP2 CODECOPY PUSH1 0x1 PUSH1 0x1 PUSH1 0xA0 SHL SUB DUP7 AND PUSH1 0x0 SWAP1 DUP2 MSTORE PUSH1 0x1 PUSH1 0x20 MSTORE PUSH1 0x40 SWAP1 KECCAK256 SLOAD SWAP2 SWAP1 PUSH4 0xFFFFFFFF PUSH2 0xE36 AND JUMP JUMPDEST PUSH1 0x1 PUSH1 0x1 PUSH1 0xA0 SHL SUB DUP1 DUP6 AND PUSH1 0x0 SWAP1 DUP2 MSTORE PUSH1 0x1 PUSH1 0x20 MSTORE PUSH1 0x40 DUP1 DUP3 KECCAK256 SWAP4 SWAP1 SWAP4 SSTORE SWAP1 DUP5 AND DUP2 MSTORE KECCAK256 SLOAD PUSH2 0xDDA SWAP1 DUP3 PUSH4 0xFFFFFFFF PUSH2 0xECD AND JUMP JUMPDEST PUSH1 0x1 PUSH1 0x1 PUSH1 0xA0 SHL SUB DUP1 DUP5 AND PUSH1 0x0 DUP2 DUP2 MSTORE PUSH1 0x1 PUSH1 0x20 SWAP1 DUP2 MSTORE PUSH1 0x40 SWAP2 DUP3 SWAP1 KECCAK256 SWAP5 SWAP1 SWAP5 SSTORE DUP1 MLOAD DUP6 DUP2 MSTORE SWAP1 MLOAD SWAP2 SWAP4 SWAP3 DUP8 AND SWAP3 PUSH32 0xDDF252AD1BE2C89B69C2B068FC378DAA952BA7F163C4A11628F55A4DF523B3EF SWAP3 SWAP2 DUP3 SWAP1 SUB ADD SWAP1 LOG3 POP POP POP JUMP JUMPDEST PUSH1 0x0 DUP2 DUP5 DUP5 GT ISZERO PUSH2 0xEC5 JUMPI PUSH1 0x40 MLOAD PUSH3 0x461BCD PUSH1 0xE5 SHL DUP2 MSTORE PUSH1 0x4 ADD DUP1 DUP1 PUSH1 0x20 ADD DUP3 DUP2 SUB DUP3 MSTORE DUP4 DUP2 DUP2 MLOAD DUP2 MSTORE PUSH1 0x20 ADD SWAP2 POP DUP1 MLOAD SWAP1 PUSH1 0x20 ADD SWAP1 DUP1 DUP4 DUP4 PUSH1 0x0 JUMPDEST DUP4 DUP2 LT ISZERO PUSH2 0xE8A JUMPI DUP2 DUP2 ADD MLOAD DUP4 DUP3 ADD MSTORE PUSH1 0x20 ADD PUSH2 0xE72 JUMP JUMPDEST POP POP POP POP SWAP1 POP SWAP1 DUP2 ADD SWAP1 PUSH1 0x1F AND DUP1 ISZERO PUSH2 0xEB7 JUMPI DUP1 DUP3 SUB DUP1 MLOAD PUSH1 0x1 DUP4 PUSH1 0x20 SUB PUSH2 0x100 EXP SUB NOT AND DUP2 MSTORE PUSH1 0x20 ADD SWAP2 POP JUMPDEST POP SWAP3 POP POP POP PUSH1 0x40 MLOAD DUP1 SWAP2 SUB SWAP1 REVERT JUMPDEST POP POP POP SWAP1 SUB SWAP1 JUMP JUMPDEST PUSH1 0x0 DUP3 DUP3 ADD DUP4 DUP2 LT ISZERO PUSH2 0xF27 JUMPI PUSH1 0x40 DUP1 MLOAD PUSH3 0x461BCD PUSH1 0xE5 SHL DUP2 MSTORE PUSH1 0x20 PUSH1 0x4 DUP3 ADD MSTORE PUSH1 0x1B PUSH1 0x24 DUP3 ADD MSTORE PUSH32 0x536166654D6174683A206164646974696F6E206F766572666C6F770000000000 PUSH1 0x44 DUP3 ADD MSTORE SWAP1 MLOAD SWAP1 DUP2 SWAP1 SUB PUSH1 0x64 ADD SWAP1 REVERT JUMPDEST SWAP4 SWAP3 POP POP POP JUMP JUMPDEST PUSH1 0x1 PUSH1 0x1 PUSH1 0xA0 SHL SUB DUP3 AND PUSH2 0xF73 JUMPI PUSH1 0x40 MLOAD PUSH3 0x461BCD PUSH1 0xE5 SHL DUP2 MSTORE PUSH1 0x4 ADD DUP1 DUP1 PUSH1 0x20 ADD DUP3 DUP2 SUB DUP3 MSTORE PUSH1 0x21 DUP2 MSTORE PUSH1 0x20 ADD DUP1 PUSH2 0x1330 PUSH1 0x21 SWAP2 CODECOPY PUSH1 0x40 ADD SWAP2 POP POP PUSH1 0x40 MLOAD DUP1 SWAP2 SUB SWAP1 REVERT JUMPDEST PUSH2 0xFB6 DUP2 PUSH1 0x40 MLOAD DUP1 PUSH1 0x60 ADD PUSH1 0x40 MSTORE DUP1 PUSH1 0x22 DUP2 MSTORE PUSH1 0x20 ADD PUSH2 0x1351 PUSH1 0x22 SWAP2 CODECOPY PUSH1 0x1 PUSH1 0x1 PUSH1 0xA0 SHL SUB DUP6 AND PUSH1 0x0 SWAP1 DUP2 MSTORE PUSH1 0x1 PUSH1 0x20 MSTORE PUSH1 0x40 SWAP1 KECCAK256 SLOAD SWAP2 SWAP1 PUSH4 0xFFFFFFFF PUSH2 0xE36 AND JUMP JUMPDEST PUSH1 0x1 PUSH1 0x1 PUSH1 0xA0 SHL SUB DUP4 AND PUSH1 0x0 SWAP1 DUP2 MSTORE PUSH1 0x1 PUSH1 0x20 MSTORE PUSH1 0x40 SWAP1 KECCAK256 SSTORE PUSH1 0x3 SLOAD PUSH2 0xFE2 SWAP1 DUP3 PUSH4 0xFFFFFFFF PUSH2 0x1122 AND JUMP JUMPDEST PUSH1 0x3 SSTORE PUSH1 0x40 DUP1 MLOAD DUP3 DUP2 MSTORE SWAP1 MLOAD PUSH1 0x0 SWAP2 PUSH1 0x1 PUSH1 0x1 PUSH1 0xA0 SHL SUB DUP6 AND SWAP2 PUSH32 0xDDF252AD1BE2C89B69C2B068FC378DAA952BA7F163C4A11628F55A4DF523B3EF SWAP2 DUP2 SWAP1 SUB PUSH1 0x20 ADD SWAP1 LOG3 POP POP JUMP JUMPDEST PUSH1 0x1 PUSH1 0x1 PUSH1 0xA0 SHL SUB DUP3 AND PUSH2 0x1085 JUMPI PUSH1 0x40 DUP1 MLOAD PUSH3 0x461BCD PUSH1 0xE5 SHL DUP2 MSTORE PUSH1 0x20 PUSH1 0x4 DUP3 ADD MSTORE PUSH1 0x1F PUSH1 0x24 DUP3 ADD MSTORE PUSH32 0x42455032303A206D696E7420746F20746865207A65726F206164647265737300 PUSH1 0x44 DUP3 ADD MSTORE SWAP1 MLOAD SWAP1 DUP2 SWAP1 SUB PUSH1 0x64 ADD SWAP1 REVERT JUMPDEST PUSH1 0x3 SLOAD PUSH2 0x1098 SWAP1 DUP3 PUSH4 0xFFFFFFFF PUSH2 0xECD AND JUMP JUMPDEST PUSH1 0x3 SSTORE PUSH1 0x1 PUSH1 0x1 PUSH1 0xA0 SHL SUB DUP3 AND PUSH1 0x0 SWAP1 DUP2 MSTORE PUSH1 0x1 PUSH1 0x20 MSTORE PUSH1 0x40 SWAP1 KECCAK256 SLOAD PUSH2 0x10C4 SWAP1 DUP3 PUSH4 0xFFFFFFFF PUSH2 0xECD AND JUMP JUMPDEST PUSH1 0x1 PUSH1 0x1 PUSH1 0xA0 SHL SUB DUP4 AND PUSH1 0x0 DUP2 DUP2 MSTORE PUSH1 0x1 PUSH1 0x20 SWAP1 DUP2 MSTORE PUSH1 0x40 DUP1 DUP4 KECCAK256 SWAP5 SWAP1 SWAP5 SSTORE DUP4 MLOAD DUP6 DUP2 MSTORE SWAP4 MLOAD SWAP3 SWAP4 SWAP2 SWAP3 PUSH32 0xDDF252AD1BE2C89B69C2B068FC378DAA952BA7F163C4A11628F55A4DF523B3EF SWAP3 DUP2 SWAP1 SUB SWAP1 SWAP2 ADD SWAP1 LOG3 POP POP JUMP JUMPDEST ADDRESS EXTCODESIZE ISZERO SWAP1 JUMP JUMPDEST PUSH1 0x0 PUSH2 0xF27 DUP4 DUP4 PUSH1 0x40 MLOAD DUP1 PUSH1 0x40 ADD PUSH1 0x40 MSTORE DUP1 PUSH1 0x1E DUP2 MSTORE PUSH1 0x20 ADD PUSH32 0x536166654D6174683A207375627472616374696F6E206F766572666C6F770000 DUP2 MSTORE POP PUSH2 0xE36 JUMP JUMPDEST DUP3 DUP1 SLOAD PUSH1 0x1 DUP2 PUSH1 0x1 AND ISZERO PUSH2 0x100 MUL SUB AND PUSH1 0x2 SWAP1 DIV SWAP1 PUSH1 0x0 MSTORE PUSH1 0x20 PUSH1 0x0 KECCAK256 SWAP1 PUSH1 0x1F ADD PUSH1 0x20 SWAP1 DIV DUP2 ADD SWAP3 DUP3 PUSH1 0x1F LT PUSH2 0x11A5 JUMPI DUP1 MLOAD PUSH1 0xFF NOT AND DUP4 DUP1 ADD OR DUP6 SSTORE PUSH2 0x11D2 JUMP JUMPDEST DUP3 DUP1 ADD PUSH1 0x1 ADD DUP6 SSTORE DUP3 ISZERO PUSH2 0x11D2 JUMPI SWAP2 DUP3 ADD JUMPDEST DUP3 DUP2 GT ISZERO PUSH2 0x11D2 JUMPI DUP3 MLOAD DUP3 SSTORE SWAP2 PUSH1 0x20 ADD SWAP2 SWAP1 PUSH1 0x1 ADD SWAP1 PUSH2 0x11B7 JUMP JUMPDEST POP PUSH2 0x11DE SWAP3 SWAP2 POP PUSH2 0x11E2 JUMP JUMPDEST POP SWAP1 JUMP JUMPDEST PUSH2 0x59C SWAP2 SWAP1 JUMPDEST DUP1 DUP3 GT ISZERO PUSH2 0x11DE JUMPI PUSH1 0x0 DUP2 SSTORE PUSH1 0x1 ADD PUSH2 0x11E8 JUMP INVALID TIMESTAMP GASLIMIT POP ORIGIN ADDRESS GASPRICE KECCAK256 PUSH21 0x72616E736665722066726F6D20746865207A65726F KECCAK256 PUSH2 0x6464 PUSH19 0x65737342455032303A20617070726F76652066 PUSH19 0x6F6D20746865207A65726F2061646472657373 0x4F PUSH24 0x6E61626C653A206E6577206F776E65722069732074686520 PUSH27 0x65726F206164647265737342455032303A207472616E7366657220 PUSH2 0x6D6F PUSH22 0x6E74206578636565647320616C6C6F77616E6365496E PUSH10 0x7469616C697A61626C65 GASPRICE KECCAK256 PUSH4 0x6F6E7472 PUSH2 0x6374 KECCAK256 PUSH10 0x7320616C726561647920 PUSH10 0x6E697469616C697A6564 TIMESTAMP GASLIMIT POP ORIGIN ADDRESS GASPRICE KECCAK256 PUSH21 0x72616E7366657220616D6F756E7420657863656564 PUSH20 0x2062616C616E636542455032303A207472616E73 PUSH7 0x657220746F2074 PUSH9 0x65207A65726F206164 PUSH5 0x7265737342 GASLIMIT POP ORIGIN ADDRESS GASPRICE KECCAK256 PUSH5 0x6563726561 PUSH20 0x656420616C6C6F77616E63652062656C6F77207A PUSH6 0x726F42455032 ADDRESS GASPRICE KECCAK256 PUSH3 0x75726E KECCAK256 PUSH7 0x726F6D20746865 KECCAK256 PUSH27 0x65726F206164647265737342455032303A206275726E20616D6F75 PUSH15 0x7420657863656564732062616C616E PUSH4 0x65424550 ORIGIN ADDRESS GASPRICE KECCAK256 PUSH2 0x7070 PUSH19 0x6F766520746F20746865207A65726F20616464 PUSH19 0x657373A2646970667358221220B533BBD1A569 0x2E SLOAD COINBASE SWAP5 DUP12 SHL PUSH19 0x5074BE1C97F71EEF126C041EA84E9AB05BB8C1 PUSH5 0x736F6C6378 0x27 ADDRESS 0x2E CALLDATASIZE 0x2E CODECOPY 0x2D PUSH15 0x696768746C792E323032302E352E32 CODESIZE 0x2B PUSH4 0x6F6D6D69 PUSH21 0x2E6565383330376365005800000000000000000000 "
				},
				"gasEstimates": {
					"creation": {
						"codeDepositCost": "1020600",
						"executionCost": "1061",
						"totalCost": "1021661"
					},
					"external": {
						"allowance(address,address)": "1316",
						"approve(address,uint256)": "infinite",
						"balanceOf(address)": "1253",
						"burn(uint256)": "infinite",
						"decimals()": "1036",
						"decreaseAllowance(address,uint256)": "infinite",
						"getOwner()": "1093",
						"increaseAllowance(address,uint256)": "infinite",
						"initialize(string,string,uint8,uint256,bool,address)": "infinite",
						"mint(uint256)": "infinite",
						"mintable()": "1116",
						"name()": "infinite",
						"renounceOwnership()": "24246",
						"symbol()": "infinite",
						"totalSupply()": "1066",
						"transfer(address,uint256)": "infinite",
						"transferFrom(address,address,uint256)": "infinite",
						"transferOwnership(address)": "infinite"
					},
					"internal": {
						"_approve(address,address,uint256)": "infinite",
						"_burn(address,uint256)": "infinite",
						"_burnFrom(address,uint256)": "infinite",
						"_mint(address,uint256)": "infinite",
						"_transfer(address,address,uint256)": "infinite"
					}
				},
				"methodIdentifiers": {
					"allowance(address,address)": "dd62ed3e",
					"approve(address,uint256)": "095ea7b3",
					"balanceOf(address)": "70a08231",
					"burn(uint256)": "42966c68",
					"decimals()": "313ce567",
					"decreaseAllowance(address,uint256)": "a457c2d7",
					"getOwner()": "893d20e8",
					"increaseAllowance(address,uint256)": "39509351",
					"initialize(string,string,uint8,uint256,bool,address)": "ef3ebcb8",
					"mint(uint256)": "a0712d68",
					"mintable()": "4bf365df",
					"name()": "06fdde03",
					"renounceOwnership()": "715018a6",
					"symbol()": "95d89b41",
					"totalSupply()": "18160ddd",
					"transfer(address,uint256)": "a9059cbb",
					"transferFrom(address,address,uint256)": "23b872dd",
					"transferOwnership(address)": "f2fde38b"
				}
			},
			"storageLayout": {
				"storage": [
					{
						"astId": 322,
						"contract": "Users/leilei/Downloads/TradingCompV2RewardDistribution/contracts/BEP20TokenImplementation.sol:BEP20TokenImplementation",
						"label": "_initialized",
						"offset": 0,
						"slot": "0",
						"type": "t_bool"
					},
					{
						"astId": 325,
						"contract": "Users/leilei/Downloads/TradingCompV2RewardDistribution/contracts/BEP20TokenImplementation.sol:BEP20TokenImplementation",
						"label": "_initializing",
						"offset": 1,
						"slot": "0",
						"type": "t_bool"
					},
					{
						"astId": 401,
						"contract": "Users/leilei/Downloads/TradingCompV2RewardDistribution/contracts/BEP20TokenImplementation.sol:BEP20TokenImplementation",
						"label": "_balances",
						"offset": 0,
						"slot": "1",
						"type": "t_mapping(t_address,t_uint256)"
					},
					{
						"astId": 407,
						"contract": "Users/leilei/Downloads/TradingCompV2RewardDistribution/contracts/BEP20TokenImplementation.sol:BEP20TokenImplementation",
						"label": "_allowances",
						"offset": 0,
						"slot": "2",
						"type": "t_mapping(t_address,t_mapping(t_address,t_uint256))"
					},
					{
						"astId": 409,
						"contract": "Users/leilei/Downloads/TradingCompV2RewardDistribution/contracts/BEP20TokenImplementation.sol:BEP20TokenImplementation",
						"label": "_totalSupply",
						"offset": 0,
						"slot": "3",
						"type": "t_uint256"
					},
					{
						"astId": 411,
						"contract": "Users/leilei/Downloads/TradingCompV2RewardDistribution/contracts/BEP20TokenImplementation.sol:BEP20TokenImplementation",
						"label": "_name",
						"offset": 0,
						"slot": "4",
						"type": "t_string_storage"
					},
					{
						"astId": 413,
						"contract": "Users/leilei/Downloads/TradingCompV2RewardDistribution/contracts/BEP20TokenImplementation.sol:BEP20TokenImplementation",
						"label": "_symbol",
						"offset": 0,
						"slot": "5",
						"type": "t_string_storage"
					},
					{
						"astId": 415,
						"contract": "Users/leilei/Downloads/TradingCompV2RewardDistribution/contracts/BEP20TokenImplementation.sol:BEP20TokenImplementation",
						"label": "_decimals",
						"offset": 0,
						"slot": "6",
						"type": "t_uint8"
					},
					{
						"astId": 417,
						"contract": "Users/leilei/Downloads/TradingCompV2RewardDistribution/contracts/BEP20TokenImplementation.sol:BEP20TokenImplementation",
						"label": "_owner",
						"offset": 1,
						"slot": "6",
						"type": "t_address"
					},
					{
						"astId": 425,
						"contract": "Users/leilei/Downloads/TradingCompV2RewardDistribution/contracts/BEP20TokenImplementation.sol:BEP20TokenImplementation",
						"label": "_mintable",
						"offset": 21,
						"slot": "6",
						"type": "t_bool"
					}
				],
				"types": {
					"t_address": {
						"encoding": "inplace",
						"label": "address",
						"numberOfBytes": "20"
					},
					"t_bool": {
						"encoding": "inplace",
						"label": "bool",
						"numberOfBytes": "1"
					},
					"t_mapping(t_address,t_mapping(t_address,t_uint256))": {
						"encoding": "mapping",
						"key": "t_address",
						"label": "mapping(address => mapping(address => uint256))",
						"numberOfBytes": "32",
						"value": "t_mapping(t_address,t_uint256)"
					},
					"t_mapping(t_address,t_uint256)": {
						"encoding": "mapping",
						"key": "t_address",
						"label": "mapping(address => uint256)",
						"numberOfBytes": "32",
						"value": "t_uint256"
					},
					"t_string_storage": {
						"encoding": "bytes",
						"label": "string",
						"numberOfBytes": "32"
					},
					"t_uint256": {
						"encoding": "inplace",
						"label": "uint256",
						"numberOfBytes": "32"
					},
					"t_uint8": {
						"encoding": "inplace",
						"label": "uint8",
						"numberOfBytes": "1"
					}
				}
			},
			"userdoc": {
				"methods": {}
			}
		}
	}
}