{
	"data": {
		"bytecode": {
			"linkReferences": {},
			"object": "60806040523480156200001157600080fd5b5060405162001f0a38038062001f0a833981016040819052620000349162000136565b60006200004062000114565b600080546001600160a01b0319166001600160a01b0383169081178255604051929350917f8be0079c531659141344cd1fd0a4f28419497f9722a3daafe3b4186f6b6457e0908290a350600680546001600160a01b03199081166001600160a01b038a81169190911790925560018054821689841617815560028054831689851617905560038054831688851617905560048054831687851617905560058054831686851617905560078054909216928416929092179055600a805460ff19168280021790555050505050505050620001d1565b3390565b80516001600160a01b03811681146200013057600080fd5b92915050565b600080600080600080600060e0888a03121562000151578283fd5b6200015d898962000118565b96506200016e8960208a0162000118565b95506200017f8960408a0162000118565b9450620001908960608a0162000118565b9350620001a18960808a0162000118565b9250620001b28960a08a0162000118565b9150620001c38960c08a0162000118565b905092959891949750929550565b611d2980620001e16000396000f3fe608060405234801561001057600080fd5b50600436106101735760003560e01c8063b58e8386116100de578063e5b030a611610097578063ef8a923511610071578063ef8a9235146102d9578063f1d7b550146102ee578063f2fde38b14610301578063f9cf4f8e1461031457610173565b8063e5b030a6146102ab578063e8c5408d146102b3578063ebb00bbe146102c657610173565b8063b58e838614610265578063b88a802f14610278578063c529a59c14610280578063c7d936ec14610288578063d6948c4714610290578063e21125fc1461029857610173565b806388b2d0da1161013057806388b2d0da146101fd5780638904bf2f146102125780638da5cb5b1461021a578063902bc4de14610222578063a39a07ff14610235578063a849d38f1461023d57610173565b80631de403e3146101785780632c3e2bee146101a15780633c130d90146101b65780633dd452d6146101cb57806351b3795c146101e0578063715018a6146101f5575b600080fd5b61018b6101863660046115fc565b61031c565b604051610198919061199d565b60405180910390f35b6101b46101af366004611798565b610331565b005b6101be610461565b60405161019891906119ff565b6101d36104ef565b6040516101989190611c7d565b6101e86104f4565b60405161019891906118a8565b6101b4610503565b61020561058c565b6040516101989190611c86565b6101e861059c565b6101e86105ab565b6101b46102303660046116df565b6105ba565b6101e861064a565b61025061024b3660046115fc565b610659565b604051610198999897969594939291906119a8565b6101b46102733660046116df565b6108b1565b6101b461093e565b6101e8610e7f565b6101e8610e8e565b6101d3610e9d565b6101b46102a636600461170f565b610ea3565b6101e8611005565b6101b46102c13660046116c0565b611014565b6101b46102d43660046116df565b6110b3565b6102e1611140565b60405161019891906119eb565b6101b46102fc3660046116df565b611149565b6101b461030f3660046115fc565b6111d6565b6101e8611296565b600b6020526000908152604090205460ff1681565b6103396112a5565b6001600160a01b031661034a6105ab565b6001600160a01b0316146103795760405162461bcd60e51b815260040161037090611be8565b60405180910390fd5b6001600a5460ff16600481111561038c57fe5b146103a95760405162461bcd60e51b815260040161037090611aea565b6000841180156103ba575060038411155b6103d65760405162461bcd60e51b815260040161037090611b0c565b600e8160ff16116103f95760405162461bcd60e51b815260040161037090611b7d565b600884905561040a600984846114ae565b506007805460ff60a01b1916600160a01b60ff8416021790556040517f888c23f0b9ffe0f2878e3b4eaf2414ed7ea3172647e4773cbbef57966c8fd76190610453908690611c7d565b60405180910390a150505050565b6009805460408051602060026001851615610100026000190190941693909304601f810184900484028201840190925281815292918301828280156104e75780601f106104bc576101008083540402835291602001916104e7565b820191906000526020600020905b8154815290600101906020018083116104ca57829003601f168201915b505050505081565b600381565b6001546001600160a01b031681565b61050b6112a5565b6001600160a01b031661051c6105ab565b6001600160a01b0316146105425760405162461bcd60e51b815260040161037090611be8565b600080546040516001600160a01b03909116907f8be0079c531659141344cd1fd0a4f28419497f9722a3daafe3b4186f6b6457e0908390a3600080546001600160a01b0319169055565b600754600160a01b900460ff1681565b6002546001600160a01b031681565b6000546001600160a01b031690565b6105c26112a5565b6001600160a01b03166105d36105ab565b6001600160a01b0316146105f95760405162461bcd60e51b815260040161037090611be8565b6004600a5460ff16600481111561060c57fe5b146106295760405162461bcd60e51b815260040161037090611ba1565b6106476106346112a5565b6004546001600160a01b031690836112a9565b50565b6005546001600160a01b031681565b600080600080600080600080600080600080600760009054906101000a90046001600160a01b03166001600160a01b031663a849d38f8e6040518263ffffffff1660e01b81526004016106ac91906118a8565b6101206040518083038186803b1580156106c557600080fd5b505afa1580156106d9573d6000803e3d6000fd5b505050506040513d601f19601f820116820180604052508101906106fd9190611634565b509699509497509295508694508493506107339250505057506001600160a01b038d166000908152600b602052604090205460ff165b91506000600660009054906101000a90046001600160a01b03166001600160a01b031663987ee1568f6040518263ffffffff1660e01b815260040161077891906118a8565b60c06040518083038186803b15801561079057600080fd5b505afa1580156107a4573d6000803e3d6000fd5b505050506040513d601f19601f820116820180604052508101906107c89190611827565b505060085491945060009350508314905080156107e55750600083115b156107ee575060015b848484600c6000868152602001908152602001600020600501866005811061081257fe5b01546000868152600c60205260409020600a01876005811061083057fe5b01546000878152600c60205260409020600f01886005811061084e57fe5b01546000888152600c60205260409020601401896005811061086c57fe5b01546000898152600c602052604090206019018a6005811061088a57fe5b0154889d509d509d509d509d509d509d509d509d5050505050509193959799909294969850565b6108b96112a5565b6001600160a01b03166108ca6105ab565b6001600160a01b0316146108f05760405162461bcd60e51b815260040161037090611be8565b6004600a5460ff16600481111561090357fe5b146109205760405162461bcd60e51b815260040161037090611ba1565b61064761092b6112a5565b6003546001600160a01b031690836112a9565b60006109486112a5565b60075460405163a849d38f60e01b8152919250600091829182916001600160a01b039091169063a849d38f906109829087906004016118a8565b6101206040518083038186803b15801561099b57600080fd5b505afa1580156109af573d6000803e3d6000fd5b505050506040513d601f19601f820116820180604052508101906109d39190611634565b5050600654604051634c3f70ab60e11b8152979a509598509396506000956001600160a01b039095169463987ee1569450610a1693508a925060040190506118a8565b60c06040518083038186803b158015610a2e57600080fd5b505afa158015610a42573d6000803e3d6000fd5b505050506040513d601f19601f82011682018060405250810190610a669190611827565b50919450879350610a8d925050505760405162461bcd60e51b815260040161037090611ac2565b6001600160a01b0385166000908152600b602052604090205460ff16158015610ab4575082155b610ad05760405162461bcd60e51b815260040161037090611bc3565b6003600a5460ff166004811115610ae357fe5b14610b005760405162461bcd60e51b815260040161037090611c1d565b6001600160a01b0385166000908152600b60205260409020805460ff19166001179055610b2b61152c565b6000828152600c602052604090819020815161016081019092528160c081018260058282826020028201915b815481526020019060010190808311610b575750505091835250506040805160a08101918290526020909201919060058481019182845b815481526020019060010190808311610b8e5750505091835250506040805160a081019182905260209092019190600a84019060059082845b815481526020019060010190808311610bc75750505091835250506040805160a081019182905260209092019190600f84019060059082845b815481526020019060010190808311610c005750505091835250506040805160a081019182905260209092019190601484019060059082845b815481526020019060010190808311610c395750505091835250506040805160a081019182905260209092019190601984019060059082845b815481526020019060010190808311610c725750505050508152505090506000831115610de957610cc58682602001518560058110610cad57fe5b60200201516002546001600160a01b031691906112a9565b610cf18682604001518560058110610cd957fe5b60200201516003546001600160a01b031691906112a9565b610d1d8682606001518560058110610d0557fe5b60200201516004546001600160a01b031691906112a9565b610d498682608001518560058110610d3157fe5b60200201516005546001600160a01b031691906112a9565b600854821415610de9576001546007546040516307c2e5ad60e11b81526001600160a01b0390921691630f85cb5a91610d95918a91600991600160a01b90910460ff16906004016118bc565b602060405180830381600087803b158015610daf57600080fd5b505af1158015610dc3573d6000803e3d6000fd5b505050506040513d601f19601f82011682018060405250810190610de791906116f7565b505b60065460a08201516001600160a01b0390911690631bdc17f69088908660058110610e1057fe5b602002015184518760058110610e2257fe5b60200201516040518463ffffffff1660e01b8152600401610e459392919061197c565b600060405180830381600087803b158015610e5f57600080fd5b505af1158015610e73573d6000803e3d6000fd5b50505050505050505050565b6003546001600160a01b031681565b6006546001600160a01b031681565b60085481565b610eab6112a5565b6001600160a01b0316610ebc6105ab565b6001600160a01b031614610ee25760405162461bcd60e51b815260040161037090611be8565b6001600a5460ff166004811115610ef557fe5b14610f125760405162461bcd60e51b815260040161037090611aea565b6000878152600c60205260409020610f2c90876005611585565b506000878152600c60205260409020610f4c906005908101908790611585565b506000878152600c60205260409020610f6a90600a01856005611585565b506000878152600c60205260409020610f8890600f01846005611585565b506000878152600c60205260409020610fa690601401836005611585565b506000878152600c60205260409020610fc490601901826005611585565b507f975e819e964a851cc1d16e54bb4a815e8f5af37c7b5863d23c29614b5a9973b087604051610ff49190611c7d565b60405180910390a150505050505050565b6004546001600160a01b031681565b61101c6112a5565b6001600160a01b031661102d6105ab565b6001600160a01b0316146110535760405162461bcd60e51b815260040161037090611be8565b600a805482919060ff1916600183600481111561106c57fe5b0217905550600a546040517f764216cc87d672d651534a1b124f00f678d3ed29aaf5e649af8e92590cbf9f11916110a89160ff909116906119eb565b60405180910390a150565b6110bb6112a5565b6001600160a01b03166110cc6105ab565b6001600160a01b0316146110f25760405162461bcd60e51b815260040161037090611be8565b6004600a5460ff16600481111561110557fe5b146111225760405162461bcd60e51b815260040161037090611ba1565b61064761112d6112a5565b6005546001600160a01b031690836112a9565b600a5460ff1681565b6111516112a5565b6001600160a01b03166111626105ab565b6001600160a01b0316146111885760405162461bcd60e51b815260040161037090611be8565b6004600a5460ff16600481111561119b57fe5b146111b85760405162461bcd60e51b815260040161037090611ba1565b6106476111c36112a5565b6002546001600160a01b031690836112a9565b6111de6112a5565b6001600160a01b03166111ef6105ab565b6001600160a01b0316146112155760405162461bcd60e51b815260040161037090611be8565b6001600160a01b03811661123b5760405162461bcd60e51b815260040161037090611a7c565b600080546040516001600160a01b03808516939216917f8be0079c531659141344cd1fd0a4f28419497f9722a3daafe3b4186f6b6457e091a3600080546001600160a01b0319166001600160a01b0392909216919091179055565b6007546001600160a01b031681565b3390565b6112ff8363a9059cbb60e01b84846040516024016112c8929190611963565b60408051601f198184030181529190526020810180516001600160e01b03166001600160e01b031990931692909217909152611304565b505050565b6060611359826040518060400160405280602081526020017f5361666542455032303a206c6f772d6c6576656c2063616c6c206661696c6564815250856001600160a01b03166113939092919063ffffffff16565b8051909150156112ff57808060200190518101906113779190611618565b6112ff5760405162461bcd60e51b815260040161037090611a32565b60606113a284846000856113ac565b90505b9392505050565b6060824710156113ce5760405162461bcd60e51b815260040161037090611b37565b6113d78561146f565b6113f35760405162461bcd60e51b815260040161037090611c46565b60006060866001600160a01b03168587604051611410919061188c565b60006040518083038185875af1925050503d806000811461144d576040519150601f19603f3d011682016040523d82523d6000602084013e611452565b606091505b5091509150611462828286611475565b925050505b949350505050565b3b151590565b606083156114845750816113a5565b8251156114945782518084602001fd5b8160405162461bcd60e51b815260040161037091906119ff565b828054600181600116156101000203166002900490600052602060002090601f016020900481019282601f106114ef5782800160ff1982351617855561151c565b8280016001018555821561151c579182015b8281111561151c578235825591602001919060010190611501565b506115289291506115b2565b5090565b6040518060c0016040528061153f6115c7565b815260200161154c6115c7565b81526020016115596115c7565b81526020016115666115c7565b81526020016115736115c7565b81526020016115806115c7565b905290565b826005810192821561151c579160200282018281111561151c578235825591602001919060010190611501565b5b8082111561152857600081556001016115b3565b6040518060a001604052806005906020820280368337509192915050565b8060a081018310156115f657600080fd5b92915050565b60006020828403121561160d578081fd5b81356113a581611cd0565b600060208284031215611629578081fd5b81516113a581611ce5565b60008060008060008060008060006101208a8c031215611652578485fd5b895161165d81611ce5565b60208b015190995061166e81611ce5565b8098505060408a0151965060608a0151955060808a0151945060a08a0151935060c08a0151925060e08a015191506101008a015180151581146116af578182fd5b809150509295985092959850929598565b6000602082840312156116d1578081fd5b8135600581106113a5578182fd5b6000602082840312156116f0578081fd5b5035919050565b600060208284031215611708578081fd5b5051919050565b60008060008060008060006103e0888a03121561172a578283fd5b8735965061173b8960208a016115e5565b955061174a8960c08a016115e5565b945061175a896101608a016115e5565b935061176a896102008a016115e5565b925061177a896102a08a016115e5565b915061178a896103408a016115e5565b905092959891949750929550565b600080600080606085870312156117ad578384fd5b84359350602085013567ffffffffffffffff808211156117cb578485fd5b818701915087601f8301126117de578485fd5b8135818111156117ec578586fd5b8860208285010111156117fd578586fd5b602083019550809450505050604085013560ff8116811461181c578182fd5b939692955090935050565b60008060008060008060c0878903121561183f578182fd5b865195506020870151945060408701519350606087015161185f81611cd0565b608088015160a0890151919450925061187781611ce5565b809150509295509295509295565b60ff169052565b6000825161189e818460208701611ca0565b9190910192915050565b6001600160a01b0391909116815260200190565b60006060820160018060a01b038616835260206060818501528286546001808216600081146118f257600181146119125761194d565b611902607f600285041687611c7d565b60ff19841681528501935061194d565b600283046119208188611c7d565b6119298c611c94565b895b838110156119445781548382015290850190880161192b565b91909101955050505b5050508093505050506114676040830184611885565b6001600160a01b03929092168252602082015260400190565b6001600160a01b039390931683526020830191909152604082015260600190565b901515815260200190565b9815158952961515602089015260408801959095526060870193909352608086019190915260a085015260c084015260e083015215156101008201526101200190565b60208101600583106119f957fe5b91905290565b6000602082528251806020840152611a1e816040850160208701611ca0565b601f01601f19169190910160400192915050565b6020808252602a908201527f5361666542455032303a204245503230206f7065726174696f6e20646964206e6040820152691bdd081cdd58d8d9595960b21b606082015260800190565b60208082526026908201527f4f776e61626c653a206e6577206f776e657220697320746865207a65726f206160408201526564647265737360d01b606082015260800190565b6020808252600e908201526d1393d517d49151d254d51154915160921b604082015260600190565b6020808252600890820152672727aa2fa7a822a760c11b604082015260600190565b6020808252601190820152701393d517d59053125117d511505357d251607a1b604082015260600190565b60208082526026908201527f416464726573733a20696e73756666696369656e742062616c616e636520666f6040820152651c8818d85b1b60d21b606082015260800190565b6020808252600a908201526949445f544f4f5f4c4f5760b01b604082015260600190565b6020808252600890820152672727aa2fa7ab22a960c11b604082015260600190565b6020808252600b908201526a121054d7d0d3105253515160aa1b604082015260600190565b6020808252818101527f4f776e61626c653a2063616c6c6572206973206e6f7420746865206f776e6572604082015260600190565b6020808252600f908201526e4e4f545f494e5f434c41494d494e4760881b604082015260600190565b6020808252601d908201527f416464726573733a2063616c6c20746f206e6f6e2d636f6e7472616374000000604082015260600190565b90815260200190565b60ff91909116815260200190565b60009081526020902090565b60005b83811015611cbb578181015183820152602001611ca3565b83811115611cca576000848401525b50505050565b6001600160a01b038116811461064757600080fd5b801515811461064757600080fdfea264697066735822122055d0083d23b67dbfb89490325ee5f63fdc05a1a37130c118010037edcd82c17964736f6c634300060c0033",
			"opcodes": "PUSH1 0x80 PUSH1 0x40 MSTORE CALLVALUE DUP1 ISZERO PUSH3 0x11 JUMPI PUSH1 0x0 DUP1 REVERT JUMPDEST POP PUSH1 0x40 MLOAD PUSH3 0x1F0A CODESIZE SUB DUP1 PUSH3 0x1F0A DUP4 CODECOPY DUP2 ADD PUSH1 0x40 DUP2 SWAP1 MSTORE PUSH3 0x34 SWAP2 PUSH3 0x136 JUMP JUMPDEST PUSH1 0x0 PUSH3 0x40 PUSH3 0x114 JUMP JUMPDEST PUSH1 0x0 DUP1 SLOAD PUSH1 0x1 PUSH1 0x1 PUSH1 0xA0 SHL SUB NOT AND PUSH1 0x1 PUSH1 0x1 PUSH1 0xA0 SHL SUB DUP4 AND SWAP1 DUP2 OR DUP3 SSTORE PUSH1 0x40 MLOAD SWAP3 SWAP4 POP SWAP2 PUSH32 0x8BE0079C531659141344CD1FD0A4F28419497F9722A3DAAFE3B4186F6B6457E0 SWAP1 DUP3 SWAP1 LOG3 POP PUSH1 0x6 DUP1 SLOAD PUSH1 0x1 PUSH1 0x1 PUSH1 0xA0 SHL SUB NOT SWAP1 DUP2 AND PUSH1 0x1 PUSH1 0x1 PUSH1 0xA0 SHL SUB DUP11 DUP2 AND SWAP2 SWAP1 SWAP2 OR SWAP1 SWAP3 SSTORE PUSH1 0x1 DUP1 SLOAD DUP3 AND DUP10 DUP5 AND OR DUP2 SSTORE PUSH1 0x2 DUP1 SLOAD DUP4 AND DUP10 DUP6 AND OR SWAP1 SSTORE PUSH1 0x3 DUP1 SLOAD DUP4 AND DUP9 DUP6 AND OR SWAP1 SSTORE PUSH1 0x4 DUP1 SLOAD DUP4 AND DUP8 DUP6 AND OR SWAP1 SSTORE PUSH1 0x5 DUP1 SLOAD DUP4 AND DUP7 DUP6 AND OR SWAP1 SSTORE PUSH1 0x7 DUP1 SLOAD SWAP1 SWAP3 AND SWAP3 DUP5 AND SWAP3 SWAP1 SWAP3 OR SWAP1 SSTORE PUSH1 0xA DUP1 SLOAD PUSH1 0xFF NOT AND DUP3 DUP1 MUL OR SWAP1 SSTORE POP POP POP POP POP POP POP POP PUSH3 0x1D1 JUMP JUMPDEST CALLER SWAP1 JUMP JUMPDEST DUP1 MLOAD PUSH1 0x1 PUSH1 0x1 PUSH1 0xA0 SHL SUB DUP2 AND DUP2 EQ PUSH3 0x130 JUMPI PUSH1 0x0 DUP1 REVERT JUMPDEST SWAP3 SWAP2 POP POP JUMP JUMPDEST PUSH1 0x0 DUP1 PUSH1 0x0 DUP1 PUSH1 0x0 DUP1 PUSH1 0x0 PUSH1 0xE0 DUP9 DUP11 SUB SLT ISZERO PUSH3 0x151 JUMPI DUP3 DUP4 REVERT JUMPDEST PUSH3 0x15D DUP10 DUP10 PUSH3 0x118 JUMP JUMPDEST SWAP7 POP PUSH3 0x16E DUP10 PUSH1 0x20 DUP11 ADD PUSH3 0x118 JUMP JUMPDEST SWAP6 POP PUSH3 0x17F DUP10 PUSH1 0x40 DUP11 ADD PUSH3 0x118 JUMP JUMPDEST SWAP5 POP PUSH3 0x190 DUP10 PUSH1 0x60 DUP11 ADD PUSH3 0x118 JUMP JUMPDEST SWAP4 POP PUSH3 0x1A1 DUP10 PUSH1 0x80 DUP11 ADD PUSH3 0x118 JUMP JUMPDEST SWAP3 POP PUSH3 0x1B2 DUP10 PUSH1 0xA0 DUP11 ADD PUSH3 0x118 JUMP JUMPDEST SWAP2 POP PUSH3 0x1C3 DUP10 PUSH1 0xC0 DUP11 ADD PUSH3 0x118 JUMP JUMPDEST SWAP1 POP SWAP3 SWAP6 SWAP9 SWAP2 SWAP5 SWAP8 POP SWAP3 SWAP6 POP JUMP JUMPDEST PUSH2 0x1D29 DUP1 PUSH3 0x1E1 PUSH1 0x0 CODECOPY PUSH1 0x0 RETURN INVALID PUSH1 0x80 PUSH1 0x40 MSTORE CALLVALUE DUP1 ISZERO PUSH2 0x10 JUMPI PUSH1 0x0 DUP1 REVERT JUMPDEST POP PUSH1 0x4 CALLDATASIZE LT PUSH2 0x173 JUMPI PUSH1 0x0 CALLDATALOAD PUSH1 0xE0 SHR DUP1 PUSH4 0xB58E8386 GT PUSH2 0xDE JUMPI DUP1 PUSH4 0xE5B030A6 GT PUSH2 0x97 JUMPI DUP1 PUSH4 0xEF8A9235 GT PUSH2 0x71 JUMPI DUP1 PUSH4 0xEF8A9235 EQ PUSH2 0x2D9 JUMPI DUP1 PUSH4 0xF1D7B550 EQ PUSH2 0x2EE JUMPI DUP1 PUSH4 0xF2FDE38B EQ PUSH2 0x301 JUMPI DUP1 PUSH4 0xF9CF4F8E EQ PUSH2 0x314 JUMPI PUSH2 0x173 JUMP JUMPDEST DUP1 PUSH4 0xE5B030A6 EQ PUSH2 0x2AB JUMPI DUP1 PUSH4 0xE8C5408D EQ PUSH2 0x2B3 JUMPI DUP1 PUSH4 0xEBB00BBE EQ PUSH2 0x2C6 JUMPI PUSH2 0x173 JUMP JUMPDEST DUP1 PUSH4 0xB58E8386 EQ PUSH2 0x265 JUMPI DUP1 PUSH4 0xB88A802F EQ PUSH2 0x278 JUMPI DUP1 PUSH4 0xC529A59C EQ PUSH2 0x280 JUMPI DUP1 PUSH4 0xC7D936EC EQ PUSH2 0x288 JUMPI DUP1 PUSH4 0xD6948C47 EQ PUSH2 0x290 JUMPI DUP1 PUSH4 0xE21125FC EQ PUSH2 0x298 JUMPI PUSH2 0x173 JUMP JUMPDEST DUP1 PUSH4 0x88B2D0DA GT PUSH2 0x130 JUMPI DUP1 PUSH4 0x88B2D0DA EQ PUSH2 0x1FD JUMPI DUP1 PUSH4 0x8904BF2F EQ PUSH2 0x212 JUMPI DUP1 PUSH4 0x8DA5CB5B EQ PUSH2 0x21A JUMPI DUP1 PUSH4 0x902BC4DE EQ PUSH2 0x222 JUMPI DUP1 PUSH4 0xA39A07FF EQ PUSH2 0x235 JUMPI DUP1 PUSH4 0xA849D38F EQ PUSH2 0x23D JUMPI PUSH2 0x173 JUMP JUMPDEST DUP1 PUSH4 0x1DE403E3 EQ PUSH2 0x178 JUMPI DUP1 PUSH4 0x2C3E2BEE EQ PUSH2 0x1A1 JUMPI DUP1 PUSH4 0x3C130D90 EQ PUSH2 0x1B6 JUMPI DUP1 PUSH4 0x3DD452D6 EQ PUSH2 0x1CB JUMPI DUP1 PUSH4 0x51B3795C EQ PUSH2 0x1E0 JUMPI DUP1 PUSH4 0x715018A6 EQ PUSH2 0x1F5 JUMPI JUMPDEST PUSH1 0x0 DUP1 REVERT JUMPDEST PUSH2 0x18B PUSH2 0x186 CALLDATASIZE PUSH1 0x4 PUSH2 0x15FC JUMP JUMPDEST PUSH2 0x31C JUMP JUMPDEST PUSH1 0x40 MLOAD PUSH2 0x198 SWAP2 SWAP1 PUSH2 0x199D JUMP JUMPDEST PUSH1 0x40 MLOAD DUP1 SWAP2 SUB SWAP1 RETURN JUMPDEST PUSH2 0x1B4 PUSH2 0x1AF CALLDATASIZE PUSH1 0x4 PUSH2 0x1798 JUMP JUMPDEST PUSH2 0x331 JUMP JUMPDEST STOP JUMPDEST PUSH2 0x1BE PUSH2 0x461 JUMP JUMPDEST PUSH1 0x40 MLOAD PUSH2 0x198 SWAP2 SWAP1 PUSH2 0x19FF JUMP JUMPDEST PUSH2 0x1D3 PUSH2 0x4EF JUMP JUMPDEST PUSH1 0x40 MLOAD PUSH2 0x198 SWAP2 SWAP1 PUSH2 0x1C7D JUMP JUMPDEST PUSH2 0x1E8 PUSH2 0x4F4 JUMP JUMPDEST PUSH1 0x40 MLOAD PUSH2 0x198 SWAP2 SWAP1 PUSH2 0x18A8 JUMP JUMPDEST PUSH2 0x1B4 PUSH2 0x503 JUMP JUMPDEST PUSH2 0x205 PUSH2 0x58C JUMP JUMPDEST PUSH1 0x40 MLOAD PUSH2 0x198 SWAP2 SWAP1 PUSH2 0x1C86 JUMP JUMPDEST PUSH2 0x1E8 PUSH2 0x59C JUMP JUMPDEST PUSH2 0x1E8 PUSH2 0x5AB JUMP JUMPDEST PUSH2 0x1B4 PUSH2 0x230 CALLDATASIZE PUSH1 0x4 PUSH2 0x16DF JUMP JUMPDEST PUSH2 0x5BA JUMP JUMPDEST PUSH2 0x1E8 PUSH2 0x64A JUMP JUMPDEST PUSH2 0x250 PUSH2 0x24B CALLDATASIZE PUSH1 0x4 PUSH2 0x15FC JUMP JUMPDEST PUSH2 0x659 JUMP JUMPDEST PUSH1 0x40 MLOAD PUSH2 0x198 SWAP10 SWAP9 SWAP8 SWAP7 SWAP6 SWAP5 SWAP4 SWAP3 SWAP2 SWAP1 PUSH2 0x19A8 JUMP JUMPDEST PUSH2 0x1B4 PUSH2 0x273 CALLDATASIZE PUSH1 0x4 PUSH2 0x16DF JUMP JUMPDEST PUSH2 0x8B1 JUMP JUMPDEST PUSH2 0x1B4 PUSH2 0x93E JUMP JUMPDEST PUSH2 0x1E8 PUSH2 0xE7F JUMP JUMPDEST PUSH2 0x1E8 PUSH2 0xE8E JUMP JUMPDEST PUSH2 0x1D3 PUSH2 0xE9D JUMP JUMPDEST PUSH2 0x1B4 PUSH2 0x2A6 CALLDATASIZE PUSH1 0x4 PUSH2 0x170F JUMP JUMPDEST PUSH2 0xEA3 JUMP JUMPDEST PUSH2 0x1E8 PUSH2 0x1005 JUMP JUMPDEST PUSH2 0x1B4 PUSH2 0x2C1 CALLDATASIZE PUSH1 0x4 PUSH2 0x16C0 JUMP JUMPDEST PUSH2 0x1014 JUMP JUMPDEST PUSH2 0x1B4 PUSH2 0x2D4 CALLDATASIZE PUSH1 0x4 PUSH2 0x16DF JUMP JUMPDEST PUSH2 0x10B3 JUMP JUMPDEST PUSH2 0x2E1 PUSH2 0x1140 JUMP JUMPDEST PUSH1 0x40 MLOAD PUSH2 0x198 SWAP2 SWAP1 PUSH2 0x19EB JUMP JUMPDEST PUSH2 0x1B4 PUSH2 0x2FC CALLDATASIZE PUSH1 0x4 PUSH2 0x16DF JUMP JUMPDEST PUSH2 0x1149 JUMP JUMPDEST PUSH2 0x1B4 PUSH2 0x30F CALLDATASIZE PUSH1 0x4 PUSH2 0x15FC JUMP JUMPDEST PUSH2 0x11D6 JUMP JUMPDEST PUSH2 0x1E8 PUSH2 0x1296 JUMP JUMPDEST PUSH1 0xB PUSH1 0x20 MSTORE PUSH1 0x0 SWAP1 DUP2 MSTORE PUSH1 0x40 SWAP1 KECCAK256 SLOAD PUSH1 0xFF AND DUP2 JUMP JUMPDEST PUSH2 0x339 PUSH2 0x12A5 JUMP JUMPDEST PUSH1 0x1 PUSH1 0x1 PUSH1 0xA0 SHL SUB AND PUSH2 0x34A PUSH2 0x5AB JUMP JUMPDEST PUSH1 0x1 PUSH1 0x1 PUSH1 0xA0 SHL SUB AND EQ PUSH2 0x379 JUMPI PUSH1 0x40 MLOAD PUSH3 0x461BCD PUSH1 0xE5 SHL DUP2 MSTORE PUSH1 0x4 ADD PUSH2 0x370 SWAP1 PUSH2 0x1BE8 JUMP JUMPDEST PUSH1 0x40 MLOAD DUP1 SWAP2 SUB SWAP1 REVERT JUMPDEST PUSH1 0x1 PUSH1 0xA SLOAD PUSH1 0xFF AND PUSH1 0x4 DUP2 GT ISZERO PUSH2 0x38C JUMPI INVALID JUMPDEST EQ PUSH2 0x3A9 JUMPI PUSH1 0x40 MLOAD PUSH3 0x461BCD PUSH1 0xE5 SHL DUP2 MSTORE PUSH1 0x4 ADD PUSH2 0x370 SWAP1 PUSH2 0x1AEA JUMP JUMPDEST PUSH1 0x0 DUP5 GT DUP1 ISZERO PUSH2 0x3BA JUMPI POP PUSH1 0x3 DUP5 GT ISZERO JUMPDEST PUSH2 0x3D6 JUMPI PUSH1 0x40 MLOAD PUSH3 0x461BCD PUSH1 0xE5 SHL DUP2 MSTORE PUSH1 0x4 ADD PUSH2 0x370 SWAP1 PUSH2 0x1B0C JUMP JUMPDEST PUSH1 0xE DUP2 PUSH1 0xFF AND GT PUSH2 0x3F9 JUMPI PUSH1 0x40 MLOAD PUSH3 0x461BCD PUSH1 0xE5 SHL DUP2 MSTORE PUSH1 0x4 ADD PUSH2 0x370 SWAP1 PUSH2 0x1B7D JUMP JUMPDEST PUSH1 0x8 DUP5 SWAP1 SSTORE PUSH2 0x40A PUSH1 0x9 DUP5 DUP5 PUSH2 0x14AE JUMP JUMPDEST POP PUSH1 0x7 DUP1 SLOAD PUSH1 0xFF PUSH1 0xA0 SHL NOT AND PUSH1 0x1 PUSH1 0xA0 SHL PUSH1 0xFF DUP5 AND MUL OR SWAP1 SSTORE PUSH1 0x40 MLOAD PUSH32 0x888C23F0B9FFE0F2878E3B4EAF2414ED7EA3172647E4773CBBEF57966C8FD761 SWAP1 PUSH2 0x453 SWAP1 DUP7 SWAP1 PUSH2 0x1C7D JUMP JUMPDEST PUSH1 0x40 MLOAD DUP1 SWAP2 SUB SWAP1 LOG1 POP POP POP POP JUMP JUMPDEST PUSH1 0x9 DUP1 SLOAD PUSH1 0x40 DUP1 MLOAD PUSH1 0x20 PUSH1 0x2 PUSH1 0x1 DUP6 AND ISZERO PUSH2 0x100 MUL PUSH1 0x0 NOT ADD SWAP1 SWAP5 AND SWAP4 SWAP1 SWAP4 DIV PUSH1 0x1F DUP2 ADD DUP5 SWAP1 DIV DUP5 MUL DUP3 ADD DUP5 ADD SWAP1 SWAP3 MSTORE DUP2 DUP2 MSTORE SWAP3 SWAP2 DUP4 ADD DUP3 DUP3 DUP1 ISZERO PUSH2 0x4E7 JUMPI DUP1 PUSH1 0x1F LT PUSH2 0x4BC JUMPI PUSH2 0x100 DUP1 DUP4 SLOAD DIV MUL DUP4 MSTORE SWAP2 PUSH1 0x20 ADD SWAP2 PUSH2 0x4E7 JUMP JUMPDEST DUP3 ADD SWAP2 SWAP1 PUSH1 0x0 MSTORE PUSH1 0x20 PUSH1 0x0 KECCAK256 SWAP1 JUMPDEST DUP2 SLOAD DUP2 MSTORE SWAP1 PUSH1 0x1 ADD SWAP1 PUSH1 0x20 ADD DUP1 DUP4 GT PUSH2 0x4CA JUMPI DUP3 SWAP1 SUB PUSH1 0x1F AND DUP3 ADD SWAP2 JUMPDEST POP POP POP POP POP DUP2 JUMP JUMPDEST PUSH1 0x3 DUP2 JUMP JUMPDEST PUSH1 0x1 SLOAD PUSH1 0x1 PUSH1 0x1 PUSH1 0xA0 SHL SUB AND DUP2 JUMP JUMPDEST PUSH2 0x50B PUSH2 0x12A5 JUMP JUMPDEST PUSH1 0x1 PUSH1 0x1 PUSH1 0xA0 SHL SUB AND PUSH2 0x51C PUSH2 0x5AB JUMP JUMPDEST PUSH1 0x1 PUSH1 0x1 PUSH1 0xA0 SHL SUB AND EQ PUSH2 0x542 JUMPI PUSH1 0x40 MLOAD PUSH3 0x461BCD PUSH1 0xE5 SHL DUP2 MSTORE PUSH1 0x4 ADD PUSH2 0x370 SWAP1 PUSH2 0x1BE8 JUMP JUMPDEST PUSH1 0x0 DUP1 SLOAD PUSH1 0x40 MLOAD PUSH1 0x1 PUSH1 0x1 PUSH1 0xA0 SHL SUB SWAP1 SWAP2 AND SWAP1 PUSH32 0x8BE0079C531659141344CD1FD0A4F28419497F9722A3DAAFE3B4186F6B6457E0 SWAP1 DUP4 SWAP1 LOG3 PUSH1 0x0 DUP1 SLOAD PUSH1 0x1 PUSH1 0x1 PUSH1 0xA0 SHL SUB NOT AND SWAP1 SSTORE JUMP JUMPDEST PUSH1 0x7 SLOAD PUSH1 0x1 PUSH1 0xA0 SHL SWAP1 DIV PUSH1 0xFF AND DUP2 JUMP JUMPDEST PUSH1 0x2 SLOAD PUSH1 0x1 PUSH1 0x1 PUSH1 0xA0 SHL SUB AND DUP2 JUMP JUMPDEST PUSH1 0x0 SLOAD PUSH1 0x1 PUSH1 0x1 PUSH1 0xA0 SHL SUB AND SWAP1 JUMP JUMPDEST PUSH2 0x5C2 PUSH2 0x12A5 JUMP JUMPDEST PUSH1 0x1 PUSH1 0x1 PUSH1 0xA0 SHL SUB AND PUSH2 0x5D3 PUSH2 0x5AB JUMP JUMPDEST PUSH1 0x1 PUSH1 0x1 PUSH1 0xA0 SHL SUB AND EQ PUSH2 0x5F9 JUMPI PUSH1 0x40 MLOAD PUSH3 0x461BCD PUSH1 0xE5 SHL DUP2 MSTORE PUSH1 0x4 ADD PUSH2 0x370 SWAP1 PUSH2 0x1BE8 JUMP JUMPDEST PUSH1 0x4 PUSH1 0xA SLOAD PUSH1 0xFF AND PUSH1 0x4 DUP2 GT ISZERO PUSH2 0x60C JUMPI INVALID JUMPDEST EQ PUSH2 0x629 JUMPI PUSH1 0x40 MLOAD PUSH3 0x461BCD PUSH1 0xE5 SHL DUP2 MSTORE PUSH1 0x4 ADD PUSH2 0x370 SWAP1 PUSH2 0x1BA1 JUMP JUMPDEST PUSH2 0x647 PUSH2 0x634 PUSH2 0x12A5 JUMP JUMPDEST PUSH1 0x4 SLOAD PUSH1 0x1 PUSH1 0x1 PUSH1 0xA0 SHL SUB AND SWAP1 DUP4 PUSH2 0x12A9 JUMP JUMPDEST POP JUMP JUMPDEST PUSH1 0x5 SLOAD PUSH1 0x1 PUSH1 0x1 PUSH1 0xA0 SHL SUB AND DUP2 JUMP JUMPDEST PUSH1 0x0 DUP1 PUSH1 0x0 DUP1 PUSH1 0x0 DUP1 PUSH1 0x0 DUP1 PUSH1 0x0 DUP1 PUSH1 0x0 DUP1 PUSH1 0x7 PUSH1 0x0 SWAP1 SLOAD SWAP1 PUSH2 0x100 EXP SWAP1 DIV PUSH1 0x1 PUSH1 0x1 PUSH1 0xA0 SHL SUB AND PUSH1 0x1 PUSH1 0x1 PUSH1 0xA0 SHL SUB AND PUSH4 0xA849D38F DUP15 PUSH1 0x40 MLOAD DUP3 PUSH4 0xFFFFFFFF AND PUSH1 0xE0 SHL DUP2 MSTORE PUSH1 0x4 ADD PUSH2 0x6AC SWAP2 SWAP1 PUSH2 0x18A8 JUMP JUMPDEST PUSH2 0x120 PUSH1 0x40 MLOAD DUP1 DUP4 SUB DUP2 DUP7 DUP1 EXTCODESIZE ISZERO DUP1 ISZERO PUSH2 0x6C5 JUMPI PUSH1 0x0 DUP1 REVERT JUMPDEST POP GAS STATICCALL ISZERO DUP1 ISZERO PUSH2 0x6D9 JUMPI RETURNDATASIZE PUSH1 0x0 DUP1 RETURNDATACOPY RETURNDATASIZE PUSH1 0x0 REVERT JUMPDEST POP POP POP POP PUSH1 0x40 MLOAD RETURNDATASIZE PUSH1 0x1F NOT PUSH1 0x1F DUP3 ADD AND DUP3 ADD DUP1 PUSH1 0x40 MSTORE POP DUP2 ADD SWAP1 PUSH2 0x6FD SWAP2 SWAP1 PUSH2 0x1634 JUMP JUMPDEST POP SWAP7 SWAP10 POP SWAP5 SWAP8 POP SWAP3 SWAP6 POP DUP7 SWAP5 POP DUP5 SWAP4 POP PUSH2 0x733 SWAP3 POP POP POP JUMPI POP PUSH1 0x1 PUSH1 0x1 PUSH1 0xA0 SHL SUB DUP14 AND PUSH1 0x0 SWAP1 DUP2 MSTORE PUSH1 0xB PUSH1 0x20 MSTORE PUSH1 0x40 SWAP1 KECCAK256 SLOAD PUSH1 0xFF AND JUMPDEST SWAP2 POP PUSH1 0x0 PUSH1 0x6 PUSH1 0x0 SWAP1 SLOAD SWAP1 PUSH2 0x100 EXP SWAP1 DIV PUSH1 0x1 PUSH1 0x1 PUSH1 0xA0 SHL SUB AND PUSH1 0x1 PUSH1 0x1 PUSH1 0xA0 SHL SUB AND PUSH4 0x987EE156 DUP16 PUSH1 0x40 MLOAD DUP3 PUSH4 0xFFFFFFFF AND PUSH1 0xE0 SHL DUP2 MSTORE PUSH1 0x4 ADD PUSH2 0x778 SWAP2 SWAP1 PUSH2 0x18A8 JUMP JUMPDEST PUSH1 0xC0 PUSH1 0x40 MLOAD DUP1 DUP4 SUB DUP2 DUP7 DUP1 EXTCODESIZE ISZERO DUP1 ISZERO PUSH2 0x790 JUMPI PUSH1 0x0 DUP1 REVERT JUMPDEST POP GAS STATICCALL ISZERO DUP1 ISZERO PUSH2 0x7A4 JUMPI RETURNDATASIZE PUSH1 0x0 DUP1 RETURNDATACOPY RETURNDATASIZE PUSH1 0x0 REVERT JUMPDEST POP POP POP POP PUSH1 0x40 MLOAD RETURNDATASIZE PUSH1 0x1F NOT PUSH1 0x1F DUP3 ADD AND DUP3 ADD DUP1 PUSH1 0x40 MSTORE POP DUP2 ADD SWAP1 PUSH2 0x7C8 SWAP2 SWAP1 PUSH2 0x1827 JUMP JUMPDEST POP POP PUSH1 0x8 SLOAD SWAP2 SWAP5 POP PUSH1 0x0 SWAP4 POP POP DUP4 EQ SWAP1 POP DUP1 ISZERO PUSH2 0x7E5 JUMPI POP PUSH1 0x0 DUP4 GT JUMPDEST ISZERO PUSH2 0x7EE JUMPI POP PUSH1 0x1 JUMPDEST DUP5 DUP5 DUP5 PUSH1 0xC PUSH1 0x0 DUP7 DUP2 MSTORE PUSH1 0x20 ADD SWAP1 DUP2 MSTORE PUSH1 0x20 ADD PUSH1 0x0 KECCAK256 PUSH1 0x5 ADD DUP7 PUSH1 0x5 DUP2 LT PUSH2 0x812 JUMPI INVALID JUMPDEST ADD SLOAD PUSH1 0x0 DUP7 DUP2 MSTORE PUSH1 0xC PUSH1 0x20 MSTORE PUSH1 0x40 SWAP1 KECCAK256 PUSH1 0xA ADD DUP8 PUSH1 0x5 DUP2 LT PUSH2 0x830 JUMPI INVALID JUMPDEST ADD SLOAD PUSH1 0x0 DUP8 DUP2 MSTORE PUSH1 0xC PUSH1 0x20 MSTORE PUSH1 0x40 SWAP1 KECCAK256 PUSH1 0xF ADD DUP9 PUSH1 0x5 DUP2 LT PUSH2 0x84E JUMPI INVALID JUMPDEST ADD SLOAD PUSH1 0x0 DUP9 DUP2 MSTORE PUSH1 0xC PUSH1 0x20 MSTORE PUSH1 0x40 SWAP1 KECCAK256 PUSH1 0x14 ADD DUP10 PUSH1 0x5 DUP2 LT PUSH2 0x86C JUMPI INVALID JUMPDEST ADD SLOAD PUSH1 0x0 DUP10 DUP2 MSTORE PUSH1 0xC PUSH1 0x20 MSTORE PUSH1 0x40 SWAP1 KECCAK256 PUSH1 0x19 ADD DUP11 PUSH1 0x5 DUP2 LT PUSH2 0x88A JUMPI INVALID JUMPDEST ADD SLOAD DUP9 SWAP14 POP SWAP14 POP SWAP14 POP SWAP14 POP SWAP14 POP SWAP14 POP SWAP14 POP SWAP14 POP SWAP14 POP POP POP POP POP POP SWAP2 SWAP4 SWAP6 SWAP8 SWAP10 SWAP1 SWAP3 SWAP5 SWAP7 SWAP9 POP JUMP JUMPDEST PUSH2 0x8B9 PUSH2 0x12A5 JUMP JUMPDEST PUSH1 0x1 PUSH1 0x1 PUSH1 0xA0 SHL SUB AND PUSH2 0x8CA PUSH2 0x5AB JUMP JUMPDEST PUSH1 0x1 PUSH1 0x1 PUSH1 0xA0 SHL SUB AND EQ PUSH2 0x8F0 JUMPI PUSH1 0x40 MLOAD PUSH3 0x461BCD PUSH1 0xE5 SHL DUP2 MSTORE PUSH1 0x4 ADD PUSH2 0x370 SWAP1 PUSH2 0x1BE8 JUMP JUMPDEST PUSH1 0x4 PUSH1 0xA SLOAD PUSH1 0xFF AND PUSH1 0x4 DUP2 GT ISZERO PUSH2 0x903 JUMPI INVALID JUMPDEST EQ PUSH2 0x920 JUMPI PUSH1 0x40 MLOAD PUSH3 0x461BCD PUSH1 0xE5 SHL DUP2 MSTORE PUSH1 0x4 ADD PUSH2 0x370 SWAP1 PUSH2 0x1BA1 JUMP JUMPDEST PUSH2 0x647 PUSH2 0x92B PUSH2 0x12A5 JUMP JUMPDEST PUSH1 0x3 SLOAD PUSH1 0x1 PUSH1 0x1 PUSH1 0xA0 SHL SUB AND SWAP1 DUP4 PUSH2 0x12A9 JUMP JUMPDEST PUSH1 0x0 PUSH2 0x948 PUSH2 0x12A5 JUMP JUMPDEST PUSH1 0x7 SLOAD PUSH1 0x40 MLOAD PUSH4 0xA849D38F PUSH1 0xE0 SHL DUP2 MSTORE SWAP2 SWAP3 POP PUSH1 0x0 SWAP2 DUP3 SWAP2 DUP3 SWAP2 PUSH1 0x1 PUSH1 0x1 PUSH1 0xA0 SHL SUB SWAP1 SWAP2 AND SWAP1 PUSH4 0xA849D38F SWAP1 PUSH2 0x982 SWAP1 DUP8 SWAP1 PUSH1 0x4 ADD PUSH2 0x18A8 JUMP JUMPDEST PUSH2 0x120 PUSH1 0x40 MLOAD DUP1 DUP4 SUB DUP2 DUP7 DUP1 EXTCODESIZE ISZERO DUP1 ISZERO PUSH2 0x99B JUMPI PUSH1 0x0 DUP1 REVERT JUMPDEST POP GAS STATICCALL ISZERO DUP1 ISZERO PUSH2 0x9AF JUMPI RETURNDATASIZE PUSH1 0x0 DUP1 RETURNDATACOPY RETURNDATASIZE PUSH1 0x0 REVERT JUMPDEST POP POP POP POP PUSH1 0x40 MLOAD RETURNDATASIZE PUSH1 0x1F NOT PUSH1 0x1F DUP3 ADD AND DUP3 ADD DUP1 PUSH1 0x40 MSTORE POP DUP2 ADD SWAP1 PUSH2 0x9D3 SWAP2 SWAP1 PUSH2 0x1634 JUMP JUMPDEST POP POP PUSH1 0x6 SLOAD PUSH1 0x40 MLOAD PUSH4 0x4C3F70AB PUSH1 0xE1 SHL DUP2 MSTORE SWAP8 SWAP11 POP SWAP6 SWAP9 POP SWAP4 SWAP7 POP PUSH1 0x0 SWAP6 PUSH1 0x1 PUSH1 0x1 PUSH1 0xA0 SHL SUB SWAP1 SWAP6 AND SWAP5 PUSH4 0x987EE156 SWAP5 POP PUSH2 0xA16 SWAP4 POP DUP11 SWAP3 POP PUSH1 0x4 ADD SWAP1 POP PUSH2 0x18A8 JUMP JUMPDEST PUSH1 0xC0 PUSH1 0x40 MLOAD DUP1 DUP4 SUB DUP2 DUP7 DUP1 EXTCODESIZE ISZERO DUP1 ISZERO PUSH2 0xA2E JUMPI PUSH1 0x0 DUP1 REVERT JUMPDEST POP GAS STATICCALL ISZERO DUP1 ISZERO PUSH2 0xA42 JUMPI RETURNDATASIZE PUSH1 0x0 DUP1 RETURNDATACOPY RETURNDATASIZE PUSH1 0x0 REVERT JUMPDEST POP POP POP POP PUSH1 0x40 MLOAD RETURNDATASIZE PUSH1 0x1F NOT PUSH1 0x1F DUP3 ADD AND DUP3 ADD DUP1 PUSH1 0x40 MSTORE POP DUP2 ADD SWAP1 PUSH2 0xA66 SWAP2 SWAP1 PUSH2 0x1827 JUMP JUMPDEST POP SWAP2 SWAP5 POP DUP8 SWAP4 POP PUSH2 0xA8D SWAP3 POP POP POP JUMPI PUSH1 0x40 MLOAD PUSH3 0x461BCD PUSH1 0xE5 SHL DUP2 MSTORE PUSH1 0x4 ADD PUSH2 0x370 SWAP1 PUSH2 0x1AC2 JUMP JUMPDEST PUSH1 0x1 PUSH1 0x1 PUSH1 0xA0 SHL SUB DUP6 AND PUSH1 0x0 SWAP1 DUP2 MSTORE PUSH1 0xB PUSH1 0x20 MSTORE PUSH1 0x40 SWAP1 KECCAK256 SLOAD PUSH1 0xFF AND ISZERO DUP1 ISZERO PUSH2 0xAB4 JUMPI POP DUP3 ISZERO JUMPDEST PUSH2 0xAD0 JUMPI PUSH1 0x40 MLOAD PUSH3 0x461BCD PUSH1 0xE5 SHL DUP2 MSTORE PUSH1 0x4 ADD PUSH2 0x370 SWAP1 PUSH2 0x1BC3 JUMP JUMPDEST PUSH1 0x3 PUSH1 0xA SLOAD PUSH1 0xFF AND PUSH1 0x4 DUP2 GT ISZERO PUSH2 0xAE3 JUMPI INVALID JUMPDEST EQ PUSH2 0xB00 JUMPI PUSH1 0x40 MLOAD PUSH3 0x461BCD PUSH1 0xE5 SHL DUP2 MSTORE PUSH1 0x4 ADD PUSH2 0x370 SWAP1 PUSH2 0x1C1D JUMP JUMPDEST PUSH1 0x1 PUSH1 0x1 PUSH1 0xA0 SHL SUB DUP6 AND PUSH1 0x0 SWAP1 DUP2 MSTORE PUSH1 0xB PUSH1 0x20 MSTORE PUSH1 0x40 SWAP1 KECCAK256 DUP1 SLOAD PUSH1 0xFF NOT AND PUSH1 0x1 OR SWAP1 SSTORE PUSH2 0xB2B PUSH2 0x152C JUMP JUMPDEST PUSH1 0x0 DUP3 DUP2 MSTORE PUSH1 0xC PUSH1 0x20 MSTORE PUSH1 0x40 SWAP1 DUP2 SWAP1 KECCAK256 DUP2 MLOAD PUSH2 0x160 DUP2 ADD SWAP1 SWAP3 MSTORE DUP2 PUSH1 0xC0 DUP2 ADD DUP3 PUSH1 0x5 DUP3 DUP3 DUP3 PUSH1 0x20 MUL DUP3 ADD SWAP2 JUMPDEST DUP2 SLOAD DUP2 MSTORE PUSH1 0x20 ADD SWAP1 PUSH1 0x1 ADD SWAP1 DUP1 DUP4 GT PUSH2 0xB57 JUMPI POP POP POP SWAP2 DUP4 MSTORE POP POP PUSH1 0x40 DUP1 MLOAD PUSH1 0xA0 DUP2 ADD SWAP2 DUP3 SWAP1 MSTORE PUSH1 0x20 SWAP1 SWAP3 ADD SWAP2 SWAP1 PUSH1 0x5 DUP5 DUP2 ADD SWAP2 DUP3 DUP5 JUMPDEST DUP2 SLOAD DUP2 MSTORE PUSH1 0x20 ADD SWAP1 PUSH1 0x1 ADD SWAP1 DUP1 DUP4 GT PUSH2 0xB8E JUMPI POP POP POP SWAP2 DUP4 MSTORE POP POP PUSH1 0x40 DUP1 MLOAD PUSH1 0xA0 DUP2 ADD SWAP2 DUP3 SWAP1 MSTORE PUSH1 0x20 SWAP1 SWAP3 ADD SWAP2 SWAP1 PUSH1 0xA DUP5 ADD SWAP1 PUSH1 0x5 SWAP1 DUP3 DUP5 JUMPDEST DUP2 SLOAD DUP2 MSTORE PUSH1 0x20 ADD SWAP1 PUSH1 0x1 ADD SWAP1 DUP1 DUP4 GT PUSH2 0xBC7 JUMPI POP POP POP SWAP2 DUP4 MSTORE POP POP PUSH1 0x40 DUP1 MLOAD PUSH1 0xA0 DUP2 ADD SWAP2 DUP3 SWAP1 MSTORE PUSH1 0x20 SWAP1 SWAP3 ADD SWAP2 SWAP1 PUSH1 0xF DUP5 ADD SWAP1 PUSH1 0x5 SWAP1 DUP3 DUP5 JUMPDEST DUP2 SLOAD DUP2 MSTORE PUSH1 0x20 ADD SWAP1 PUSH1 0x1 ADD SWAP1 DUP1 DUP4 GT PUSH2 0xC00 JUMPI POP POP POP SWAP2 DUP4 MSTORE POP POP PUSH1 0x40 DUP1 MLOAD PUSH1 0xA0 DUP2 ADD SWAP2 DUP3 SWAP1 MSTORE PUSH1 0x20 SWAP1 SWAP3 ADD SWAP2 SWAP1 PUSH1 0x14 DUP5 ADD SWAP1 PUSH1 0x5 SWAP1 DUP3 DUP5 JUMPDEST DUP2 SLOAD DUP2 MSTORE PUSH1 0x20 ADD SWAP1 PUSH1 0x1 ADD SWAP1 DUP1 DUP4 GT PUSH2 0xC39 JUMPI POP POP POP SWAP2 DUP4 MSTORE POP POP PUSH1 0x40 DUP1 MLOAD PUSH1 0xA0 DUP2 ADD SWAP2 DUP3 SWAP1 MSTORE PUSH1 0x20 SWAP1 SWAP3 ADD SWAP2 SWAP1 PUSH1 0x19 DUP5 ADD SWAP1 PUSH1 0x5 SWAP1 DUP3 DUP5 JUMPDEST DUP2 SLOAD DUP2 MSTORE PUSH1 0x20 ADD SWAP1 PUSH1 0x1 ADD SWAP1 DUP1 DUP4 GT PUSH2 0xC72 JUMPI POP POP POP POP POP DUP2 MSTORE POP POP SWAP1 POP PUSH1 0x0 DUP4 GT ISZERO PUSH2 0xDE9 JUMPI PUSH2 0xCC5 DUP7 DUP3 PUSH1 0x20 ADD MLOAD DUP6 PUSH1 0x5 DUP2 LT PUSH2 0xCAD JUMPI INVALID JUMPDEST PUSH1 0x20 MUL ADD MLOAD PUSH1 0x2 SLOAD PUSH1 0x1 PUSH1 0x1 PUSH1 0xA0 SHL SUB AND SWAP2 SWAP1 PUSH2 0x12A9 JUMP JUMPDEST PUSH2 0xCF1 DUP7 DUP3 PUSH1 0x40 ADD MLOAD DUP6 PUSH1 0x5 DUP2 LT PUSH2 0xCD9 JUMPI INVALID JUMPDEST PUSH1 0x20 MUL ADD MLOAD PUSH1 0x3 SLOAD PUSH1 0x1 PUSH1 0x1 PUSH1 0xA0 SHL SUB AND SWAP2 SWAP1 PUSH2 0x12A9 JUMP JUMPDEST PUSH2 0xD1D DUP7 DUP3 PUSH1 0x60 ADD MLOAD DUP6 PUSH1 0x5 DUP2 LT PUSH2 0xD05 JUMPI INVALID JUMPDEST PUSH1 0x20 MUL ADD MLOAD PUSH1 0x4 SLOAD PUSH1 0x1 PUSH1 0x1 PUSH1 0xA0 SHL SUB AND SWAP2 SWAP1 PUSH2 0x12A9 JUMP JUMPDEST PUSH2 0xD49 DUP7 DUP3 PUSH1 0x80 ADD MLOAD DUP6 PUSH1 0x5 DUP2 LT PUSH2 0xD31 JUMPI INVALID JUMPDEST PUSH1 0x20 MUL ADD MLOAD PUSH1 0x5 SLOAD PUSH1 0x1 PUSH1 0x1 PUSH1 0xA0 SHL SUB AND SWAP2 SWAP1 PUSH2 0x12A9 JUMP JUMPDEST PUSH1 0x8 SLOAD DUP3 EQ ISZERO PUSH2 0xDE9 JUMPI PUSH1 0x1 SLOAD PUSH1 0x7 SLOAD PUSH1 0x40 MLOAD PUSH4 0x7C2E5AD PUSH1 0xE1 SHL DUP2 MSTORE PUSH1 0x1 PUSH1 0x1 PUSH1 0xA0 SHL SUB SWAP1 SWAP3 AND SWAP2 PUSH4 0xF85CB5A SWAP2 PUSH2 0xD95 SWAP2 DUP11 SWAP2 PUSH1 0x9 SWAP2 PUSH1 0x1 PUSH1 0xA0 SHL SWAP1 SWAP2 DIV PUSH1 0xFF AND SWAP1 PUSH1 0x4 ADD PUSH2 0x18BC JUMP JUMPDEST PUSH1 0x20 PUSH1 0x40 MLOAD DUP1 DUP4 SUB DUP2 PUSH1 0x0 DUP8 DUP1 EXTCODESIZE ISZERO DUP1 ISZERO PUSH2 0xDAF JUMPI PUSH1 0x0 DUP1 REVERT JUMPDEST POP GAS CALL ISZERO DUP1 ISZERO PUSH2 0xDC3 JUMPI RETURNDATASIZE PUSH1 0x0 DUP1 RETURNDATACOPY RETURNDATASIZE PUSH1 0x0 REVERT JUMPDEST POP POP POP POP PUSH1 0x40 MLOAD RETURNDATASIZE PUSH1 0x1F NOT PUSH1 0x1F DUP3 ADD AND DUP3 ADD DUP1 PUSH1 0x40 MSTORE POP DUP2 ADD SWAP1 PUSH2 0xDE7 SWAP2 SWAP1 PUSH2 0x16F7 JUMP JUMPDEST POP JUMPDEST PUSH1 0x6 SLOAD PUSH1 0xA0 DUP3 ADD MLOAD PUSH1 0x1 PUSH1 0x1 PUSH1 0xA0 SHL SUB SWAP1 SWAP2 AND SWAP1 PUSH4 0x1BDC17F6 SWAP1 DUP9 SWAP1 DUP7 PUSH1 0x5 DUP2 LT PUSH2 0xE10 JUMPI INVALID JUMPDEST PUSH1 0x20 MUL ADD MLOAD DUP5 MLOAD DUP8 PUSH1 0x5 DUP2 LT PUSH2 0xE22 JUMPI INVALID JUMPDEST PUSH1 0x20 MUL ADD MLOAD PUSH1 0x40 MLOAD DUP5 PUSH4 0xFFFFFFFF AND PUSH1 0xE0 SHL DUP2 MSTORE PUSH1 0x4 ADD PUSH2 0xE45 SWAP4 SWAP3 SWAP2 SWAP1 PUSH2 0x197C JUMP JUMPDEST PUSH1 0x0 PUSH1 0x40 MLOAD DUP1 DUP4 SUB DUP2 PUSH1 0x0 DUP8 DUP1 EXTCODESIZE ISZERO DUP1 ISZERO PUSH2 0xE5F JUMPI PUSH1 0x0 DUP1 REVERT JUMPDEST POP GAS CALL ISZERO DUP1 ISZERO PUSH2 0xE73 JUMPI RETURNDATASIZE PUSH1 0x0 DUP1 RETURNDATACOPY RETURNDATASIZE PUSH1 0x0 REVERT JUMPDEST POP POP POP POP POP POP POP POP POP POP JUMP JUMPDEST PUSH1 0x3 SLOAD PUSH1 0x1 PUSH1 0x1 PUSH1 0xA0 SHL SUB AND DUP2 JUMP JUMPDEST PUSH1 0x6 SLOAD PUSH1 0x1 PUSH1 0x1 PUSH1 0xA0 SHL SUB AND DUP2 JUMP JUMPDEST PUSH1 0x8 SLOAD DUP2 JUMP JUMPDEST PUSH2 0xEAB PUSH2 0x12A5 JUMP JUMPDEST PUSH1 0x1 PUSH1 0x1 PUSH1 0xA0 SHL SUB AND PUSH2 0xEBC PUSH2 0x5AB JUMP JUMPDEST PUSH1 0x1 PUSH1 0x1 PUSH1 0xA0 SHL SUB AND EQ PUSH2 0xEE2 JUMPI PUSH1 0x40 MLOAD PUSH3 0x461BCD PUSH1 0xE5 SHL DUP2 MSTORE PUSH1 0x4 ADD PUSH2 0x370 SWAP1 PUSH2 0x1BE8 JUMP JUMPDEST PUSH1 0x1 PUSH1 0xA SLOAD PUSH1 0xFF AND PUSH1 0x4 DUP2 GT ISZERO PUSH2 0xEF5 JUMPI INVALID JUMPDEST EQ PUSH2 0xF12 JUMPI PUSH1 0x40 MLOAD PUSH3 0x461BCD PUSH1 0xE5 SHL DUP2 MSTORE PUSH1 0x4 ADD PUSH2 0x370 SWAP1 PUSH2 0x1AEA JUMP JUMPDEST PUSH1 0x0 DUP8 DUP2 MSTORE PUSH1 0xC PUSH1 0x20 MSTORE PUSH1 0x40 SWAP1 KECCAK256 PUSH2 0xF2C SWAP1 DUP8 PUSH1 0x5 PUSH2 0x1585 JUMP JUMPDEST POP PUSH1 0x0 DUP8 DUP2 MSTORE PUSH1 0xC PUSH1 0x20 MSTORE PUSH1 0x40 SWAP1 KECCAK256 PUSH2 0xF4C SWAP1 PUSH1 0x5 SWAP1 DUP2 ADD SWAP1 DUP8 SWAP1 PUSH2 0x1585 JUMP JUMPDEST POP PUSH1 0x0 DUP8 DUP2 MSTORE PUSH1 0xC PUSH1 0x20 MSTORE PUSH1 0x40 SWAP1 KECCAK256 PUSH2 0xF6A SWAP1 PUSH1 0xA ADD DUP6 PUSH1 0x5 PUSH2 0x1585 JUMP JUMPDEST POP PUSH1 0x0 DUP8 DUP2 MSTORE PUSH1 0xC PUSH1 0x20 MSTORE PUSH1 0x40 SWAP1 KECCAK256 PUSH2 0xF88 SWAP1 PUSH1 0xF ADD DUP5 PUSH1 0x5 PUSH2 0x1585 JUMP JUMPDEST POP PUSH1 0x0 DUP8 DUP2 MSTORE PUSH1 0xC PUSH1 0x20 MSTORE PUSH1 0x40 SWAP1 KECCAK256 PUSH2 0xFA6 SWAP1 PUSH1 0x14 ADD DUP4 PUSH1 0x5 PUSH2 0x1585 JUMP JUMPDEST POP PUSH1 0x0 DUP8 DUP2 MSTORE PUSH1 0xC PUSH1 0x20 MSTORE PUSH1 0x40 SWAP1 KECCAK256 PUSH2 0xFC4 SWAP1 PUSH1 0x19 ADD DUP3 PUSH1 0x5 PUSH2 0x1585 JUMP JUMPDEST POP PUSH32 0x975E819E964A851CC1D16E54BB4A815E8F5AF37C7B5863D23C29614B5A9973B0 DUP8 PUSH1 0x40 MLOAD PUSH2 0xFF4 SWAP2 SWAP1 PUSH2 0x1C7D JUMP JUMPDEST PUSH1 0x40 MLOAD DUP1 SWAP2 SUB SWAP1 LOG1 POP POP POP POP POP POP POP JUMP JUMPDEST PUSH1 0x4 SLOAD PUSH1 0x1 PUSH1 0x1 PUSH1 0xA0 SHL SUB AND DUP2 JUMP JUMPDEST PUSH2 0x101C PUSH2 0x12A5 JUMP JUMPDEST PUSH1 0x1 PUSH1 0x1 PUSH1 0xA0 SHL SUB AND PUSH2 0x102D PUSH2 0x5AB JUMP JUMPDEST PUSH1 0x1 PUSH1 0x1 PUSH1 0xA0 SHL SUB AND EQ PUSH2 0x1053 JUMPI PUSH1 0x40 MLOAD PUSH3 0x461BCD PUSH1 0xE5 SHL DUP2 MSTORE PUSH1 0x4 ADD PUSH2 0x370 SWAP1 PUSH2 0x1BE8 JUMP JUMPDEST PUSH1 0xA DUP1 SLOAD DUP3 SWAP2 SWAP1 PUSH1 0xFF NOT AND PUSH1 0x1 DUP4 PUSH1 0x4 DUP2 GT ISZERO PUSH2 0x106C JUMPI INVALID JUMPDEST MUL OR SWAP1 SSTORE POP PUSH1 0xA SLOAD PUSH1 0x40 MLOAD PUSH32 0x764216CC87D672D651534A1B124F00F678D3ED29AAF5E649AF8E92590CBF9F11 SWAP2 PUSH2 0x10A8 SWAP2 PUSH1 0xFF SWAP1 SWAP2 AND SWAP1 PUSH2 0x19EB JUMP JUMPDEST PUSH1 0x40 MLOAD DUP1 SWAP2 SUB SWAP1 LOG1 POP JUMP JUMPDEST PUSH2 0x10BB PUSH2 0x12A5 JUMP JUMPDEST PUSH1 0x1 PUSH1 0x1 PUSH1 0xA0 SHL SUB AND PUSH2 0x10CC PUSH2 0x5AB JUMP JUMPDEST PUSH1 0x1 PUSH1 0x1 PUSH1 0xA0 SHL SUB AND EQ PUSH2 0x10F2 JUMPI PUSH1 0x40 MLOAD PUSH3 0x461BCD PUSH1 0xE5 SHL DUP2 MSTORE PUSH1 0x4 ADD PUSH2 0x370 SWAP1 PUSH2 0x1BE8 JUMP JUMPDEST PUSH1 0x4 PUSH1 0xA SLOAD PUSH1 0xFF AND PUSH1 0x4 DUP2 GT ISZERO PUSH2 0x1105 JUMPI INVALID JUMPDEST EQ PUSH2 0x1122 JUMPI PUSH1 0x40 MLOAD PUSH3 0x461BCD PUSH1 0xE5 SHL DUP2 MSTORE PUSH1 0x4 ADD PUSH2 0x370 SWAP1 PUSH2 0x1BA1 JUMP JUMPDEST PUSH2 0x647 PUSH2 0x112D PUSH2 0x12A5 JUMP JUMPDEST PUSH1 0x5 SLOAD PUSH1 0x1 PUSH1 0x1 PUSH1 0xA0 SHL SUB AND SWAP1 DUP4 PUSH2 0x12A9 JUMP JUMPDEST PUSH1 0xA SLOAD PUSH1 0xFF AND DUP2 JUMP JUMPDEST PUSH2 0x1151 PUSH2 0x12A5 JUMP JUMPDEST PUSH1 0x1 PUSH1 0x1 PUSH1 0xA0 SHL SUB AND PUSH2 0x1162 PUSH2 0x5AB JUMP JUMPDEST PUSH1 0x1 PUSH1 0x1 PUSH1 0xA0 SHL SUB AND EQ PUSH2 0x1188 JUMPI PUSH1 0x40 MLOAD PUSH3 0x461BCD PUSH1 0xE5 SHL DUP2 MSTORE PUSH1 0x4 ADD PUSH2 0x370 SWAP1 PUSH2 0x1BE8 JUMP JUMPDEST PUSH1 0x4 PUSH1 0xA SLOAD PUSH1 0xFF AND PUSH1 0x4 DUP2 GT ISZERO PUSH2 0x119B JUMPI INVALID JUMPDEST EQ PUSH2 0x11B8 JUMPI PUSH1 0x40 MLOAD PUSH3 0x461BCD PUSH1 0xE5 SHL DUP2 MSTORE PUSH1 0x4 ADD PUSH2 0x370 SWAP1 PUSH2 0x1BA1 JUMP JUMPDEST PUSH2 0x647 PUSH2 0x11C3 PUSH2 0x12A5 JUMP JUMPDEST PUSH1 0x2 SLOAD PUSH1 0x1 PUSH1 0x1 PUSH1 0xA0 SHL SUB AND SWAP1 DUP4 PUSH2 0x12A9 JUMP JUMPDEST PUSH2 0x11DE PUSH2 0x12A5 JUMP JUMPDEST PUSH1 0x1 PUSH1 0x1 PUSH1 0xA0 SHL SUB AND PUSH2 0x11EF PUSH2 0x5AB JUMP JUMPDEST PUSH1 0x1 PUSH1 0x1 PUSH1 0xA0 SHL SUB AND EQ PUSH2 0x1215 JUMPI PUSH1 0x40 MLOAD PUSH3 0x461BCD PUSH1 0xE5 SHL DUP2 MSTORE PUSH1 0x4 ADD PUSH2 0x370 SWAP1 PUSH2 0x1BE8 JUMP JUMPDEST PUSH1 0x1 PUSH1 0x1 PUSH1 0xA0 SHL SUB DUP2 AND PUSH2 0x123B JUMPI PUSH1 0x40 MLOAD PUSH3 0x461BCD PUSH1 0xE5 SHL DUP2 MSTORE PUSH1 0x4 ADD PUSH2 0x370 SWAP1 PUSH2 0x1A7C JUMP JUMPDEST PUSH1 0x0 DUP1 SLOAD PUSH1 0x40 MLOAD PUSH1 0x1 PUSH1 0x1 PUSH1 0xA0 SHL SUB DUP1 DUP6 AND SWAP4 SWAP3 AND SWAP2 PUSH32 0x8BE0079C531659141344CD1FD0A4F28419497F9722A3DAAFE3B4186F6B6457E0 SWAP2 LOG3 PUSH1 0x0 DUP1 SLOAD PUSH1 0x1 PUSH1 0x1 PUSH1 0xA0 SHL SUB NOT AND PUSH1 0x1 PUSH1 0x1 PUSH1 0xA0 SHL SUB SWAP3 SWAP1 SWAP3 AND SWAP2 SWAP1 SWAP2 OR SWAP1 SSTORE JUMP JUMPDEST PUSH1 0x7 SLOAD PUSH1 0x1 PUSH1 0x1 PUSH1 0xA0 SHL SUB AND DUP2 JUMP JUMPDEST CALLER SWAP1 JUMP JUMPDEST PUSH2 0x12FF DUP4 PUSH4 0xA9059CBB PUSH1 0xE0 SHL DUP5 DUP5 PUSH1 0x40 MLOAD PUSH1 0x24 ADD PUSH2 0x12C8 SWAP3 SWAP2 SWAP1 PUSH2 0x1963 JUMP JUMPDEST PUSH1 0x40 DUP1 MLOAD PUSH1 0x1F NOT DUP2 DUP5 SUB ADD DUP2 MSTORE SWAP2 SWAP1 MSTORE PUSH1 0x20 DUP2 ADD DUP1 MLOAD PUSH1 0x1 PUSH1 0x1 PUSH1 0xE0 SHL SUB AND PUSH1 0x1 PUSH1 0x1 PUSH1 0xE0 SHL SUB NOT SWAP1 SWAP4 AND SWAP3 SWAP1 SWAP3 OR SWAP1 SWAP2 MSTORE PUSH2 0x1304 JUMP JUMPDEST POP POP POP JUMP JUMPDEST PUSH1 0x60 PUSH2 0x1359 DUP3 PUSH1 0x40 MLOAD DUP1 PUSH1 0x40 ADD PUSH1 0x40 MSTORE DUP1 PUSH1 0x20 DUP2 MSTORE PUSH1 0x20 ADD PUSH32 0x5361666542455032303A206C6F772D6C6576656C2063616C6C206661696C6564 DUP2 MSTORE POP DUP6 PUSH1 0x1 PUSH1 0x1 PUSH1 0xA0 SHL SUB AND PUSH2 0x1393 SWAP1 SWAP3 SWAP2 SWAP1 PUSH4 0xFFFFFFFF AND JUMP JUMPDEST DUP1 MLOAD SWAP1 SWAP2 POP ISZERO PUSH2 0x12FF JUMPI DUP1 DUP1 PUSH1 0x20 ADD SWAP1 MLOAD DUP2 ADD SWAP1 PUSH2 0x1377 SWAP2 SWAP1 PUSH2 0x1618 JUMP JUMPDEST PUSH2 0x12FF JUMPI PUSH1 0x40 MLOAD PUSH3 0x461BCD PUSH1 0xE5 SHL DUP2 MSTORE PUSH1 0x4 ADD PUSH2 0x370 SWAP1 PUSH2 0x1A32 JUMP JUMPDEST PUSH1 0x60 PUSH2 0x13A2 DUP5 DUP5 PUSH1 0x0 DUP6 PUSH2 0x13AC JUMP JUMPDEST SWAP1 POP JUMPDEST SWAP4 SWAP3 POP POP POP JUMP JUMPDEST PUSH1 0x60 DUP3 SELFBALANCE LT ISZERO PUSH2 0x13CE JUMPI PUSH1 0x40 MLOAD PUSH3 0x461BCD PUSH1 0xE5 SHL DUP2 MSTORE PUSH1 0x4 ADD PUSH2 0x370 SWAP1 PUSH2 0x1B37 JUMP JUMPDEST PUSH2 0x13D7 DUP6 PUSH2 0x146F JUMP JUMPDEST PUSH2 0x13F3 JUMPI PUSH1 0x40 MLOAD PUSH3 0x461BCD PUSH1 0xE5 SHL DUP2 MSTORE PUSH1 0x4 ADD PUSH2 0x370 SWAP1 PUSH2 0x1C46 JUMP JUMPDEST PUSH1 0x0 PUSH1 0x60 DUP7 PUSH1 0x1 PUSH1 0x1 PUSH1 0xA0 SHL SUB AND DUP6 DUP8 PUSH1 0x40 MLOAD PUSH2 0x1410 SWAP2 SWAP1 PUSH2 0x188C JUMP JUMPDEST PUSH1 0x0 PUSH1 0x40 MLOAD DUP1 DUP4 SUB DUP2 DUP6 DUP8 GAS CALL SWAP3 POP POP POP RETURNDATASIZE DUP1 PUSH1 0x0 DUP2 EQ PUSH2 0x144D JUMPI PUSH1 0x40 MLOAD SWAP2 POP PUSH1 0x1F NOT PUSH1 0x3F RETURNDATASIZE ADD AND DUP3 ADD PUSH1 0x40 MSTORE RETURNDATASIZE DUP3 MSTORE RETURNDATASIZE PUSH1 0x0 PUSH1 0x20 DUP5 ADD RETURNDATACOPY PUSH2 0x1452 JUMP JUMPDEST PUSH1 0x60 SWAP2 POP JUMPDEST POP SWAP2 POP SWAP2 POP PUSH2 0x1462 DUP3 DUP3 DUP7 PUSH2 0x1475 JUMP JUMPDEST SWAP3 POP POP POP JUMPDEST SWAP5 SWAP4 POP POP POP POP JUMP JUMPDEST EXTCODESIZE ISZERO ISZERO SWAP1 JUMP JUMPDEST PUSH1 0x60 DUP4 ISZERO PUSH2 0x1484 JUMPI POP DUP2 PUSH2 0x13A5 JUMP JUMPDEST DUP3 MLOAD ISZERO PUSH2 0x1494 JUMPI DUP3 MLOAD DUP1 DUP5 PUSH1 0x20 ADD REVERT JUMPDEST DUP2 PUSH1 0x40 MLOAD PUSH3 0x461BCD PUSH1 0xE5 SHL DUP2 MSTORE PUSH1 0x4 ADD PUSH2 0x370 SWAP2 SWAP1 PUSH2 0x19FF JUMP JUMPDEST DUP3 DUP1 SLOAD PUSH1 0x1 DUP2 PUSH1 0x1 AND ISZERO PUSH2 0x100 MUL SUB AND PUSH1 0x2 SWAP1 DIV SWAP1 PUSH1 0x0 MSTORE PUSH1 0x20 PUSH1 0x0 KECCAK256 SWAP1 PUSH1 0x1F ADD PUSH1 0x20 SWAP1 DIV DUP2 ADD SWAP3 DUP3 PUSH1 0x1F LT PUSH2 0x14EF JUMPI DUP3 DUP1 ADD PUSH1 0xFF NOT DUP3 CALLDATALOAD AND OR DUP6 SSTORE PUSH2 0x151C JUMP JUMPDEST DUP3 DUP1 ADD PUSH1 0x1 ADD DUP6 SSTORE DUP3 ISZERO PUSH2 0x151C JUMPI SWAP2 DUP3 ADD JUMPDEST DUP3 DUP2 GT ISZERO PUSH2 0x151C JUMPI DUP3 CALLDATALOAD DUP3 SSTORE SWAP2 PUSH1 0x20 ADD SWAP2 SWAP1 PUSH1 0x1 ADD SWAP1 PUSH2 0x1501 JUMP JUMPDEST POP PUSH2 0x1528 SWAP3 SWAP2 POP PUSH2 0x15B2 JUMP JUMPDEST POP SWAP1 JUMP JUMPDEST PUSH1 0x40 MLOAD DUP1 PUSH1 0xC0 ADD PUSH1 0x40 MSTORE DUP1 PUSH2 0x153F PUSH2 0x15C7 JUMP JUMPDEST DUP2 MSTORE PUSH1 0x20 ADD PUSH2 0x154C PUSH2 0x15C7 JUMP JUMPDEST DUP2 MSTORE PUSH1 0x20 ADD PUSH2 0x1559 PUSH2 0x15C7 JUMP JUMPDEST DUP2 MSTORE PUSH1 0x20 ADD PUSH2 0x1566 PUSH2 0x15C7 JUMP JUMPDEST DUP2 MSTORE PUSH1 0x20 ADD PUSH2 0x1573 PUSH2 0x15C7 JUMP JUMPDEST DUP2 MSTORE PUSH1 0x20 ADD PUSH2 0x1580 PUSH2 0x15C7 JUMP JUMPDEST SWAP1 MSTORE SWAP1 JUMP JUMPDEST DUP3 PUSH1 0x5 DUP2 ADD SWAP3 DUP3 ISZERO PUSH2 0x151C JUMPI SWAP2 PUSH1 0x20 MUL DUP3 ADD DUP3 DUP2 GT ISZERO PUSH2 0x151C JUMPI DUP3 CALLDATALOAD DUP3 SSTORE SWAP2 PUSH1 0x20 ADD SWAP2 SWAP1 PUSH1 0x1 ADD SWAP1 PUSH2 0x1501 JUMP JUMPDEST JUMPDEST DUP1 DUP3 GT ISZERO PUSH2 0x1528 JUMPI PUSH1 0x0 DUP2 SSTORE PUSH1 0x1 ADD PUSH2 0x15B3 JUMP JUMPDEST PUSH1 0x40 MLOAD DUP1 PUSH1 0xA0 ADD PUSH1 0x40 MSTORE DUP1 PUSH1 0x5 SWAP1 PUSH1 0x20 DUP3 MUL DUP1 CALLDATASIZE DUP4 CALLDATACOPY POP SWAP2 SWAP3 SWAP2 POP POP JUMP JUMPDEST DUP1 PUSH1 0xA0 DUP2 ADD DUP4 LT ISZERO PUSH2 0x15F6 JUMPI PUSH1 0x0 DUP1 REVERT JUMPDEST SWAP3 SWAP2 POP POP JUMP JUMPDEST PUSH1 0x0 PUSH1 0x20 DUP3 DUP5 SUB SLT ISZERO PUSH2 0x160D JUMPI DUP1 DUP2 REVERT JUMPDEST DUP2 CALLDATALOAD PUSH2 0x13A5 DUP2 PUSH2 0x1CD0 JUMP JUMPDEST PUSH1 0x0 PUSH1 0x20 DUP3 DUP5 SUB SLT ISZERO PUSH2 0x1629 JUMPI DUP1 DUP2 REVERT JUMPDEST DUP2 MLOAD PUSH2 0x13A5 DUP2 PUSH2 0x1CE5 JUMP JUMPDEST PUSH1 0x0 DUP1 PUSH1 0x0 DUP1 PUSH1 0x0 DUP1 PUSH1 0x0 DUP1 PUSH1 0x0 PUSH2 0x120 DUP11 DUP13 SUB SLT ISZERO PUSH2 0x1652 JUMPI DUP5 DUP6 REVERT JUMPDEST DUP10 MLOAD PUSH2 0x165D DUP2 PUSH2 0x1CE5 JUMP JUMPDEST PUSH1 0x20 DUP12 ADD MLOAD SWAP1 SWAP10 POP PUSH2 0x166E DUP2 PUSH2 0x1CE5 JUMP JUMPDEST DUP1 SWAP9 POP POP PUSH1 0x40 DUP11 ADD MLOAD SWAP7 POP PUSH1 0x60 DUP11 ADD MLOAD SWAP6 POP PUSH1 0x80 DUP11 ADD MLOAD SWAP5 POP PUSH1 0xA0 DUP11 ADD MLOAD SWAP4 POP PUSH1 0xC0 DUP11 ADD MLOAD SWAP3 POP PUSH1 0xE0 DUP11 ADD MLOAD SWAP2 POP PUSH2 0x100 DUP11 ADD MLOAD DUP1 ISZERO ISZERO DUP2 EQ PUSH2 0x16AF JUMPI DUP2 DUP3 REVERT JUMPDEST DUP1 SWAP2 POP POP SWAP3 SWAP6 SWAP9 POP SWAP3 SWAP6 SWAP9 POP SWAP3 SWAP6 SWAP9 JUMP JUMPDEST PUSH1 0x0 PUSH1 0x20 DUP3 DUP5 SUB SLT ISZERO PUSH2 0x16D1 JUMPI DUP1 DUP2 REVERT JUMPDEST DUP2 CALLDATALOAD PUSH1 0x5 DUP2 LT PUSH2 0x13A5 JUMPI DUP2 DUP3 REVERT JUMPDEST PUSH1 0x0 PUSH1 0x20 DUP3 DUP5 SUB SLT ISZERO PUSH2 0x16F0 JUMPI DUP1 DUP2 REVERT JUMPDEST POP CALLDATALOAD SWAP2 SWAP1 POP JUMP JUMPDEST PUSH1 0x0 PUSH1 0x20 DUP3 DUP5 SUB SLT ISZERO PUSH2 0x1708 JUMPI DUP1 DUP2 REVERT JUMPDEST POP MLOAD SWAP2 SWAP1 POP JUMP JUMPDEST PUSH1 0x0 DUP1 PUSH1 0x0 DUP1 PUSH1 0x0 DUP1 PUSH1 0x0 PUSH2 0x3E0 DUP9 DUP11 SUB SLT ISZERO PUSH2 0x172A JUMPI DUP3 DUP4 REVERT JUMPDEST DUP8 CALLDATALOAD SWAP7 POP PUSH2 0x173B DUP10 PUSH1 0x20 DUP11 ADD PUSH2 0x15E5 JUMP JUMPDEST SWAP6 POP PUSH2 0x174A DUP10 PUSH1 0xC0 DUP11 ADD PUSH2 0x15E5 JUMP JUMPDEST SWAP5 POP PUSH2 0x175A DUP10 PUSH2 0x160 DUP11 ADD PUSH2 0x15E5 JUMP JUMPDEST SWAP4 POP PUSH2 0x176A DUP10 PUSH2 0x200 DUP11 ADD PUSH2 0x15E5 JUMP JUMPDEST SWAP3 POP PUSH2 0x177A DUP10 PUSH2 0x2A0 DUP11 ADD PUSH2 0x15E5 JUMP JUMPDEST SWAP2 POP PUSH2 0x178A DUP10 PUSH2 0x340 DUP11 ADD PUSH2 0x15E5 JUMP JUMPDEST SWAP1 POP SWAP3 SWAP6 SWAP9 SWAP2 SWAP5 SWAP8 POP SWAP3 SWAP6 POP JUMP JUMPDEST PUSH1 0x0 DUP1 PUSH1 0x0 DUP1 PUSH1 0x60 DUP6 DUP8 SUB SLT ISZERO PUSH2 0x17AD JUMPI DUP4 DUP5 REVERT JUMPDEST DUP5 CALLDATALOAD SWAP4 POP PUSH1 0x20 DUP6 ADD CALLDATALOAD PUSH8 0xFFFFFFFFFFFFFFFF DUP1 DUP3 GT ISZERO PUSH2 0x17CB JUMPI DUP5 DUP6 REVERT JUMPDEST DUP2 DUP8 ADD SWAP2 POP DUP8 PUSH1 0x1F DUP4 ADD SLT PUSH2 0x17DE JUMPI DUP5 DUP6 REVERT JUMPDEST DUP2 CALLDATALOAD DUP2 DUP2 GT ISZERO PUSH2 0x17EC JUMPI DUP6 DUP7 REVERT JUMPDEST DUP9 PUSH1 0x20 DUP3 DUP6 ADD ADD GT ISZERO PUSH2 0x17FD JUMPI DUP6 DUP7 REVERT JUMPDEST PUSH1 0x20 DUP4 ADD SWAP6 POP DUP1 SWAP5 POP POP POP POP PUSH1 0x40 DUP6 ADD CALLDATALOAD PUSH1 0xFF DUP2 AND DUP2 EQ PUSH2 0x181C JUMPI DUP2 DUP3 REVERT JUMPDEST SWAP4 SWAP7 SWAP3 SWAP6 POP SWAP1 SWAP4 POP POP JUMP JUMPDEST PUSH1 0x0 DUP1 PUSH1 0x0 DUP1 PUSH1 0x0 DUP1 PUSH1 0xC0 DUP8 DUP10 SUB SLT ISZERO PUSH2 0x183F JUMPI DUP2 DUP3 REVERT JUMPDEST DUP7 MLOAD SWAP6 POP PUSH1 0x20 DUP8 ADD MLOAD SWAP5 POP PUSH1 0x40 DUP8 ADD MLOAD SWAP4 POP PUSH1 0x60 DUP8 ADD MLOAD PUSH2 0x185F DUP2 PUSH2 0x1CD0 JUMP JUMPDEST PUSH1 0x80 DUP9 ADD MLOAD PUSH1 0xA0 DUP10 ADD MLOAD SWAP2 SWAP5 POP SWAP3 POP PUSH2 0x1877 DUP2 PUSH2 0x1CE5 JUMP JUMPDEST DUP1 SWAP2 POP POP SWAP3 SWAP6 POP SWAP3 SWAP6 POP SWAP3 SWAP6 JUMP JUMPDEST PUSH1 0xFF AND SWAP1 MSTORE JUMP JUMPDEST PUSH1 0x0 DUP3 MLOAD PUSH2 0x189E DUP2 DUP5 PUSH1 0x20 DUP8 ADD PUSH2 0x1CA0 JUMP JUMPDEST SWAP2 SWAP1 SWAP2 ADD SWAP3 SWAP2 POP POP JUMP JUMPDEST PUSH1 0x1 PUSH1 0x1 PUSH1 0xA0 SHL SUB SWAP2 SWAP1 SWAP2 AND DUP2 MSTORE PUSH1 0x20 ADD SWAP1 JUMP JUMPDEST PUSH1 0x0 PUSH1 0x60 DUP3 ADD PUSH1 0x1 DUP1 PUSH1 0xA0 SHL SUB DUP7 AND DUP4 MSTORE PUSH1 0x20 PUSH1 0x60 DUP2 DUP6 ADD MSTORE DUP3 DUP7 SLOAD PUSH1 0x1 DUP1 DUP3 AND PUSH1 0x0 DUP2 EQ PUSH2 0x18F2 JUMPI PUSH1 0x1 DUP2 EQ PUSH2 0x1912 JUMPI PUSH2 0x194D JUMP JUMPDEST PUSH2 0x1902 PUSH1 0x7F PUSH1 0x2 DUP6 DIV AND DUP8 PUSH2 0x1C7D JUMP JUMPDEST PUSH1 0xFF NOT DUP5 AND DUP2 MSTORE DUP6 ADD SWAP4 POP PUSH2 0x194D JUMP JUMPDEST PUSH1 0x2 DUP4 DIV PUSH2 0x1920 DUP2 DUP9 PUSH2 0x1C7D JUMP JUMPDEST PUSH2 0x1929 DUP13 PUSH2 0x1C94 JUMP JUMPDEST DUP10 JUMPDEST DUP4 DUP2 LT ISZERO PUSH2 0x1944 JUMPI DUP2 SLOAD DUP4 DUP3 ADD MSTORE SWAP1 DUP6 ADD SWAP1 DUP9 ADD PUSH2 0x192B JUMP JUMPDEST SWAP2 SWAP1 SWAP2 ADD SWAP6 POP POP POP JUMPDEST POP POP POP DUP1 SWAP4 POP POP POP POP PUSH2 0x1467 PUSH1 0x40 DUP4 ADD DUP5 PUSH2 0x1885 JUMP JUMPDEST PUSH1 0x1 PUSH1 0x1 PUSH1 0xA0 SHL SUB SWAP3 SWAP1 SWAP3 AND DUP3 MSTORE PUSH1 0x20 DUP3 ADD MSTORE PUSH1 0x40 ADD SWAP1 JUMP JUMPDEST PUSH1 0x1 PUSH1 0x1 PUSH1 0xA0 SHL SUB SWAP4 SWAP1 SWAP4 AND DUP4 MSTORE PUSH1 0x20 DUP4 ADD SWAP2 SWAP1 SWAP2 MSTORE PUSH1 0x40 DUP3 ADD MSTORE PUSH1 0x60 ADD SWAP1 JUMP JUMPDEST SWAP1 ISZERO ISZERO DUP2 MSTORE PUSH1 0x20 ADD SWAP1 JUMP JUMPDEST SWAP9 ISZERO ISZERO DUP10 MSTORE SWAP7 ISZERO ISZERO PUSH1 0x20 DUP10 ADD MSTORE PUSH1 0x40 DUP9 ADD SWAP6 SWAP1 SWAP6 MSTORE PUSH1 0x60 DUP8 ADD SWAP4 SWAP1 SWAP4 MSTORE PUSH1 0x80 DUP7 ADD SWAP2 SWAP1 SWAP2 MSTORE PUSH1 0xA0 DUP6 ADD MSTORE PUSH1 0xC0 DUP5 ADD MSTORE PUSH1 0xE0 DUP4 ADD MSTORE ISZERO ISZERO PUSH2 0x100 DUP3 ADD MSTORE PUSH2 0x120 ADD SWAP1 JUMP JUMPDEST PUSH1 0x20 DUP2 ADD PUSH1 0x5 DUP4 LT PUSH2 0x19F9 JUMPI INVALID JUMPDEST SWAP2 SWAP1 MSTORE SWAP1 JUMP JUMPDEST PUSH1 0x0 PUSH1 0x20 DUP3 MSTORE DUP3 MLOAD DUP1 PUSH1 0x20 DUP5 ADD MSTORE PUSH2 0x1A1E DUP2 PUSH1 0x40 DUP6 ADD PUSH1 0x20 DUP8 ADD PUSH2 0x1CA0 JUMP JUMPDEST PUSH1 0x1F ADD PUSH1 0x1F NOT AND SWAP2 SWAP1 SWAP2 ADD PUSH1 0x40 ADD SWAP3 SWAP2 POP POP JUMP JUMPDEST PUSH1 0x20 DUP1 DUP3 MSTORE PUSH1 0x2A SWAP1 DUP3 ADD MSTORE PUSH32 0x5361666542455032303A204245503230206F7065726174696F6E20646964206E PUSH1 0x40 DUP3 ADD MSTORE PUSH10 0x1BDD081CDD58D8D95959 PUSH1 0xB2 SHL PUSH1 0x60 DUP3 ADD MSTORE PUSH1 0x80 ADD SWAP1 JUMP JUMPDEST PUSH1 0x20 DUP1 DUP3 MSTORE PUSH1 0x26 SWAP1 DUP3 ADD MSTORE PUSH32 0x4F776E61626C653A206E6577206F776E657220697320746865207A65726F2061 PUSH1 0x40 DUP3 ADD MSTORE PUSH6 0x646472657373 PUSH1 0xD0 SHL PUSH1 0x60 DUP3 ADD MSTORE PUSH1 0x80 ADD SWAP1 JUMP JUMPDEST PUSH1 0x20 DUP1 DUP3 MSTORE PUSH1 0xE SWAP1 DUP3 ADD MSTORE PUSH14 0x1393D517D49151D254D511549151 PUSH1 0x92 SHL PUSH1 0x40 DUP3 ADD MSTORE PUSH1 0x60 ADD SWAP1 JUMP JUMPDEST PUSH1 0x20 DUP1 DUP3 MSTORE PUSH1 0x8 SWAP1 DUP3 ADD MSTORE PUSH8 0x2727AA2FA7A822A7 PUSH1 0xC1 SHL PUSH1 0x40 DUP3 ADD MSTORE PUSH1 0x60 ADD SWAP1 JUMP JUMPDEST PUSH1 0x20 DUP1 DUP3 MSTORE PUSH1 0x11 SWAP1 DUP3 ADD MSTORE PUSH17 0x1393D517D59053125117D511505357D251 PUSH1 0x7A SHL PUSH1 0x40 DUP3 ADD MSTORE PUSH1 0x60 ADD SWAP1 JUMP JUMPDEST PUSH1 0x20 DUP1 DUP3 MSTORE PUSH1 0x26 SWAP1 DUP3 ADD MSTORE PUSH32 0x416464726573733A20696E73756666696369656E742062616C616E636520666F PUSH1 0x40 DUP3 ADD MSTORE PUSH6 0x1C8818D85B1B PUSH1 0xD2 SHL PUSH1 0x60 DUP3 ADD MSTORE PUSH1 0x80 ADD SWAP1 JUMP JUMPDEST PUSH1 0x20 DUP1 DUP3 MSTORE PUSH1 0xA SWAP1 DUP3 ADD MSTORE PUSH10 0x49445F544F4F5F4C4F57 PUSH1 0xB0 SHL PUSH1 0x40 DUP3 ADD MSTORE PUSH1 0x60 ADD SWAP1 JUMP JUMPDEST PUSH1 0x20 DUP1 DUP3 MSTORE PUSH1 0x8 SWAP1 DUP3 ADD MSTORE PUSH8 0x2727AA2FA7AB22A9 PUSH1 0xC1 SHL PUSH1 0x40 DUP3 ADD MSTORE PUSH1 0x60 ADD SWAP1 JUMP JUMPDEST PUSH1 0x20 DUP1 DUP3 MSTORE PUSH1 0xB SWAP1 DUP3 ADD MSTORE PUSH11 0x121054D7D0D31052535151 PUSH1 0xAA SHL PUSH1 0x40 DUP3 ADD MSTORE PUSH1 0x60 ADD SWAP1 JUMP JUMPDEST PUSH1 0x20 DUP1 DUP3 MSTORE DUP2 DUP2 ADD MSTORE PUSH32 0x4F776E61626C653A2063616C6C6572206973206E6F7420746865206F776E6572 PUSH1 0x40 DUP3 ADD MSTORE PUSH1 0x60 ADD SWAP1 JUMP JUMPDEST PUSH1 0x20 DUP1 DUP3 MSTORE PUSH1 0xF SWAP1 DUP3 ADD MSTORE PUSH15 0x4E4F545F494E5F434C41494D494E47 PUSH1 0x88 SHL PUSH1 0x40 DUP3 ADD MSTORE PUSH1 0x60 ADD SWAP1 JUMP JUMPDEST PUSH1 0x20 DUP1 DUP3 MSTORE PUSH1 0x1D SWAP1 DUP3 ADD MSTORE PUSH32 0x416464726573733A2063616C6C20746F206E6F6E2D636F6E7472616374000000 PUSH1 0x40 DUP3 ADD MSTORE PUSH1 0x60 ADD SWAP1 JUMP JUMPDEST SWAP1 DUP2 MSTORE PUSH1 0x20 ADD SWAP1 JUMP JUMPDEST PUSH1 0xFF SWAP2 SWAP1 SWAP2 AND DUP2 MSTORE PUSH1 0x20 ADD SWAP1 JUMP JUMPDEST PUSH1 0x0 SWAP1 DUP2 MSTORE PUSH1 0x20 SWAP1 KECCAK256 SWAP1 JUMP JUMPDEST PUSH1 0x0 JUMPDEST DUP4 DUP2 LT ISZERO PUSH2 0x1CBB JUMPI DUP2 DUP2 ADD MLOAD DUP4 DUP3 ADD MSTORE PUSH1 0x20 ADD PUSH2 0x1CA3 JUMP JUMPDEST DUP4 DUP2 GT ISZERO PUSH2 0x1CCA JUMPI PUSH1 0x0 DUP5 DUP5 ADD MSTORE JUMPDEST POP POP POP POP JUMP JUMPDEST PUSH1 0x1 PUSH1 0x1 PUSH1 0xA0 SHL SUB DUP2 AND DUP2 EQ PUSH2 0x647 JUMPI PUSH1 0x0 DUP1 REVERT JUMPDEST DUP1 ISZERO ISZERO DUP2 EQ PUSH2 0x647 JUMPI PUSH1 0x0 DUP1 REVERT INVALID LOG2 PUSH5 0x6970667358 0x22 SLT KECCAK256 SSTORE 0xD0 ADDMOD RETURNDATASIZE 0x23 0xB6 PUSH30 0xBFB89490325EE5F63FDC05A1A37130C118010037EDCD82C17964736F6C63 NUMBER STOP MOD 0xC STOP CALLER "
		},
		"gasEstimates": {
			"creation": {
				"codeDepositCost": "1493000",
				"executionCost": "infinite",
				"totalCost": "infinite"
			},
			"external": {
				"bunnyId()": "1086",
				"bunnyMintingStation()": "1182",
				"cakeToken()": "1115",
				"claimCakeRemainder(uint256)": "infinite",
				"claimInformation(address)": "infinite",
				"claimLazioRemainder(uint256)": "infinite",
				"claimPortoRemainder(uint256)": "infinite",
				"claimReward()": "infinite",
				"claimSantosRemainder(uint256)": "infinite",
				"currentStatus()": "1104",
				"lazioToken()": "1137",
				"numberTeams()": "318",
				"owner()": "1137",
				"pancakeProfile()": "1159",
				"portoToken()": "1115",
				"renounceOwnership()": "24389",
				"santosToken()": "1181",
				"tokenURI()": "infinite",
				"tradingCompV2()": "1180",
				"transferOwnership(address)": "24572",
				"updateCompetitionStatus(uint8)": "24048",
				"updateTeamRewards(uint256,uint256[5],uint256[5],uint256[5],uint256[5],uint256[5],uint256[5])": "infinite",
				"updateWinningTeamAndTokenURIAndBunnyId(uint256,string,uint8)": "infinite",
				"userTradingStats(address)": "1282",
				"winningTeamId()": "1139"
			}
		},
		"methodIdentifiers": {
			"bunnyId()": "88b2d0da",
			"bunnyMintingStation()": "51b3795c",
			"cakeToken()": "8904bf2f",
			"claimCakeRemainder(uint256)": "f1d7b550",
			"claimInformation(address)": "a849d38f",
			"claimLazioRemainder(uint256)": "b58e8386",
			"claimPortoRemainder(uint256)": "902bc4de",
			"claimReward()": "b88a802f",
			"claimSantosRemainder(uint256)": "ebb00bbe",
			"currentStatus()": "ef8a9235",
			"lazioToken()": "c529a59c",
			"numberTeams()": "3dd452d6",
			"owner()": "8da5cb5b",
			"pancakeProfile()": "c7d936ec",
			"portoToken()": "e5b030a6",
			"renounceOwnership()": "715018a6",
			"santosToken()": "a39a07ff",
			"tokenURI()": "3c130d90",
			"tradingCompV2()": "f9cf4f8e",
			"transferOwnership(address)": "f2fde38b",
			"updateCompetitionStatus(uint8)": "e8c5408d",
			"updateTeamRewards(uint256,uint256[5],uint256[5],uint256[5],uint256[5],uint256[5],uint256[5])": "e21125fc",
			"updateWinningTeamAndTokenURIAndBunnyId(uint256,string,uint8)": "2c3e2bee",
			"userTradingStats(address)": "1de403e3",
			"winningTeamId()": "d6948c47"
		}
	},
	"abi": [
		{
			"inputs": [
				{
					"internalType": "address",
					"name": "_pancakeProfileAddress",
					"type": "address"
				},
				{
					"internalType": "address",
					"name": "_bunnyStationAddress",
					"type": "address"
				},
				{
					"internalType": "address",
					"name": "_cakeTokenAddress",
					"type": "address"
				},
				{
					"internalType": "address",
					"name": "_lazioTokenAddress",
					"type": "address"
				},
				{
					"internalType": "address",
					"name": "_portoTokenAddress",
					"type": "address"
				},
				{
					"internalType": "address",
					"name": "_santosTokenAddress",
					"type": "address"
				},
				{
					"internalType": "address",
					"name": "_tradingCompV2Address",
					"type": "address"
				}
			],
			"stateMutability": "nonpayable",
			"type": "constructor"
		},
		{
			"anonymous": false,
			"inputs": [
				{
					"indexed": false,
					"internalType": "enum TradingCompV2RewardDistribution.CompetitionStatus",
					"name": "status",
					"type": "uint8"
				}
			],
			"name": "NewCompetitionStatus",
			"type": "event"
		},
		{
			"anonymous": false,
			"inputs": [
				{
					"indexed": true,
					"internalType": "address",
					"name": "previousOwner",
					"type": "address"
				},
				{
					"indexed": true,
					"internalType": "address",
					"name": "newOwner",
					"type": "address"
				}
			],
			"name": "OwnershipTransferred",
			"type": "event"
		},
		{
			"anonymous": false,
			"inputs": [
				{
					"indexed": false,
					"internalType": "uint256",
					"name": "teamId",
					"type": "uint256"
				}
			],
			"name": "TeamRewardsUpdate",
			"type": "event"
		},
		{
			"anonymous": false,
			"inputs": [
				{
					"indexed": false,
					"internalType": "address",
					"name": "userAddress",
					"type": "address"
				},
				{
					"indexed": false,
					"internalType": "uint256",
					"name": "teamId",
					"type": "uint256"
				}
			],
			"name": "UserRegister",
			"type": "event"
		},
		{
			"anonymous": false,
			"inputs": [
				{
					"indexed": false,
					"internalType": "address[]",
					"name": "userAddresses",
					"type": "address[]"
				},
				{
					"indexed": false,
					"internalType": "uint256",
					"name": "rewardGroup",
					"type": "uint256"
				}
			],
			"name": "UserUpdateMultiple",
			"type": "event"
		},
		{
			"anonymous": false,
			"inputs": [
				{
					"indexed": false,
					"internalType": "uint256",
					"name": "teamId",
					"type": "uint256"
				}
			],
			"name": "WinningTeam",
			"type": "event"
		},
		{
			"inputs": [],
			"name": "bunnyId",
			"outputs": [
				{
					"internalType": "uint8",
					"name": "",
					"type": "uint8"
				}
			],
			"stateMutability": "view",
			"type": "function"
		},
		{
			"inputs": [],
			"name": "bunnyMintingStation",
			"outputs": [
				{
					"internalType": "contract BunnyMintingStation",
					"name": "",
					"type": "address"
				}
			],
			"stateMutability": "view",
			"type": "function"
		},
		{
			"inputs": [],
			"name": "cakeToken",
			"outputs": [
				{
					"internalType": "contract IBEP20",
					"name": "",
					"type": "address"
				}
			],
			"stateMutability": "view",
			"type": "function"
		},
		{
			"inputs": [
				{
					"internalType": "uint256",
					"name": "_amount",
					"type": "uint256"
				}
			],
			"name": "claimCakeRemainder",
			"outputs": [],
			"stateMutability": "nonpayable",
			"type": "function"
		},
		{
			"inputs": [
				{
					"internalType": "address",
					"name": "_userAddress",
					"type": "address"
				}
			],
			"name": "claimInformation",
			"outputs": [
				{
					"internalType": "bool",
					"name": "",
					"type": "bool"
				},
				{
					"internalType": "bool",
					"name": "",
					"type": "bool"
				},
				{
					"internalType": "uint256",
					"name": "",
					"type": "uint256"
				},
				{
					"internalType": "uint256",
					"name": "",
					"type": "uint256"
				},
				{
					"internalType": "uint256",
					"name": "",
					"type": "uint256"
				},
				{
					"internalType": "uint256",
					"name": "",
					"type": "uint256"
				},
				{
					"internalType": "uint256",
					"name": "",
					"type": "uint256"
				},
				{
					"internalType": "uint256",
					"name": "",
					"type": "uint256"
				},
				{
					"internalType": "bool",
					"name": "",
					"type": "bool"
				}
			],
			"stateMutability": "view",
			"type": "function"
		},
		{
			"inputs": [
				{
					"internalType": "uint256",
					"name": "_amount",
					"type": "uint256"
				}
			],
			"name": "claimLazioRemainder",
			"outputs": [],
			"stateMutability": "nonpayable",
			"type": "function"
		},
		{
			"inputs": [
				{
					"internalType": "uint256",
					"name": "_amount",
					"type": "uint256"
				}
			],
			"name": "claimPortoRemainder",
			"outputs": [],
			"stateMutability": "nonpayable",
			"type": "function"
		},
		{
			"inputs": [],
			"name": "claimReward",
			"outputs": [],
			"stateMutability": "nonpayable",
			"type": "function"
		},
		{
			"inputs": [
				{
					"internalType": "uint256",
					"name": "_amount",
					"type": "uint256"
				}
			],
			"name": "claimSantosRemainder",
			"outputs": [],
			"stateMutability": "nonpayable",
			"type": "function"
		},
		{
			"inputs": [],
			"name": "currentStatus",
			"outputs": [
				{
					"internalType": "enum TradingCompV2RewardDistribution.CompetitionStatus",
					"name": "",
					"type": "uint8"
				}
			],
			"stateMutability": "view",
			"type": "function"
		},
		{
			"inputs": [],
			"name": "lazioToken",
			"outputs": [
				{
					"internalType": "contract IBEP20",
					"name": "",
					"type": "address"
				}
			],
			"stateMutability": "view",
			"type": "function"
		},
		{
			"inputs": [],
			"name": "numberTeams",
			"outputs": [
				{
					"internalType": "uint256",
					"name": "",
					"type": "uint256"
				}
			],
			"stateMutability": "view",
			"type": "function"
		},
		{
			"inputs": [],
			"name": "owner",
			"outputs": [
				{
					"internalType": "address",
					"name": "",
					"type": "address"
				}
			],
			"stateMutability": "view",
			"type": "function"
		},
		{
			"inputs": [],
			"name": "pancakeProfile",
			"outputs": [
				{
					"internalType": "contract IPancakeProfile",
					"name": "",
					"type": "address"
				}
			],
			"stateMutability": "view",
			"type": "function"
		},
		{
			"inputs": [],
			"name": "portoToken",
			"outputs": [
				{
					"internalType": "contract IBEP20",
					"name": "",
					"type": "address"
				}
			],
			"stateMutability": "view",
			"type": "function"
		},
		{
			"inputs": [],
			"name": "renounceOwnership",
			"outputs": [],
			"stateMutability": "nonpayable",
			"type": "function"
		},
		{
			"inputs": [],
			"name": "santosToken",
			"outputs": [
				{
					"internalType": "contract IBEP20",
					"name": "",
					"type": "address"
				}
			],
			"stateMutability": "view",
			"type": "function"
		},
		{
			"inputs": [],
			"name": "tokenURI",
			"outputs": [
				{
					"internalType": "string",
					"name": "",
					"type": "string"
				}
			],
			"stateMutability": "view",
			"type": "function"
		},
		{
			"inputs": [],
			"name": "tradingCompV2",
			"outputs": [
				{
					"internalType": "contract TradingCompV2",
					"name": "",
					"type": "address"
				}
			],
			"stateMutability": "view",
			"type": "function"
		},
		{
			"inputs": [
				{
					"internalType": "address",
					"name": "newOwner",
					"type": "address"
				}
			],
			"name": "transferOwnership",
			"outputs": [],
			"stateMutability": "nonpayable",
			"type": "function"
		},
		{
			"inputs": [
				{
					"internalType": "enum TradingCompV2RewardDistribution.CompetitionStatus",
					"name": "_status",
					"type": "uint8"
				}
			],
			"name": "updateCompetitionStatus",
			"outputs": [],
			"stateMutability": "nonpayable",
			"type": "function"
		},
		{
			"inputs": [
				{
					"internalType": "uint256",
					"name": "_teamId",
					"type": "uint256"
				},
				{
					"internalType": "uint256[5]",
					"name": "_userCampaignIds",
					"type": "uint256[5]"
				},
				{
					"internalType": "uint256[5]",
					"name": "_cakeRewards",
					"type": "uint256[5]"
				},
				{
					"internalType": "uint256[5]",
					"name": "_lazioRewards",
					"type": "uint256[5]"
				},
				{
					"internalType": "uint256[5]",
					"name": "_portoRewards",
					"type": "uint256[5]"
				},
				{
					"internalType": "uint256[5]",
					"name": "_santosRewards",
					"type": "uint256[5]"
				},
				{
					"internalType": "uint256[5]",
					"name": "_pointRewards",
					"type": "uint256[5]"
				}
			],
			"name": "updateTeamRewards",
			"outputs": [],
			"stateMutability": "nonpayable",
			"type": "function"
		},
		{
			"inputs": [
				{
					"internalType": "uint256",
					"name": "_winningTeamId",
					"type": "uint256"
				},
				{
					"internalType": "string",
					"name": "_tokenURI",
					"type": "string"
				},
				{
					"internalType": "uint8",
					"name": "_bunnyId",
					"type": "uint8"
				}
			],
			"name": "updateWinningTeamAndTokenURIAndBunnyId",
			"outputs": [],
			"stateMutability": "nonpayable",
			"type": "function"
		},
		{
			"inputs": [
				{
					"internalType": "address",
					"name": "",
					"type": "address"
				}
			],
			"name": "userTradingStats",
			"outputs": [
				{
					"internalType": "bool",
					"name": "hasClaimed",
					"type": "bool"
				}
			],
			"stateMutability": "view",
			"type": "function"
		},
		{
			"inputs": [],
			"name": "winningTeamId",
			"outputs": [
				{
					"internalType": "uint256",
					"name": "",
					"type": "uint256"
				}
			],
			"stateMutability": "view",
			"type": "function"
		}
	]
}